:100000000C942A000C94F7020C9447000C944700BF
:100010000C9447000C9447000C9447000C946F0319
:100020000C9447000C9447000C9447000C94470034
:100030000C9447000C9447000C9447000C94470024
:100040000C9447000C9447000C9447000C94470014
:100050000C94470011241FBECFE5D8E0DEBFCDBF12
:1000600013E0A0E6B0E0E6E7F7E202C005900D92EB
:10007000A438B107D9F723E0A4E8B3E001C01D928A
:10008000AB3CB207E1F70E948C040C94B9130C94BA
:10009000000080FF02C0AC9A01C0AC9881FF02C092
:1000A000AD9A01C0AD9882FF02C0AE9A01C0AE9871
:1000B00083FF02C0AF9A0895AF980895CF93C82FD9
:1000C000A998AB9882958F700E944900AB9A87EEF1
:1000D00093E00197F1F700C00000AB9887EE93E042
:1000E0000197F1F700C000008C2F8F700E9449002B
:1000F000AB9A87EE93E00197F1F700C00000AB9850
:1001000087EE93E00197F1F700C00000CF910895CA
:1001100081E00E945E00089580E00E9449008FE126
:100120009EE40197F1F700C0000083E30E945E00A7
:1001300087E893E10197F1F700C0000082E30E9495
:100140005E0087E893E10197F1F700C0000088E2C4
:100150000E945E0087E893E10197F1F700C000007C
:1001600088E20E945E0087E893E10197F1F700C002
:10017000000086E00E945E0087E893E10197F1F7B6
:1001800000C000008CE00E945E0087E893E10197C8
:10019000F1F700C0000081E00E945E0087E893E173
:1001A0000197F1F700C000000895811105C080E8B3
:1001B000860F0E945E000895813029F480EC860F3E
:1001C0000E945E000895823029F484E9860F0E941F
:1001D0005E000895833021F484ED860F0E945E0056
:1001E0000895CF93C82FA99AAB9882958F700E94DB
:1001F0004900AB9A87EE93E00197F1F700C0000049
:10020000AB9887EE93E00197F1F700C000008C2FC8
:100210008F700E944900AB9A87EE93E00197F1F747
:1002200000C00000AB9887EE93E00197F1F700C0A3
:100230000000CF910895CF93DF93EC012196FC014C
:100240008081882329F00E94F10089918111FBCFE0
:10025000DF91CF9108954F925F926F927F928F922C
:100260009F92AF92BF92EF92FF920F931F93CF9303
:10027000DF93CDB7DEB72A970FB6F894DEBF0FBE77
:10028000CDBF4B015C017A010E94BF119F770E9494
:100290008C11FE0131962AE0DF011D922A95E9F7C3
:1002A0006115710581059105D1F08E01055F1F4F24
:1002B0000F2EFAE04F2E512C612C712CF02DA30142
:1002C00092010E943D13F80162938F01622F732FF8
:1002D000842F952F611571058105910581F7FFEF39
:1002E000EF16FF0669F4898181110FC0FE01329675
:1002F00000E010E00F5F1F4F81918823D9F307C002
:100300000AE010E00E191F0902C000E010E0BB2057
:100310001CF48DE20E94F1000A3011059CF481E08A
:1003200090E08C0F9D1F080F191F7E019BE0E90EC6
:10033000F11CD8018D918D01805D0E94F1000E1598
:100340001F05B9F72A960FB6F894DEBF0FBECDBFD2
:10035000DF91CF911F910F91FF90EF90BF90AF90E1
:100360009F908F907F906F905F904F9008958F92A5
:100370009F92AF92BF92DF92EF92FF920F931F93E3
:10038000CF93DF93CDB7DEB72A970FB6F894DEBFD1
:100390000FBECDBF4B015C01D42E99231CF48DE21E
:1003A0000E94F100C501B4010E94BF119F770E9415
:1003B0008C1116161706180619060CF59E012F5FEC
:1003C0003F4F790100E010E00F2EFAE08F2E912CC4
:1003D000A12CB12CF02D0F5F1F4FA50194010E949D
:1003E0003D13605DF70161937F01622F732F842FAE
:1003F000952F16161706180619066CF302C000E0B2
:1004000010E09E012F5F3F4F7901F901E00FF11FCE
:100410001082C9010E947613C7010E941B01F701D7
:1004200001900020E9F73197EE19FF09DE1A92F0EA
:10043000ED2CFF24E7FCF0941E141F047CF400E074
:1004400010E080E20E94F1000F5F1F4F0E151F05A4
:10045000C4F304C08EE991E00E941B012A960FB6F6
:10046000F894DEBF0FBECDBFDF91CF911F910F91EA
:10047000FF90EF90DF90BF90AF909F908F90089586
:1004800087B3806A87BB86E58DB908958FB9779B5E
:10049000FECF8FB10895BC9AC49A0E94400208957D
:1004A000CF93DF93C4982DE02A95F1F7000080E008
:1004B0000E944602C82FD0E0DC2FCC2780E00E94AB
:1004C0004602C49A9E01280F311DC901DF91CF91C8
:1004D00008950E94500282FD0DC0887F9F779595F8
:1004E00087959595879595958795959587959595F4
:1004F0008795089580ED97E008958FEF8BBB80EF8F
:100500008ABB08958FEE8BBB87EE93E00197F1F7DE
:1005100000C00000C89B3BC0C99B3CC0CA9B3DC0FB
:10052000CB9B3EC08FED8BBB87EE93E00197F1F73D
:1005300000C00000C89B37C0C99B38C0CA9B39C0E7
:10054000CB9B3AC08FEB8BBB87EE93E00197F1F723
:1005500000C00000C89B33C0C99B34C0CA9B35C0D3
:10056000CB9B36C08FE78BBB87EE93E00197F1F70B
:1005700000C00000C89B2FC0C99B30C0CA9B31C0BF
:10058000CB9B32C08FEF8BBB80E090E0089581E081
:1005900090E0089584E090E0089587E090E0089569
:1005A0008BE090E0089582E090E0089585E090E08F
:1005B000089588E090E008958AE090E0089583E04F
:1005C00090E0089586E090E0089589E090E0089535
:1005D0008CE090E008958DE090E008958EE090E04A
:1005E00008958FE090E0089580E190E008951F92D3
:1005F0000F920FB60F9211248F939F93AF93BF93D7
:100600008091BB039091BC03A091BD03B091BE0348
:100610000196A11DB11D8093BB039093BC03A093D1
:10062000BD03B093BE03BF91AF919F918F910F9087
:100630000FBE0F901F901895EBEAF3E020813181F7
:100640003093AA032093A903ADEAB3E02D913C9126
:10065000119731832083EFEAF3E0708161817C930D
:1006600011966C9391838083272F362FAC014F5FB7
:100670005F4F4217530721F002962817390779F484
:100680008091B203853040F47093AF036093B00360
:100690008F5F8093B20305C01092B20302C0109224
:1006A000B2038091AF039091B003019728173907E7
:1006B00079F48091B103853040F47093AF03609377
:1006C000B0038F5F8093B10305C01092B10302C0E5
:1006D0001092B1038091AF039091B00308951F92DF
:1006E0000F920FB60F9211244F925F926F927F92EA
:1006F0008F929F92AF92BF92CF92DF92EF92FF9232
:100700002F933F934F935F936F937F938F939F9319
:10071000AF93BF93EF93FF93CF93DF9300D000D0BD
:10072000CDB7DEB7A8958091A8038F5F8093A8030B
:100730000E946902BC01882777FD8095982F0E944E
:10074000BF112091940330919503409196035091ED
:1007500097030E94BC106093940370939503809359
:100760009603909397032091A803243008F4B1C016
:10077000C090C303D090C403E090C503F090C603BB
:100780002FEFC21AD20AE20AF20AC092C303D09231
:10079000C403E092C503F092C60320E030E040E8D5
:1007A0005EE30E946F120E94D212609390037093D6
:1007B000910380939203909393030E949111CB0134
:1007C0000E941C03BC0180E090E00E94BD116B01FF
:1007D0007C016093900370939103809392039093B4
:1007E000930380919C0390919D03A0919E03B091EF
:1007F0009F0389839A83AB83BC834090A40350906A
:10080000A5036090A6037090A7039C01AD016091C1
:1008100098037091990380919A0390919B030E9491
:10082000BB104B015C01A3019201C701B6010E94FC
:10083000BB109B01AC01C501B4010E946F124B01BA
:100840005C01609388037093890380938A0390937B
:100850008B03A30192016091A0037091A103809189
:10086000A2039091A3030E94BB109B01AC01609373
:100870008403709385038093860390938703C50157
:10088000B4010E9424119B01AC0169817A818B81A2
:100890009C810E94BC1020E030E048EC52E40E94B1
:1008A00024119B01AC01C701B6010E946F12609335
:1008B0008C0370938D0380938E0390938F0310921B
:1008C000940310929503109296031092970310923E
:1008D000A8030F900F900F900F90DF91CF91FF9191
:1008E000EF91BF91AF919F918F917F916F915F91A8
:1008F0004F913F912F91FF90EF90DF90CF90BF905D
:10090000AF909F908F907F906F905F904F900F90DF
:100910000FBE0F901F901895CF93DF93CDB7DEB722
:10092000A2970FB6F894DEBF0FBECDBF87B3876026
:1009300087BB8EEF84BB0E944B020E948C000E94FA
:100940007D021FBC8CE08EBD8FE08BBD82E48ABD32
:100950008BB780648BBF84B784BF85B7836085BF46
:1009600080E48ABF80E189BF78942DE088E190E03F
:100970000FB6F894A89581BD0FBE21BD312C0F2E66
:10098000F6E06F2EF02D198A1A8A1B8A1C8A1986A6
:100990001A861B861C86812C912C5401C12CD12CCB
:1009A00076011D861E861F86188A712C00E0212C78
:1009B00089829A82AB82BC826D8A3E8AB72C12C031
:1009C000AD8A1E8B19861A861B861C8619821A828E
:1009D0001B821C8207C0B12E05C049825A826B82DD
:1009E0007C821E8B88B3887F88BB84E190E00E9464
:1009F00086136093C7037093C8038093C9039093D1
:100A0000CA038CE090E00E9486136093A403709365
:100A1000A5038093A6039093A70388E090E00E942B
:100A200086136093A0037093A1038093A203909315
:100A3000A30384E090E00E94861360939C0370936C
:100A40009D0380939E0390939F0380E090E00E941B
:100A50008613609398037093990380939A039093FD
:100A60009B0380E190E00E9486136093B303709330
:100A7000B4038093B5039093B6030E9488006FE09F
:100A800080E00E94D50080E690E00E941B0160E0BB
:100A900081E00E94D50086E690E00E941B0160E0A4
:100AA00082E00E94D50089E790E00E941B0160E08F
:100AB00083E00E94D50085E890E00E941B01AD888C
:100AC0001E890E948202892BE1F7AD8A1E8B5FE7A7
:100AD00088E391E0515080409040E1F700C0000071
:100AE000AD881E894091BF035091C0036091C1033E
:100AF0007091C2038091C3039091C403A091C50378
:100B0000B091C603481759076A077B07D1F16CE01B
:100B100081E00E94D50020E030E04AEF54E460918B
:100B200090037091910380919203909193030E949E
:100B30002011811105C083E990E00E941B0111C0C2
:100B400060918C0370918D0380918E0390918F033F
:100B50000E948C1144E00E94B7018AE992E00E9451
:100B60001B018091C3039091C403A091C503B09170
:100B7000C6038093BF039093C003A093C103B093B7
:100B8000C2030E948202882309F4ACCF8C3049F062
:100B90008B3009F0A7CFB0C0AD881E8902C0AD88E8
:100BA0001E890E9488006FE080E00E94D50080E6E8
:100BB00090E00E941B0160E081E00E94D5008AE97C
:100BC00090E00E941B0160E082E00E94D5008AEA6A
:100BD00090E00E941B0160E083E00E94D5008AEB58
:100BE00090E00E941B010E948202892BE1F7AFE78F
:100BF000B8E3E1E0A150B040E040E1F700C0000000
:100C00000E9482028823E1F38B3009F4D9CE8F3021
:100C100081F18C30A9F7AD8A1E8B0E94880060E0BC
:100C200080E00E94D5008EE091E00E941B0160E010
:100C300081E00E94D5008EE191E00E941B0160E0FE
:100C400082E00E94D5008BE291E00E941B0160E0EF
:100C500083E00E94D5008CE391E00E941B0111E02B
:100C600019861A861B861C8619821A821B821C8290
:100C700046C00E94880060E080E00E94D50082ECBF
:100C800090E00E941B0160E081E00E94D50085EDAC
:100C900090E00E941B0160E082E00E94D50088EE97
:100CA00090E00E941B0160E083E00E94D5008BEF82
:100CB00090E00E941B010E948202892BE1F7FFE76E
:100CC00028E331E0F15020403040E1F700C000005F
:100CD0000E9482028823E1F38D3009F445C58E30ED
:100CE00009F457C58F3009F46CC5803109F481C50A
:100CF0008B50823068F755CFAD8A1E8B1DE00F2ECA
:100D0000FEE09F2EF02D0F2EFAE08F2EF02D68942E
:100D1000AA24A3F849805A806B807C8009C011E026
:100D200007C013E005C01E8B1FE002C01E8B17E03A
:100D30000E948202892BE1F72FE738E341E021503E
:100D400030404040E1F700C000001130C1F466E0DF
:100D500080E00E94D5008FE793E00E941B0166E0CF
:100D600080E00E94D5008DE00E945E001E8A96E021
:100D70009D8B12E0CB2CD32CE02EF22CEEC1133045
:100D8000C9F466E081E00E94D5008FE793E00E94FD
:100D90001B0166E081E00E94D5008DE00E945E00AC
:100DA000A1E0AE8BB6E0BD8B14E0CB2CD32CE02EB3
:100DB000F22CD3C11530C9F466E082E00E94D50060
:100DC0008FE793E00E941B0166E082E00E94D5005D
:100DD0008DE00E945E00E2E0EE8BF6E0FD8B16E017
:100DE000CB2CD32CE02EF22CB8C1173079F50E9411
:100DF000880060E080E00E94D50081E591E00E94DB
:100E00001B0160E081E00E94D50086E691E00E942F
:100E10001B0160E082E00E94D50087E791E00E941C
:100E20001B0160E083E00E94D5008BE891E00E9406
:100E30001B018DE00E945E0022E02E8B36E03D8B90
:100E40001A2DCB2CD32CE02EF22C87C1183009F0B0
:100E500049C04091BF035091C0036091C10370919C
:100E6000C2038091C3039091C403A091C503B091C4
:100E7000C603481759076A077B0709F46EC18CE05F
:100E80000E945E0060E181E00E94D50060919003C5
:100E90007091910380919203909193030E948C1121
:100EA00044E00E94B7018091C3039091C403A091D4
:100EB000C503B091C6038093BF039093C003A09372
:100EC000C103B093C2036D898E890E94D5004D89FC
:100ED0004A3021F48CE00E945E003FC18DE00E9408
:100EE0005E003BC1193009F042C00E94880060E0FA
:100EF00080E00E94D50080EA91E00E941B0160E042
:100F000081E00E94D50085EB91E00E941B01692DD4
:100F100081E00E94D5006091B7037091B803809181
:100F2000B9039091BA0346E00E94B70160E082E005
:100F30000E94D50084EC91E00E941B0160E083E0F8
:100F40000E94D5008BE891E00E941B0166E082E0E0
:100F50000E94D5008DE00E945E0052E05E8B86E02C
:100F60008D8B182DCB2CD32CE02EF22CF6C01B3001
:100F700079F50E94880060E080E00E94D50081E55C
:100F800091E00E941B0160E081E00E94D50086E6AE
:100F900091E00E941B0160E082E00E94D50084ED98
:100FA00091E00E941B0160E083E00E94D5008BE885
:100FB00091E00E941B018DE00E945E0092E09E8BFA
:100FC000A6E0AD8B1CE0CB2CD32CE02EF22CC5C0C0
:100FD0001C3009F049C04091BF035091C00360919B
:100FE000C1037091C2038091C3039091C403A09187
:100FF000C503B091C603481759076A077B0709F470
:10100000ACC08CE00E945E0060E181E00E94D500EF
:10101000609190037091910380919203909193035A
:101020000E948C1144E00E94B7018091C30390910B
:10103000C403A091C503B091C6038093BF039093EE
:10104000C003A093C103B093C2036D898E890E942F
:10105000D500BD89BA3021F48CE00E945E007DC0CD
:101060008DE00E945E0079C01D30D9F50E94880095
:101070006FE080E00E94D50080E690E00E941B01B6
:1010800060E081E00E94D50087EE91E00E941B01A4
:1010900060E082E00E94D5008CEF91E00E941B018D
:1010A00060E083E00E94D50083E092E00E941B0193
:1010B00066E082E00E94D5008FE793E00E941B016A
:1010C00066E082E00E94D5008DE00E945E00E2E0D2
:1010D000EE8BF6E0FD8B192DCB2CD32CE02EF22CD1
:1010E0003CC01F30D1F50E9488006FE080E00E9474
:1010F000D50080E690E00E941B0160E081E00E9444
:10110000D50088E192E00E941B0160E082E00E942D
:10111000D5008CEF91E00E941B0160E083E00E940B
:10112000D50083E092E00E941B0166E082E00E940D
:10113000D5008FE793E00E941B0166E082E00E94E9
:10114000D5008DE00E945E0022E02E8B36E03D8BC4
:1011500010E1CB2CD32CE02EF22C0E9482028823AB
:1011600009F4F3CD8B30C1F41D838CE00E945E0046
:10117000812F8D7F883009F480C61D811C3009F4D1
:101180007EC6103109F47DC649825A826B827C8208
:101190001E3009F001CD26CC803109F04FC0AD8959
:1011A000A730D8F0A150AD8B6A2F8E890E94D50050
:1011B00080E20E94F1006D898E890E94D5008DE049
:1011C0000E945E00C701B6012AE030E040E050E036
:1011D0000E941B1369017A01B7C7123031F48CE009
:1011E0000E945E00AD881E89DCCC143009F497CDD6
:1011F000163009F496CD183029F48CE00E945E0078
:101200001E8943C61A3009F43EC61C3029F48CE00E
:101210000E945E001E8939C61E3041F449825A82FE
:101220006B827C828CE00E945E00DCCB103109F086
:101230008BC78CE00E945E001E8927C68C3009F0A7
:1012400017C1123009F485C7143009F484C7163069
:1012500089F449825A826B827C820E945E00CD8230
:10126000DE82EF82F88636E03D8BC12CD12CE12C5A
:10127000F12CD3C2183009F050C040919003509126
:10128000910360919203709193034093A403509350
:10129000A5036093A6037093A7038CE090E00E94DF
:1012A0008C13C701B6010E94BD1120E030E048EC6C
:1012B00052E40E946F122091A4033091A503409143
:1012C000A6035091A7030E942411AB01BC0184E046
:1012D00090E00E948C138CE00E945E000E948800C7
:1012E0008CE00E945E0060E080E00E94D50081E515
:1012F00091E00E941B0160E081E00E94D5008DE238
:1013000092E00E941B0160E082E00E94D50082E42E
:1013100092E00E941B011E89B9C61A3009F520917E
:10132000B7033091B8034091B9035091BA03A4E6D2
:10133000B0E00E945C13A70196010E941B13BA0142
:10134000A90180E190E00E948C138CE00E945E0075
:1013500086E08D8B17E0CD84DE84EF84F888E8CCBE
:101360001C30E1F549825A826B827C824091900365
:101370005091910360919203709193034093A00365
:101380005093A1036093A2037093A30388E090E0BD
:101390000E948C13C701B6010E94BD1120E030E00D
:1013A00048EC52E40E946F122091A0033091A103F7
:1013B0004091A2035091A3030E942411AB01BC01F0
:1013C00080E090E00E948C138CE00E945E00A6E01A
:1013D000AD8BC12CD12CE12CF12C04CB1E30A1F50E
:1013E0008CE00E945E008091C7039091C803A09199
:1013F000C903B091CA038C159D05AE05BF0509F45C
:1014000034C50E9488006FE080E00E94D50080E62D
:1014100090E00E941B0162E082E00E94D50080E51E
:1014200092E00E941B01EFEFF9E628E1E150F04065
:101430002040E1F700C0000036E03D8B1DE0CD8488
:10144000DE84EF84F88874CC103109F07DC6B701D2
:10145000A60184E190E00E948C138CE00E945E0063
:1014600056E0CD84DE84EF84F8885D8B1E890DC53F
:101470009D899A3008F069C1893011F5692F8E89EC
:101480000E94D50089E30E94F100AD89AF5FAD8B6A
:10149000CC0CDD1CEE1CFF1CD701C601880F991F68
:1014A000AA1FBB1F880F991FAA1FBB1FC80ED91EDA
:1014B000EA1EFB1EB9E0CB0ED11CE11CF11C3EC1A3
:1014C0008A30E9F46D898E890E94D50080E30E94FC
:1014D000F100ED89EF5FED8BCC0CDD1CEE1CFF1CE9
:1014E000D701C601880F991FAA1FBB1F880F991F1C
:1014F000AA1FBB1FC80ED91EEA1EFB1E1FC18530C6
:1015000011F56D898E890E94D50085E30E94F10056
:10151000FD89FF5FFD8BCC0CDD1CEE1CFF1CD70191
:10152000C601880F991FAA1FBB1F880F991FAA1FEA
:10153000BB1FC80ED91EEA1EFB1E25E0C20ED11C21
:10154000E11CF11CFBC0863011F56D898E890E946B
:10155000D50086E30E94F1003D893F5F3D8BCC0CB6
:10156000DD1CEE1CFF1CD701C601880F991FAA1FA6
:10157000BB1F880F991FAA1FBB1FC80ED91EEA1ECA
:10158000FB1E46E0C40ED11CE11CF11CD7C0873005
:1015900011F56D898E890E94D50087E30E94F100C4
:1015A0005D895F5F5D8BCC0CDD1CEE1CFF1CD701E1
:1015B000C601880F991FAA1FBB1F880F991FAA1F5A
:1015C000BB1FC80ED91EEA1EFB1E87E0C80ED11C29
:1015D000E11CF11CB3C0883011F56D898E890E9421
:1015E000D50088E30E94F1009D899F5F9D8BCC0C04
:1015F000DD1CEE1CFF1CD701C601880F991FAA1F16
:10160000BB1F880F991FAA1FBB1FC80ED91EEA1E39
:10161000FB1EA8E0CA0ED11CE11CF11C8FC081305A
:1016200011F56D898E890E94D50081E30E94F10039
:10163000BD89BF5FBD8BCC0CDD1CEE1CFF1CD70130
:10164000C601880F991FAA1FBB1F880F991FAA1FC9
:10165000BB1FC80ED91EEA1EFB1EEFEFCE1ADE0A14
:10166000EE0AFE0A6BC0823011F56D898E890E94E8
:10167000D50082E30E94F100FD89FF5FFD8BCC0C59
:10168000DD1CEE1CFF1CD701C601880F991FAA1F85
:10169000BB1F880F991FAA1FBB1FC80ED91EEA1EA9
:1016A000FB1E22E0C20ED11CE11CF11C47C083309E
:1016B00011F56D898E890E94D50083E30E94F100A7
:1016C0003D893F5F3D8BCC0CDD1CEE1CFF1CD70120
:1016D000C601880F991FAA1FBB1F880F991FAA1F39
:1016E000BB1FC80ED91EEA1EFB1E43E0C40ED11C50
:1016F000E11CF11C23C0843009F56D898E890E949C
:10170000D50084E30E94F1005D895F5F5D8BCC0CA6
:10171000DD1CEE1CFF1CD701C601880F991FAA1FF4
:10172000BB1F880F991FAA1FBB1FC80ED91EEA1E18
:10173000FB1E84E0C80ED11CE11CF11C9D899A306F
:1017400029F48CE00E945E0001C000C00E94820269
:10175000892BE1F78FE798E3A1E081509040A0400A
:10176000E1F700C00000F1CAAD8A1E8BB2E0BD8374
:101770001E821F821886E9E1E9871A861B861C866D
:1017800026E430E040E050E029833A834B835C83D9
:1017900044C0AD8A1E8B32E03D831E821F821886B4
:1017A00082E390E0A0E0B0E089879A87AB87BC87AE
:1017B00026E430E040E050E029833A834B835C83A9
:1017C0002CC0AD8A1E8B32E03D831E821F8218869C
:1017D00082E390E0A0E0B0E089879A87AB87BC877E
:1017E00022E330E040E050E029833A834B835C837E
:1017F00014C0AD8A1E8B32E03D831E821F82188684
:1018000082E390E0A0E0B0E089879A87AB87BC874D
:101810009CE399831A821B821C820E94880060E0EC
:1018200080E00E94D5008EE091E00E941B0166E0FE
:1018300080E00E94D5001981AA81AB8FBB81BC8F4B
:10184000EC81ED8F44E069817A818B819C810E94DB
:10185000B70160E081E00E94D5008EE191E00E9436
:101860001B0166E081E00E94D500F985FE8F8A8425
:101870009B84AC8444E069857A858B859C850E9435
:10188000B70160E082E00E94D5008BE291E00E9407
:101890001B0166E082E00E94D5004D805E806F8073
:1018A000788444E06D817E818F8198850E94B701A4
:1018B00060E083E00E94D50081E692E00E941B0177
:1018C0000E948202892BE1F74D895E898FE798E3B8
:1018D000A1E081509040A040E1F700C000004D8B96
:1018E0005E8B0E9482028823E1F38B3009F457C992
:1018F0008C30B9F70E94880060E080E00E94D5003B
:1019000086E792E00E941B016BE080E00E94D50018
:1019100044E0612F7B8D8C8D9D8D0E94B70160E02E
:1019200081E00E94D5008BE892E00E941B016BE0F1
:1019300081E00E94D50044E06E8D782D892D9A2D8E
:101940000E94B70160E082E00E94D5008DE992E03C
:101950000E941B016CE082E00E94D50043E0642DF0
:10196000752D862D972D0E94B70160E083E00E94BF
:10197000D50081EB92E00E941B01FFE728E331E0F4
:10198000F15020403040E1F700C000001092BB034E
:101990001092BC031092BD031092BE031092C303B9
:1019A0001092C4031092C5031092C6036D887E88FE
:1019B00043C08091C3039091C403A091C503B0912B
:1019C000C603892B8A2B8B2BB9F16D8A7E8AC29A2A
:1019D00065E080E00E94D5008EE70E94F1004FE7AD
:1019E00058E381E0415050408040E1F700C00000E2
:1019F0002091BB033091BC034091BD035091BE03C5
:101A0000A4E6B0E00E945C132091B3033091B403CC
:101A10004091B5035091B6030E941B132F8B388F52
:101A2000498F5A8F89819A81AB81BC8128173907E8
:101A30004A075B0730F068C00E948202892BE1F7F9
:101A4000B8CF49805A806B807C801F8F88A299A272
:101A5000AAA21B2D8F88988CA98CBA8C0E94820216
:101A6000882339F08C3009F44AC08F3011F40C947B
:101A7000EB0466E080E00E94D50044E050E0C50140
:101A8000B4010E942B0166E081E00E94D5006091C4
:101A90008C0370918D0380918E0390918F030E942F
:101AA0008C1144E050E00E942B01EFE0F7E2319707
:101AB000F1F700C000002091BB033091BC034091BE
:101AC000BD035091BE03A4E6B0E00E945C132091D8
:101AD000B3033091B4034091B5035091B6030E9413
:101AE0001B1349015A01241535054605570508F40D
:101AF000B5CF88A099A0AAA0B12E1F8D05C088A03F
:101B000099A0AAA0B12E1F8DC29865E080E00E9426
:101B1000D5008FEF0E94F10066E080E00E94D500C2
:101B200044E050E0612F7B8D8C8D9D8D0E942B01B8
:101B30005FE788E391E0515080409040E1F700C0BA
:101B400000001092C3031092C4031092C5031092B8
:101B5000C6037D881E892AC08091C3039091C40367
:101B6000A091C503B091C603892B8A2B8B2BF1F072
:101B70007D8A1E8BC19A65E081E00E94D5008EE7C8
:101B80000E94F100AFE7B8E3E1E0A150B040E040CF
:101B9000E1F700C000007D886E88582C492CAD8A82
:101BA0001B2D89889A88AB88BC8805C00E94820258
:101BB000892BE1F7D1CF4091BF035091C0036091D1
:101BC000C1037091C2038091C3039091C403A0919B
:101BD000C503B091C603481759076A077B0731F15F
:101BE00060918C0370918D0380918E0390918F038F
:101BF0000E9491114B015C0166E081E00E94D500DA
:101C000044E050E0C501B4010E942B018091C30360
:101C10009091C403A091C503B091C6038093BF0304
:101C20009093C003A093C103B093C20329853A8562
:101C30004B855C8582169306A406B50698F40E942F
:101C40008202882309F4B7CF8C3061F08F3009F01D
:101C5000B2CF898A9A8AAB8ABC8A7D8A6E8AB12E73
:101C60000C94F204898A9A8AAB8ABC8A6E8AAD88FF
:101C70007D8AB12EC19865E081E00E94D5008FEF8A
:101C80000E94F10066E081E00E94D50044E050E04F
:101C90006E8D752D842D9A2D0E942B011092C303F9
:101CA0001092C4031092C5031092C60365E082E04F
:101CB0000E94D5008EE70E94F100AD881E890E9427
:101CC0008202892BE1F7AD8A1E8B3FE748E351E0A2
:101CD000315040405040E1F700C000006D887E88E0
:101CE0001B2D6091C3037091C4038091C503909133
:101CF000C6032CE330E040E050E00E941B13490192
:101D00005A018D819E81AF81B885281739074A070E
:101D10005B0778F1C09A65E082E00E94D5008FEF02
:101D20000E94F1001092C3031092C4031092C503E5
:101D30001092C6030E94880086EC92E00E941B016C
:101D40006FE080E00E94D50080E690E00E941B01D9
:101D500066E081E00E94D50080ED92E00E941B01C8
:101D600060E083E00E94D5008AED92E00E941B01B2
:101D700030C066E082E00E94D50042E050E0C5013C
:101D8000B4010E942B0169E082E00E94D5006091BD
:101D9000C3037091C4038091C5039091C6032CE3E3
:101DA00030E040E050E00E941B1342E050E00E940F
:101DB0002B010E948202882309F493CF8C3009F40E
:101DC000A9CF8F3009F08DCF6D8A7E8AB12E0C9409
:101DD000F2040E948202892BE1F79FE7A8E3B1E0B9
:101DE0009150A040B040E1F700C000000F2EFCE38E
:101DF000CF2ED12CE12CF12CF02D66E080E00E945A
:101E0000D5006091C3037091C4038091C503909184
:101E1000C603A70196010E941B13CA01B90142E043
:101E200050E00E942B0169E080E00E94D5006091A3
:101E3000C3037091C4038091C5039091C603A701A9
:101E400096010E941B1342E050E00E942B010E9469
:101E500082028C3019F4C098F894FFCFEFE0F7E2DB
:101E60003197F1F700C00000C8CFF6E0CD84DE84E2
:101E7000EF84F888FD8B1E8908C01E8906C01E8964
:101E800004C01E8902C01E8900C00E94880060E054
:101E900080E00E94D50087EE92E00E941B0160E086
:101EA00081E00E94D5008CEF92E00E941B0160E06F
:101EB00082E00E94D50082E193E00E941B0160E075
:101EC00083E00E94D50084E293E00E941B010E94FF
:101ED0008202892BE1F7AD89BFE7E8E3F1E0B15079
:101EE000E040F040E1F700C00000AD8B0E948202AC
:101EF000882359F08D3081F08E3011F40C949306C4
:101F00008B50823010F40C94ED048FE097E201972F
:101F1000F1F700C00000EACF0E9488008CE00E9428
:101F20005E0060E080E00E94D50080EA91E00E94BF
:101F30001B0160E081E00E94D50089E393E00E94EC
:101F40001B0160E082E00E94D50083E493E00E94E0
:101F50001B0160E083E00E94D50081E593E00E94D0
:101F60001B010E948202892BE1F7BD89EFE7F8E3AC
:101F700021E0E150F0402040E1F700C00000BD8BBF
:101F80000E948202882349F08C3071F08E3011F467
:101F90000C9496068F3009F478CF8FE097E2019782
:101FA000F1F700C00000ECCF1E8BAD85A093BB0302
:101FB000BE85B093BC03EF85E093BD03F889F09331
:101FC000BE03A093B703B093B803E093B903F093B3
:101FD000BA03C29A60E081E00E94D5008BE593E0ED
:101FE0000E941B0160E082E00E94D5008AE693E037
:101FF0000E941B0160E083E00E94D5008AE793E025
:102000000E941B011E890E948202892BE1F73D89F3
:102010001E8B4FE758E381E0415050408040E1F78C
:1020200000C000003D8B1E890E9482028C30F1F4BA
:102030001E8BC298AFE7BAE1E6E0A150B040E040A5
:10204000E1F700C000008091BB039091BC03A09118
:10205000BD03B091BE038093B7039093B803A093E0
:10206000B903B093BA0319E00C9498066EE081E0CE
:102070000E94D5006091BB037091BC038091BD03A9
:102080009091BE0346E00E94B701CECF0E9482022B
:10209000892BE1F71E8BFFE728E331E0F150204068
:1020A0003040E1F700C00000C19A1E894091BF0393
:1020B0005091C0036091C1037091C2038091C3032A
:1020C0009091C403A091C503B091C6034817590766
:1020D0006A077B0709F16EE081E00E94D5006091FC
:1020E00090037091910380919203909193030E94C9
:1020F0008C1144E00E94B7018091C3039091C40306
:10210000A091C503B091C6038093BF039093C00311
:10211000A093C103B093C2030E9482028C3031F6B7
:102120001E8BC1984FE75AE186E0415050408040F5
:10213000E1F700C0000096E09D8B1BE0CD84DE84BB
:10214000EF84F8880C949806AD89AA3008F4F6CA92
:10215000FDCA13E007C0C986DA86EB86FC867301E8
:10216000620115E026013701E6E0CB2CD32CE02EEE
:10217000F22CED8BEBCA5058BB27AA270ED075C1A5
:1021800066D130F06BD120F031F49F3F11F41EF492
:102190005BC10EF4E095E7FB51C1E92F77D180F3E5
:1021A000BA17620773078407950718F071F49EF554
:1021B0008FC10EF4E0950B2EBA2FA02D0B01B901A3
:1021C00090010C01CA01A0011124FF27591B99F0AD
:1021D000593F50F4503E68F11A16F040A22F232FB9
:1021E000342F4427585FF3CF469537952795A79509
:1021F000F0405395C9F77EF41F16BA0B620B730BB0
:10220000840BBAF09150A1F0FF0FBB1F661F771F20
:10221000881FC2F70EC0BA0F621F731F841F48F4D5
:10222000879577956795B795F7959E3F08F0B3CF5B
:102230009395880F08F09927EE0F97958795089545
:10224000D9D008F481E008950CD00FC107D140F037
:10225000FED030F021F45F3F19F0F0C0511139C1C8
:10226000F3C014D198F39923C9F35523B1F3951B07
:10227000550BBB27AA2762177307840738F09F5FA7
:102280005F4F220F331F441FAA1FA9F333D00E2E16
:102290003AF0E0E830D091505040E695001CCAF783
:1022A00029D0FE2F27D0660F771F881FBB1F261748
:1022B00037074807AB07B0E809F0BB0B802DBF011B
:1022C000FF2793585F4F2AF09E3F510568F0B6C034
:1022D00000C15F3FECF3983EDCF3869577956795F8
:1022E000B795F7959F5FC9F7880F911D96958795CC
:1022F00097F90895E1E0660F771F881FBB1F6217EB
:1023000073078407BA0720F0621B730B840BBA0BA8
:10231000EE1F88F7E095089504D06894B111D9C0F4
:102320000895BCD088F09F5790F0B92F9927B751E6
:10233000A0F0D1F0660F771F881F991F1AF0BA9589
:10234000C9F712C0B13081F0C3D0B1E00895C0C068
:10235000672F782F8827B85F39F0B93FCCF386957F
:1023600077956795B395D9F73EF4909580957095DC
:1023700061957F4F8F4F9F4F0895E89409C097FB59
:102380003EF490958095709561957F4F8F4F9F4F4C
:102390009923A9F0F92F96E9BB279395F695879590
:1023A00077956795B795F111F8CFFAF4BB0F11F453
:1023B00060FF1BC06F5F7F4F8F4F9F4F16C08823FA
:1023C00011F096E911C0772321F09EE8872F762F30
:1023D00005C0662371F096E8862F70E060E02AF071
:1023E0009A95660F771F881FDAF7880F969587955D
:1023F00097F90895990F0008550FAA0BE0E8FEEF32
:1024000016161706E807F907C0F012161306E407B8
:10241000F50798F0621B730B840B950B39F40A26B1
:1024200061F0232B242B252B21F408950A2609F48F
:10243000A140A6958FEF811D811D089597F99F6793
:1024400080E870E060E008959FEF80EC089500243C
:102450000A941616170618060906089500240A9409
:1024600012161306140605060895092E0394000C8F
:1024700011F4882352F0BB0F40F4BF2B11F460FF1E
:1024800004C06F5F7F4F8F4F9F4F089557FD905847
:10249000440F551F59F05F3F71F04795880F97FB28
:1024A000991F61F09F3F79F08795089512161306E2
:1024B0001406551FF2CF4695F1DF08C01616170611
:1024C0001806991FF1CF8695710561050894089546
:1024D000E894BB2766277727CB0197F908950BD09F
:1024E000C4CFB5DF28F0BADF18F0952309F0A6CFE6
:1024F000ABCF1124EECFCADFA0F3959FD1F3950F98
:1025000050E0551F629FF001729FBB27F00DB11D77
:10251000639FAA27F00DB11DAA1F649F6627B00D07
:10252000A11D661F829F2227B00DA11D621F739FF0
:10253000B00DA11D621F839FA00D611D221F749FFE
:102540003327A00D611D231F849F600D211D822F45
:10255000762F6A2F11249F5750408AF0E1F088238C
:102560004AF0EE0FFF1FBB1F661F771F881F915099
:102570005040A9F79E3F510570F060CFAACF5F3F52
:10258000ECF3983EDCF3869577956795B795F795CC
:10259000E7959F5FC1F7FE2B880F911D9695879554
:1025A00097F908957BDFE0F09E37D8F09639B8F4BC
:1025B0009E3848F4672F782F8827985FF9CF869543
:1025C0007795679593959539D0F3B62FB1706B0FCA
:1025D000711D811D20F4879577956795939502C0AD
:1025E0001CC077CF882371F4772321F09850872B74
:1025F000762F07C0662311F499270DC09051862BC2
:1026000070E060E02AF09A95660F771F881FDAF76E
:10261000880F9695879597F908959F3F31F09150CF
:1026200020F4879577956795B795880F911D9695B6
:10263000879597F90895A1E21A2EAA1BBB1BFD01ED
:102640000DC0AA1FBB1FEE1FFF1FA217B307E40791
:10265000F50720F0A21BB30BE40BF50B661F771FE9
:10266000881F991F1A9469F76095709580959095C9
:102670009B01AC01BD01CF010895052E97FB1EF40F
:1026800000940E94541357FD07D00E941B1307FCAF
:1026900003D04EF40C9454135095409530952195E9
:1026A0003F4F4F4F5F4F089590958095709561957E
:1026B0007F4F8F4F9F4F08950E946713A59F900DE6
:1026C000B49F900DA49F800D911D11240895A29F89
:1026D000B001B39FC001A39F700D811D1124911DF6
:1026E000B29F700D811D1124911D0895DC01FC0124
:1026F000672F71917723E1F7329704C07C916D9336
:1027000070836291AE17BF07C8F30895A6E1B0E0E9
:1027100044E050E00C949A130396272F0E94A913CB
:102720000E94A813252F0E94A913242F0C94A913EB
:10273000DC01CB01FC01E199FECF06C0FFBBEEBB83
:10274000E09A31960DB20D9241505040B8F708957D
:10275000262FE199FECF9FBB8EBBE09A01970DB269
:10276000021631F02DBB0FB6F894E29AE19A0FBE33
:062770000895F894FFCF6C
:1027760041535445580054454D50455241545552C5
:10278600453A20202020DF43002A3E20534554545A
:10279600494E475300233E2053544152542054413E
:1027A600534B0054434E43212100433E2043484FA0
:1027B6004F534520494E50555400233E204D414E1F
:1027C60055414C20494E505554002A3E2042414323
:1027D6004B00413A37304C69742E5F3235DF435F28
:1027E600326D696E00423A37304C69742E5F35306F
:1027F600DF435F326D696E00433A35304C69742EA3
:102806005F3530DF435F326D696E00443A36304CD7
:1028160069742E5F3530DF435F326D696E00574154
:102826005445523A202020204C6974657200544564
:102836004D502E3A20202020DF430054494D45209C
:102846003A202020206D696E757465002A3E42414B
:10285600434B20443E44454C2E20233E4E4558547F
:10286600005F5F54656D702E2043616C6962726112
:1028760074696F6E5F00436F6E766572746564206F
:1028860076616C75653A004552564C203A202020F8
:1028960020DF432F535452542E50002A3E424143C8
:1028A6004B20443E44454C2E20233E534156450082
:1028B6005F5F57617465722043616C69627261740F
:1028C600696F6E5F0050756C736520436F756E742B
:1028D60065643A004552564C203A202020204C6927
:1028E600746572004552564C203A20202020DF4362
:1028F6002F454E442E5000506C6561736520676904
:102906007665207468652070617373006B65792045
:10291600203A002A3E4241434B2020443E44454C47
:102926002E2020233E4F4B00456E7465722074683E
:1029360065206E657720706173732D2000436F7577
:102946006E7465642056616C75653A20202020DF20
:102956004300233E2053746F7020537465616D00ED
:1029660057726F6E6720706173736B6579212121D1
:10297600002A3E57524F4E4720202020233E434FE9
:102986005252454354005741544552FF303030307F
:102996002F202020204C495445520054454D5020AC
:1029A600FF2E2E2E2E2F20202020DF430054494DAF
:1029B6004520FF30303A30302F2020204D696E2ED2
:1029C60000433E43414E43454C20202020202023F7
:1029D6003E534B49500054696D653A2020203A0019
:1029E600414C41524D494E472100233E20414C4126
:1029F600524D204F4646005F5F5F5F5F5F53455411
:102A060054494E47535F5F5F5F5F5F00413E20530F
:102A1600797374656D2043616C6962726174696F64
:102A26006E00423E204368616E6765207061737375
:102A36006B6579002A3E4241434B2020202020200E
:102A46002020233E4E45585400423E204279706174
:102A5600737300233E204C6F616420576174657266
:102A660000433E2043414E43454C00436F756E7410
:102A760065642050756C73653A00233E2053746F6D
:102A860070204C6F6164696E670020202020202032
:042A960020202000DC
:00000001FF
