S0130000574D5F6669726D776172652E73726563B1
S11300000C942F000C9441000C9441000C9441007A
S11300100C9441000C9441000C9441000C94410058
S11300200C9441000C9441000C9441000C94410048
S11300300C9441000C9441000C9441000C94410038
S11300400C9441000C9441000C9441000C94410028
S11300500C9441003F065B4F666D7D277F6F112432
S11300601FBECFE5D8E0DEBFCDBF20E0A0E6B0E004
S113007001C01D92A936B207E1F70E9469010C94F0
S113008022030C94000098E220E030E0806487B9F9
S11300904DE04A95F1F70000369A349BFECF349A2E
S11300A044B155B1240F351F915089F7ADECBCEC28
S11300B00E94130396958795929582958F70892750
S11300C09F708927BC0180E090E00E94850208951A
S11300D04F925F926F927F928F929F92AF92BF9254
S11300E0CF92DF92EF92FF920F931F93CF93DF9300
S11300F05C01862E922E4D5F81E090E02C0102C0BF
S1130100440C551C4A95E2F7C12CD12C7601689415
S1130110772474F8C0E0D0E0015011098BB38F70DC
S1130120672C682A9501ADECBCEC0E9413039695EC
S113013087959695879596958795AC01440F551F9D
S1130140880F991F880F991F880F991F840F951F77
S1130150F501E81BF90BEC5AFF4FE491E0950C17FD
S11301601D0709F4EF776BBAE5BB882069F0872D8A
S113017090E084219521892B69F488EC8A95F1F724
S11301808BB38F708BBB06C0A114B10419F48BB36D
S11301908F718BBB770C9501ADECBCEC0E94130303
S11301A05C01B694A794B694A794B694A7949920A6
S11301B009F459C0C330D10509F049C020E030E04A
S11301C040E450E4C701B6010E94F1010E945902C3
S11301D070936500609364004091660050916700DD
S11301E0FA0134976E177F0728F04C5F5F4F46176C
S11301F0570728F4709367006093660021C040910C
S11302006200509163006417750791F420916000B7
S1130210309161002F5F3F4F309361002093600065
S11302202E31310568F0709367006093660008C052
S113023070936300609362001092610010926000FA
S113024083E991E10197F1F700C0000017C080E055
S11302500E9443009B01AC01C701B6010E948D01BD
S11302606B017C0106C08BE592E10197F1F700C0B8
S113027000002196C430D10509F050CF809904C004
S113028081E08093680014C0819904C082E0809367
S113029068000EC0819904C083E08093680008C0A0
S11302A0819904C084E08093680002C010926800C1
S11302B0DF91CF911F910F91FF90EF90DF90CF903E
S11302C0BF90AF909F908F907F906F905F904F9072
S11302D0089580EF8ABB8FE087BB8FEF84BB8FE3E9
S11302E081BB85E886B9C0E0D0E0E12CF12C02C0E6
S11302F0CE2DDF2DC09A04E010E021E042E060E062
S113030080916600909167000E946800C0982196D1
S1130310CA30D10579F7ECCF5058BB27AA270ED0A5
S113032048C139D130F03ED120F031F49F3F11F46F
S11303301EF42EC10EF4E095E7FB24C1E92F4AD147
S113034080F3BA17620773078407950718F071F4EE
S11303509EF562C10EF4E0950B2EBA2FA02D0B0171
S1130360B90190010C01CA01A0011124FF27591BF6
S113037099F0593F50F4503E68F11A16F040A22FFC
S1130380232F342F4427585FF3CF4695379527956D
S1130390A795F0405395C9F77EF41F16BA0B620B6C
S11303A0730B840BBAF09150A1F0FF0FBB1F661FB3
S11303B0771F881FC2F70EC0BA0F621F731F841FF6
S11303C048F4879577956795B795F7959E3F08F01C
S11303D0B3CF9395880F08F09927EE0F97958795DB
S11303E008950CD0E6C0DED040F0D5D030F021F432
S11303F05F3F19F0C7C0511110C1CAC0EBD098F3C8
S11304009923C9F35523B1F3951B550BBB27AA2791
S113041062177307840738F09F5F5F4F220F331F03
S1130420441FAA1FA9F333D00E2E3AF0E0E830D0CF
S113043091505040E695001CCAF729D0FE2F27D0D2
S1130440660F771F881FBB1F261737074807AB07A0
S1130450B0E809F0BB0B802DBF01FF2793585F4F15
S11304602AF09E3F510568F08DC0D7C05F3FECF382
S1130470983EDCF3869577956795B795F7959F5FDA
S1130480C9F7880F911D9695879597F90895E1E02E
S1130490660F771F881FBB1F621773078407BA078D
S11304A020F0621B730B840BBA0BEE1F88F7E095E8
S11304B0089598D088F09F5790F0B92F9927B75195
S11304C0A0F0D1F0660F771F881F991F1AF0BA9514
S11304D0C9F712C0B13081F09FD0B1E008959CC03B
S11304E0672F782F8827B85F39F0B93FCCF386950A
S11304F077956795B395D9F73EF490958095709567
S113050061957F4F8F4F9F4F0895E89409C097FBE3
S11305103EF490958095709561957F4F8F4F9F4FD6
S11305209923A9F0F92F96E9BB279395F69587951A
S113053077956795B795F111F8CFFAF4BB0F11F4DD
S113054060FF1BC06F5F7F4F8F4F9F4F16C0882384
S113055011F096E911C0772321F09EE8872F762FBA
S113056005C0662371F096E8862F70E060E02AF0FB
S11305709A95660F771F881FDAF7880F96958795E7
S113058097F9089597F99F6780E870E060E008950F
S11305909FEF80EC089500240A9416161706180697
S11305A00906089500240A94121613061406050673
S11305B00895092E0394000C11F4882352F0BB0F04
S11305C040F4BF2B11F460FF04C06F5F7F4F8F4F67
S11305D09F4F089557FD9058440F551F59F05F3FA2
S11305E071F04795880F97FB991F61F09F3F79F051
S11305F087950895121613061406551FF2CF4695D3
S1130600F1DF08C0161617061806991FF1CF869554
S11306107105610508940895E894BB276627772738
S1130620CB0197F90895A29FB001B39FC001A39F86
S1130630700D811D1124911DB29F700D811D112417
S10B0640911D0895F894FFCF09
S9030000FC
