:100000000C942A000C943F000C943F000C943F0089
:100010000C943F000C943F000C943F000C943F0064
:100020000C943F000C943F000C943F000C943F0054
:100030000C943F000C943F000C943F000C943F0044
:100040000C943F000C943F000C943F000C943F0034
:100050000C943F0011241FBECFE5D8E0DEBFCDBF1A
:1000600010E0A0E6B0E0E4E2F9E002C005900D92F5
:10007000A038B107D9F70E94BE000C9490040C94EC
:100080000000DC01CB01880F991FAA1FBB1F880F3E
:10009000991FAA1FBB1F9C01AD01220F331F441FD4
:1000A000551F220F331F441F551F60E079E08DE379
:1000B00090E00E949D01CA01B90161507109810956
:1000C00091090E94FD000E943A01272F332720BD8D
:1000D00069B988E18AB986E880BD08955D9BFECF45
:1000E0008CB90895CF93DF93EC018881882331F098
:1000F00021960E946E0089918111FBCFDF91CF91F3
:10010000089587B3806A87BB86E58DB908958FB956
:10011000779BFECF8FB10895BC9AC49A0E9481004C
:100120000895CF93DF93C4982DE02A95F1F700004E
:1001300080E00E948700C82FD0E0DC2FCC2780E031
:100140000E948700C49A9E01280F311DC901DF91CA
:10015000CF9108950E94910082FD0DC0887F9F7706
:100160009595879595958795959587959595879577
:1001700095958795089580ED97E00895CF93DF9347
:10018000CDB7DEB764970FB6F894DEBF0FBECDBF14
:1001900087B3876087BB0E948C0060E875E280E0CF
:1001A00090E00E9441000F2EF5E7EF2EF0E0FF2EC9
:1001B000F02D8E010F5F1F4FB09BFECF0E94AA0053
:1001C000803D27E0920729F480E690E00E947200CB
:1001D00011C09F938F93FF92EF921F930F930E94F2
:1001E000BF01C8010E9472000F900F900F900F90F6
:1001F0000F900F90B099FECFDFCFE89409C097FB26
:100200003EF490958095709561957F4F8F4F9F4FED
:100210009923A9F0F92F96E9BB279395F695879531
:1002200077956795B795F111F8CFFAF4BB0F11F4F4
:1002300060FF1BC06F5F7F4F8F4F9F4F16C088239B
:1002400011F096E911C0772321F09EE8872F762FD1
:1002500005C0662371F096E8862F70E060E02AF012
:100260009A95660F771F881FDAF7880F96958795FE
:1002700097F9089541D0A8F19E57A8F1985160F0E0
:1002800039F1983070F5092E9927660F771F881F6E
:10029000991F0A94D1F71CC0BB27993F4CF4B111A8
:1002A000B1E0B62B672F782F8827985FB1F708C089
:1002B000869577956795B79508F4B1609395C1F7E2
:1002C000BB0F30F411F460FF03C06F5F7F4F8F4F9F
:1002D0003EF490958095709561957F4F8F4F9F4F1D
:1002E0000895689424C022C057FD9058440F551FAC
:1002F00059F05F3F71F04795880F97FB991F61F0A8
:100300009F3F79F087950895121613061406551F1E
:10031000F2CF4695F1DF08C0161617061806991F8A
:10032000F1CF86957105610508940895E894BB277F
:1003300066277727CB0197F90895A1E21A2EAA1B09
:10034000BB1BFD010DC0AA1FBB1FEE1FFF1FA21785
:10035000B307E407F50720F0A21BB30BE40BF50B82
:10036000661F771F881F991F1A9469F7609570950B
:10037000809590959B01AC01BD01CF010895AEE041
:10038000B0E0E5ECF1E00C9467040D891E8986E08D
:100390008C831A8309838FEF9FE79E838D83AE0141
:1003A000475E5F4F6F89788DCE0101960E94E10113
:1003B000EF81F885E00FF11F10822E96E4E00C9497
:1003C0008304ACE0B0E0E7EEF1E00C9459047C016A
:1003D0006B018A01FC0117821682838181FFBDC1F6
:1003E000CE0101964C01F7019381F60193FD8591B1
:1003F00093FF81916F01882309F4ABC1853239F4F1
:1004000093FD859193FF81916F01853229F4B701A6
:1004100090E00E94C903E7CF512C312C20E020321C
:10042000A0F48B3269F030F4803259F0833269F4F1
:1004300020612CC08D3239F0803339F4216026C020
:100440002260246023C0286021C027FD27C030ED32
:10045000380F3A3078F426FF06C0FAE05F9E300D80
:100460001124532E13C08AE0389E300D1124332EF0
:1004700020620CC08E3221F426FD6BC1206406C0C0
:100480008C3611F4206802C0883641F4F60193FDE1
:10049000859193FF81916F018111C1CF982F9F7D2D
:1004A0009554933028F40C5F1F4FFFE3F9830DC080
:1004B000833631F0833771F0833509F05BC022C099
:1004C000F801808189830E5F1F4F44244394512C8F
:1004D000540115C03801F2E06F0E711CF801A080C4
:1004E000B18026FF03C0652D70E002C06FEF7FEF83
:1004F000C5012C870E94BE032C0183012C852F7718
:10050000222E17C03801F2E06F0E711CF801A08096
:10051000B18026FF03C0652D70E002C06FEF7FEF52
:10052000C5012C870E94B3032C012C852068222E44
:10053000830123FC1BC0832D90E048165906B0F4BC
:10054000B70180E290E00E94C9033A94F4CFF5012C
:1005500027FC859127FE81915F01B70190E00E9401
:10056000C90331103A94F1E04F1A51084114510473
:1005700071F7E5C0843611F0893639F5F80127FFA7
:1005800007C060817181828193810C5F1F4F08C019
:1005900060817181882777FD8095982F0E5F1F4FAE
:1005A0002F76B22E97FF09C0909580957095619532
:1005B0007F4F8F4F9F4F2068B22E2AE030E0A4017A
:1005C0000E94FB03A82EA81844C0853729F42F7E6B
:1005D000B22E2AE030E025C0F22FF97FBF2E8F36F1
:1005E000C1F018F4883579F0B4C0803719F0883735
:1005F00021F0AFC02F2F2061B22EB4FE0DC08B2D85
:100600008460B82E09C024FF0AC09F2F9660B92EBF
:1006100006C028E030E005C020E130E002C020E163
:1006200032E0F801B7FE07C0608171818281938159
:100630000C5F1F4F06C06081718180E090E00E5F0B
:100640001F4FA4010E94FB03A82EA818FB2DFF77C3
:10065000BF2EB6FE0BC02B2D2E7FA51450F4B4FE7A
:100660000AC0B2FC08C02B2D2E7E05C07A2C2B2D83
:1006700003C07A2C01C0752C24FF0DC0FE01EA0DC9
:10068000F11D8081803311F4297E09C022FF06C04C
:100690007394739404C0822F867809F0739423FDB9
:1006A00013C020FF06C05A2C731418F4530C5718AB
:1006B000732C731468F4B70180E290E02C870E94D9
:1006C000C90373942C85F5CF731410F4371801C047
:1006D000312C24FF12C0B70180E390E02C870E94E8
:1006E000C9032C8522FF17C021FF03C088E590E0D5
:1006F00002C088E790E0B7010CC0822F867859F0DD
:1007000021FD02C080E201C08BE227FD8DE2B7012E
:1007100090E00E94C903A51438F4B70180E390E08B
:100720000E94C9035A94F7CFAA94F401EA0DF11D6F
:100730008081B70190E00E94C903A110F5CF33205A
:1007400009F451CEB70180E290E00E94C9033A94C7
:10075000F6CFF7018681978102C08FEF9FEF2C962D
:10076000E2E10C947504FC010590615070400110A9
:10077000D8F7809590958E0F9F1F0895FC016150CA
:10078000704001900110D8F7809590958E0F9F1FB3
:1007900008950F931F93CF93DF93182F092FEB0129
:1007A0008B8181FD03C08FEF9FEF20C082FF10C0BF
:1007B0004E815F812C813D81421753077CF4E88193
:1007C000F9819F012F5F3F4F39832883108306C033
:1007D000E885F985812F0995892B29F72E813F819D
:1007E0002F5F3F4F3F832E83812F902FDF91CF913B
:1007F0001F910F910895FA01AA27283051F1203155
:1008000081F1E8946F936E7F6E5F7F4F8F4F9F4FA4
:10081000AF4FB1E03ED0B4E03CD0670F781F891FE6
:100820009A1FA11D680F791F8A1F911DA11D6A0FB4
:10083000711D811D911DA11D20D009F468943F9167
:100840002AE0269F11243019305D3193DEF6CF0166
:100850000895462F4770405D4193B3E00FD0C9F72C
:10086000F6CF462F4F70405D4A3318F0495D31FD99
:100870004052419302D0A9F7EACFB4E0A6959795EC
:10088000879577956795BA95C9F7009761057105C2
:1008900008959B01AC010A2E06945795479537950C
:1008A0002795BA95C9F7620F731F841F951FA01D66
:1008B00008952F923F924F925F926F927F928F9204
:1008C0009F92AF92BF92CF92DF92EF92FF920F93DF
:1008D0001F93CF93DF93CDB7DEB7CA1BDB0B0FB6E9
:1008E000F894DEBF0FBECDBF09942A8839884888A6
:1008F0005F846E847D848C849B84AA84B984C8843C
:10090000DF80EE80FD800C811B81AA81B981CE0F32
:10091000D11D0FB6F894DEBF0FBECDBFED01089517
:04092000F894FFCF79
:1009240053656E736F7220646973636F6E6E656373
:100934007465640D0054656D703A2025640D0000E3
:00000001FF
