:100000000C942A000C94F7020C9447000C944700BF
:100010000C9447000C9447000C9447000C94740314
:100020000C9447000C9447000C9447000C94470034
:100030000C9447000C9447000C9447000C94470024
:100040000C9447000C9447000C9447000C94470014
:100050000C94470011241FBECFE5D8E0DEBFCDBF12
:1000600012E0A0E6B0E0EAEEFBE102C005900D92DE
:10007000AA3EB107D9F723E0AAEEB2E001C01D9273
:10008000AE32B207E1F70E94D9030C94F30D0C9441
:10009000000080FF02C0AC9A01C0AC9881FF02C092
:1000A000AD9A01C0AD9882FF02C0AE9A01C0AE9871
:1000B00083FF02C0AF9A0895AF980895CF93C82FD9
:1000C000A998AB9882958F700E944900AB9A87EEF1
:1000D00093E00197F1F700C00000AB9887EE93E042
:1000E0000197F1F700C000008C2F8F700E9449002B
:1000F000AB9A87EE93E00197F1F700C00000AB9850
:1001000087EE93E00197F1F700C00000CF910895CA
:1001100081E00E945E00089580E00E9449008FE126
:100120009EE40197F1F700C0000083E30E945E00A7
:1001300087E893E10197F1F700C0000082E30E9495
:100140005E0087E893E10197F1F700C0000088E2C4
:100150000E945E0087E893E10197F1F700C000007C
:1001600088E20E945E0087E893E10197F1F700C002
:10017000000086E00E945E0087E893E10197F1F7B6
:1001800000C000008CE00E945E0087E893E10197C8
:10019000F1F700C0000081E00E945E0087E893E173
:1001A0000197F1F700C000000895811105C080E8B3
:1001B000860F0E945E000895813029F480EC860F3E
:1001C0000E945E000895823029F484E9860F0E941F
:1001D0005E000895833021F484ED860F0E945E0056
:1001E0000895CF93C82FA99AAB9882958F700E94DB
:1001F0004900AB9A87EE93E00197F1F700C0000049
:10020000AB9887EE93E00197F1F700C000008C2FC8
:100210008F700E944900AB9A87EE93E00197F1F747
:1002200000C00000AB9887EE93E00197F1F700C0A3
:100230000000CF910895CF93DF93EC012196FC014C
:100240008081882329F00E94F10089918111FBCFE0
:10025000DF91CF9108954F925F926F927F928F922C
:100260009F92AF92BF92EF92FF920F931F93CF9303
:10027000DF93CDB7DEB72A970FB6F894DEBF0FBE77
:10028000CDBF4B015C017A010E949C0C9F770E94BC
:10029000690CFE0131962AE0DF011D922A95E9F7EB
:1002A0006115710581059105D1F08E01055F1F4F24
:1002B0000F2EFAE04F2E512C612C712CF02DA30142
:1002C00092010E946B0DF80162938F01622F732FD0
:1002D000842F952F611571058105910581F7FFEF39
:1002E000EF16FF0669F4898181110FC0FE01329675
:1002F00000E010E00F5F1F4F81918823D9F307C002
:100300000AE010E00E191F0902C000E010E0BB2057
:100310001CF48DE20E94F1000A3011059CF481E08A
:1003200090E08C0F9D1F080F191F7E019BE0E90EC6
:10033000F11CD8018D918D01805D0E94F1000E1598
:100340001F05B9F72A960FB6F894DEBF0FBECDBFD2
:10035000DF91CF911F910F91FF90EF90BF90AF90E1
:100360009F908F907F906F905F904F9008958F92A5
:100370009F92AF92BF92DF92EF92FF920F931F93E3
:10038000CF93DF93CDB7DEB72A970FB6F894DEBFD1
:100390000FBECDBF4B015C01D42E99231CF48DE21E
:1003A0000E94F100C501B4010E949C0C9F770E943D
:1003B000690C16161706180619060CF59E012F5F14
:1003C0003F4F790100E010E00F2EFAE08F2E912CC4
:1003D000A12CB12CF02D0F5F1F4FA50194010E949D
:1003E0006B0D605DF70161937F01622F732F842F86
:1003F000952F16161706180619066CF302C000E0B2
:1004000010E09E012F5F3F4F7901F901E00FF11FCE
:100410001082C9010E94A40DC7010E941B01F701AF
:1004200001900020E9F73197EE19FF09DE1A92F0EA
:10043000ED2CFF24E7FCF0941E141F047CF400E074
:1004400010E080E20E94F1000F5F1F4F0E151F05A4
:10045000C4F304C087E991E00E941B012A960FB6FD
:10046000F894DEBF0FBECDBFDF91CF911F910F91EA
:10047000FF90EF90DF90BF90AF909F908F90089586
:1004800087B3806A87BB86E58DB908958FB9779B5E
:10049000FECF8FB10895BC9AC49A0E94400208957D
:1004A000CF93DF93C4982DE02A95F1F7000080E008
:1004B0000E944602C82FD0E0DC2FCC2780E00E94AB
:1004C0004602C49A9E01280F311DC901DF91CF91C8
:1004D00008950E94500282FD0DC0887F9F779595F8
:1004E00087959595879595958795959587959595F4
:1004F0008795089580ED97E008958FEF8BBB80EF8F
:100500008ABB08958FEE8BBB87EE93E00197F1F7DE
:1005100000C00000C89B3BC0C99B3CC0CA9B3DC0FB
:10052000CB9B3EC08FED8BBB87EE93E00197F1F73D
:1005300000C00000C89B37C0C99B38C0CA9B39C0E7
:10054000CB9B3AC08FEB8BBB87EE93E00197F1F723
:1005500000C00000C89B33C0C99B34C0CA9B35C0D3
:10056000CB9B36C08FE78BBB87EE93E00197F1F70B
:1005700000C00000C89B2FC0C99B30C0CA9B31C0BF
:10058000CB9B32C08FEF8BBB80E090E0089581E081
:1005900090E0089584E090E0089587E090E0089569
:1005A0008BE090E0089582E090E0089585E090E08F
:1005B000089588E090E008958AE090E0089583E04F
:1005C00090E0089586E090E0089589E090E0089535
:1005D0008CE090E008958DE090E008958EE090E04A
:1005E00008958FE090E0089580E190E008951F92D3
:1005F0000F920FB60F9211248F939F93AF93BF93D7
:100600008091020390910303A0910403B09105032C
:100610000196A11DB11D8093020390930303A09343
:100620000403B0930503BF91AF919F918F910F90F9
:100630000FBE0F901F9018952091EF0221110EC050
:10064000E6E0F3E02EE233E081939193E217F307C3
:10065000D9F721E02093EF02282F44C04CE253E069
:10066000E6E0F3E02281338121933193E417F5072B
:10067000C9F790932D0380932C03209106033091AA
:1006800007038217930761F4E8E0F3E0A6E0B3E024
:100690008D919C91119781939193E417F507C1F780
:1006A0004EE253E0E6E0F3E020E030E0819191910A
:1006B000280F391FE417F507C9F7ADECBCEC0E9411
:1006C0008A0D929582958F7089279F708927BC012A
:1006D00080E090E00E949A0C0E94000D0E946E0C37
:1006E000262F972F822F08951F920F920FB60F92E9
:1006F00011242F933F934F935F936F937F938F9327
:100700009F93AF93BF93EF93FF93A8958091EE02D1
:100710008F5F8093EE020E9469020E941C03609129
:10072000EC027091ED02860F971F9093ED0280937B
:10073000EC022091EE02243058F14091FA025091DF
:10074000FB026091FC027091FD024F5F5F4F6F4FA3
:100750007F4F4093FA025093FB026093FC02709328
:10076000FD02BC01769567957695679580E090E0EF
:100770000E949A0C0E94000D0E946E0C7093EB0276
:100780006093EA021092ED021092EC021092EE02D7
:10079000FF91EF91BF91AF919F918F917F916F9159
:1007A0005F914F913F912F910F900FBE0F901F902F
:1007B0001895CF93DF93CDB7DEB765970FB6F89452
:1007C000DEBF0FBECDBF87B3876087BB8EEF84BB14
:1007D0000E944B020E948C000E947D021FBC8CE094
:1007E0008EBD8FE08BBD82E48ABD8BB780648BBFEA
:1007F00084B784BF85B7836085BF80E48ABF80E10A
:1008000089BF78942DE088E190E00FB6F894A89520
:1008100081BD0FBE21BD00E016E019861A861B8639
:100820001C8619821A821B821C82812C912C5401F5
:10083000C12CD12C7601312C212C25E02B8B08C02A
:1008400019821A821B821C82812C912CA12CB12C22
:1008500088B3887F88BB80E090E00E94BA0D9093B7
:10086000F5028093F40282E090E00E94B40D609360
:10087000F0027093F1028093F2029093F3020E94CF
:1008800088006FE080E00E94D50080E690E00E9442
:100890001B0160E081E00E94D50086E690E00E94A6
:1008A0001B0160E082E00E94D50089E790E00E9491
:1008B0001B0160E083E00E94D50085E890E00E9483
:1008C0001B010E948202892BE1F78FE798E3A1E0E8
:1008D00081509040A040E1F700C000004091F60236
:1008E0005091F7026091F8027091F9028091FA023A
:1008F0009091FB02A091FC02B091FD0248175907AC
:100900006A077B0781F16CE081E00E94D50060916D
:10091000EA027091EB02603DB7E07B0729F483E9BE
:1009200090E00E941B010FC08091F4029091F502AB
:10093000681B790B80E090E044E00E94B70186E0FC
:1009400092E00E941B018091FA029091FB02A0911B
:10095000FC02B091FD028093F6029093F702A093FF
:10096000F802B093F9020E948202882309F4B6CFFC
:100970008C3021F08B3009F0B1CFA2C60E948800E4
:100980006FE080E00E94D50080E690E00E941B01AD
:1009900060E081E00E94D5008AE990E00E941B019E
:1009A00060E082E00E94D5008AEA90E00E941B018C
:1009B00060E083E00E94D5008AEB90E00E941B017A
:1009C0000E948202892BE1F7EFE7F8E321E0E15092
:1009D000F0402040E1F700C000000E94820288231E
:1009E000E1F38B3009F42CCF8F3019F08C30A9F75C
:1009F00043C00E94880060E080E00E94D50082EC45
:100A000090E00E941B0160E081E00E94D50085ED2E
:100A100090E00E941B0160E082E00E94D50088EE19
:100A200090E00E941B0160E083E00E94D5008BEF04
:100A300090E00E941B010E948202892BE1F78FE760
:100A400098E3A1E081509040A040E1F700C0000091
:100A50000E9482028823E1F38D3009F4F4C28E30C3
:100A600009F403C38F3009F415C3803109F427C397
:100A70008B50823068F782CF0E94880060E080E06F
:100A80000E94D5008EE091E00E941B0160E081E0B1
:100A90000E94D5008EE191E00E941B0160E082E09F
:100AA0000E94D5008BE291E00E941B0160E083E090
:100AB0000E94D5008CE391E00E941B0166246394A0
:100AC00019821A821B821C82812C912CA12CB12CA0
:100AD000D2C66624639404C00F2EF3E06F2EF02D6F
:100AE0000E948202892BE1F7BFE7E8E3F1E0B15011
:100AF000E040F040E1F700C0000021E0621219C0C0
:100B000066E080E00E94D50084EE92E00E941B0126
:100B100066E080E00E94D5008DE00E945E0000E06B
:100B200016E06894662461F8C12CD32CE12CF22CD9
:100B3000F2C083E0681219C066E081E00E94D5002F
:100B400084EE92E00E941B0166E081E00E94D500E5
:100B50008DE00E945E0001E016E06894662462F871
:100B6000C12CD32CE12CF22CD6C095E069121AC00E
:100B700066E082E00E94D50084EE92E00E941B01B4
:100B800066E082E00E94D5008DE00E945E0002E0F7
:100B900016E00F2EF6E06F2EF02DC12CD32CE12C99
:100BA000F22CB9C0A7E06A122DC00E94880060E054
:100BB00080E00E94D50081E591E00E941B0160E089
:100BC00081E00E94D50086E691E00E941B0160E072
:100BD00082E00E94D50087E791E00E941B0160E05F
:100BE00083E00E94D50084E891E00E941B018DE023
:100BF0000E945E0002E016E0652CC12CD32CE12C93
:100C0000F22C89C0B8E06B1244C04091F6025091BA
:100C1000F7026091F8027091F9028091FA029091C6
:100C2000FB02A091FC02B091FD02481759076A0728
:100C30007B0709F470C08CE00E945E0060E181E0F7
:100C40000E94D5006091EA027091EB0280E090E092
:100C500044E00E94B7018091FA029091FB02A091BA
:100C6000FC02B091FD028093F6029093F702A093EC
:100C7000F802B093F902612F802F0E94D5001A303C
:100C800021F48CE00E945E0046C08DE00E945E0070
:100C900042C0E9E06E123FC00E94880060E080E040
:100CA0000E94D50089E991E00E941B0160E081E08B
:100CB0000E94D5008EEA91E00E941B016EE081E067
:100CC0000E94D5006091FE027091FF0280910003A6
:100CD0009091010346E00E94B70160E082E00E942B
:100CE000D5008DEB91E00E941B0160E083E00E9443
:100CF000D50084E891E00E941B0166E082E00E943A
:100D0000D5008DE00E945E0002E016E0672CC12C49
:100D1000D32CE12CF22C0E948202882309F4EDCE20
:100D20008B3049F48CE00E945E00862D8D7F8830E8
:100D300009F024CEC5C48031A1F51730D0F0115090
:100D4000612F802F0E94D50080E20E94F100612F68
:100D5000802F0E94D5008DE00E945E00C701B60181
:100D60002AE030E040E050E00E94490D69017A013C
:100D70009AC5F2E06F1204C08CE00E945E00FECDC6
:100D800024E0621609F4A5CE86E0681609F4A4CE24
:100D9000862D8D7F883009F086C58CE00E945E002C
:100DA0008FC48C3009F04FC092E0691609F47FC5FA
:100DB000A4E06A1609F482C5B6E06B120CC00E946A
:100DC0005E00CD82DE82EF82F88616E0C12CD12C47
:100DD000E12CF12C88C1E8E06E1213C06091EA02A8
:100DE0007091EB026C197D0980E090E00E94CC0DBF
:100DF0008CE00E945E0016E0C12CD12CE12CF12C7D
:100E000027CDFAE06F124FC52091FE023091FF020C
:100E10004091000350910103A4E6B0E00E94990DB7
:100E2000A70196010E94490DBA01A90182E090E054
:100E30000E94C00D8CE00E945E0016E0C12CD12CF7
:100E4000E12CF12C05CD1A3008F0EFC08930B1F457
:100E5000612F802F0E94D50089E30E94F1001F5F5F
:100E6000AAE0B0E0A70196010E94990D6B017C01F8
:100E700029E0C20ED11CE11CF11CD2C08A3089F4D9
:100E8000612F802F0E94D50080E30E94F1001F5F38
:100E9000AAE0B0E0A70196010E94990D6B017C01C8
:100EA000BFC08530B1F4612F802F0E94D50085E34B
:100EB0000E94F1001F5FAAE0B0E0A70196010E9426
:100EC000990D6B017C01A5E0CA0ED11CE11CF11C3F
:100ED000A7C08630B1F4612F802F0E94D50086E331
:100EE0000E94F1001F5FAAE0B0E0A70196010E94F6
:100EF000990D6B017C01B6E0CB0ED11CE11CF11CFD
:100F00008FC08730B1F4612F802F0E94D50087E316
:100F10000E94F1001F5FAAE0B0E0A70196010E94C5
:100F2000990D6B017C01E7E0CE0ED11CE11CF11C98
:100F300077C08830B1F4612F802F0E94D50088E3FC
:100F40000E94F1001F5FAAE0B0E0A70196010E9495
:100F5000990D6B017C01F8E0CF0ED11CE11CF11C56
:100F60005FC08130B1F4612F802F0E94D50081E3F2
:100F70000E94F1001F5FAAE0B0E0A70196010E9465
:100F8000990D6B017C012FEFC21AD20AE20AF20A14
:100F900047C08230B1F4612F802F0E94D50082E3D8
:100FA0000E94F1001F5FAAE0B0E0A70196010E9435
:100FB000990D6B017C01A2E0CA0ED11CE11CF11C51
:100FC0002FC08330B1F4612F802F0E94D50083E3BE
:100FD0000E94F1001F5FAAE0B0E0A70196010E9405
:100FE000990D6B017C01B3E0CB0ED11CE11CF11C0F
:100FF00017C08430A9F4612F802F0E94D50084E3AC
:101000000E94F1001F5FAAE0B0E0A70196010E94D4
:10101000990D6B017C01E4E0CE0ED11CE11CF11CAA
:101020001A3019F48CE00E945E000E948202892B23
:10103000E1F7FFE728E381E0F15020408040E1F74D
:1010400000C000005ACD92E09D831E821F82188648
:10105000A9E1A9831A821B821C820F2EF6E48F2E2F
:10106000912CA12CB12CF02D3EC0B2E0BD831E828C
:101070001F82188682E390E0A0E0B0E089839A8323
:10108000AB83BC830F2EF6E48F2E912CA12CB12CB8
:10109000F02D29C092E09D831E821F82188682E374
:1010A00090E0A0E0B0E089839A83AB83BC830F2EED
:1010B000F2E38F2E912CA12CB12CF02D14C092E0D4
:1010C0009D831E821F82188682E390E0A0E0B0E03C
:1010D00089839A83AB83BC830F2EFCE38F2EF02D84
:1010E000912CA12CB12C0E94880060E080E00E942D
:1010F000D5008EE091E00E941B0166E080E00E9436
:10110000D5008C8A9D8AAD86BE8644E0C501B401B7
:101110000E94B70160E081E00E94D5008EE191E07D
:101120000E941B0166E081E00E94D50099819F87A3
:10113000AA81A88BBB81B98BEC81EA8B44E06981E1
:101140007A818B819C810E94B70160E082E00E94DD
:10115000D5008BE291E00E941B0166E082E00E94D4
:10116000D5007D806E805F80488444E06D817E8103
:101170008F8198850E94B70160E083E00E94D500CE
:101180008DEC91E00E941B010E948202892BE1F705
:101190008C899D89AFE7B8E3E1E0A150B040E04021
:1011A000E1F700C000008C8B9D8B0E948202882397
:1011B000E1F38B3009F4E2CB8C30B9F70E94880060
:1011C00060E080E00E94D50082EE91E00E941B0169
:1011D0006BE080E00E94D50044E06C897D898D85BC
:1011E0009E850E94B70160E081E00E94D50087EFF4
:1011F00091E00E941B016BE081E00E94D50044E079
:101200006F85788989899A890E94B70160E082E0B8
:101210000E94D50089E092E00E941B016CE082E010
:101220000E94D50043E0672D762D852D942D0E94D8
:10123000B70160E083E00E94D5008DE192E00E945A
:101240001B018FE798E3A1E081509040A040E1F7B7
:1012500000C00000109202031092030310920403D6
:10126000109205031092FA021092FB021092FC02F7
:101270001092FD027C886D883DC08091FA029091A9
:10128000FB02A091FC02B091FD02892B8A2B8B2BD3
:1012900089F17C8A6D8AC29A65E080E00E94D5005F
:1012A0008EE70E94F100BFE7E8E3F1E0B150E040D3
:1012B000F040E1F700C000002091020330910303E9
:1012C0004091040350910503A4E6B0E00E94990DFB
:1012D0002091F0023091F1024091F2025091F3021C
:1012E0000E94490D29013A01281539054A055B0577
:1012F00030F052C00E948202892BE1F7BECF0E94DB
:101300008202882331F08C3009F446C08F3009F412
:101310009FCA66E080E00E94D50044E050E0C3012F
:10132000B2010E942B0166E081E00E94D50060912D
:10133000EA027091EB028091F4029091F502681B31
:10134000790B80E090E044E050E00E942B01AFE098
:10135000B7E21197F1F700C000002091020330912D
:1013600003034091040350910503A4E6B0E00E94FA
:10137000990D2091F0023091F1024091F2025091CA
:10138000F3020E94490D29013A01281539054A0541
:101390005B0508F4B4CF00C0C29865E080E00E940D
:1013A000D5008FEF0E94F10066E080E00E94D5003A
:1013B00044E050E06C897D898D859E850E942B01DB
:1013C0008FE798E3A1E081509040A040E1F700C092
:1013D00000001092FA021092FB021092FC0210928E
:1013E000FD0222C08091FA029091FB02A091FC02C2
:1013F000B091FD02892B8A2B8B2BB1F0C19A65E04D
:1014000081E00E94D5008EE70E94F100BFE7E8E38B
:10141000F1E0B150E040F040E1F700C00000498445
:101420005A846B847C8405C00E948202892BE1F778
:10143000D9CF4091F6025091F7026091F802709175
:10144000F9028091FA029091FB02A091FC02B09106
:10145000FD02481759076A077B0731F14090EA02FD
:101460005090EB028091F4029091F502481A590ACB
:10147000612C712C66E081E00E94D50044E050E0D0
:10148000C301B2010E942B018091FA029091FB02EC
:10149000A091FC02B091FD028093F6029093F702B6
:1014A000A093F802B093F90289819A81AB81BC8143
:1014B000481659066A067B0678F40E948202882341
:1014C00009F4B7CF8C3041F08F3009F0B2CF4986A4
:1014D0005A866B867C86BCC949865A866B867C8612
:1014E000C19865E081E00E94D5008FEF0E94F10075
:1014F00066E081E00E94D50044E050E06F85788985
:1015000089899A890E942B011092FA021092FB029B
:101510001092FC021092FD0265E082E00E94D5006C
:101520008EE70E94F1000E948202892BE1F79FE77B
:10153000A8E3B1E09150A040B040E1F700C0000046
:101540006091FA027091FB028091FC029091FD0281
:101550002CE330E040E050E00E94490D29013A01BF
:101560008D819E81AF81B885281739074A075B07AF
:1015700078F1C09A65E082E00E94D5008FEF0E946A
:10158000F1001092FA021092FB021092FC021092EB
:10159000FD020E94880082E392E00E941B016FE03E
:1015A00080E00E94D50080E690E00E941B0166E08A
:1015B00081E00E94D5008CE392E00E941B0160E074
:1015C00083E00E94D50086E492E00E941B012CC0BB
:1015D00066E082E00E94D50042E050E0C301B20123
:1015E0000E942B0169E082E00E94D5006091FA021E
:1015F0007091FB028091FC029091FD022CE330E09F
:1016000040E050E00E94490D42E050E00E942B0172
:101610000E948202882309F493CF8C3009F4A9CF69
:101620008F3009F08DCF14C90E948202892BE1F717
:101630009FE7A8E3B1E09150A040B040E1F700C0BF
:1016400000000F2EFCE3CF2ED12CE12CF12CF02D3D
:1016500066E080E00E94D5006091FA027091FB0282
:101660008091FC029091FD02A70196010E94490D14
:10167000CA01B90142E050E00E942B0169E080E01C
:101680000E94D5006091FA027091FB028091FC02E9
:101690009091FD02A70196010E94490D42E050E0A1
:1016A0000E942B010E9482028C3019F4C098F89499
:1016B000FFCFEFE0F7E23197F1F700C00000C8CFAD
:1016C0000F2EF7E07F2EF02D0E94880060E080E072
:1016D0000E94D50083E592E00E941B0160E081E05A
:1016E0000E94D50088E692E00E941B0160E082E043
:1016F0000E94D5008DE792E00E941B0160E083E02C
:101700000E94D50082E992E00E941B010E948202A1
:10171000892BE1F7FFE728E381E0F150204080408A
:10172000E1F700C000000E948202882349F08D305A
:1017300009F4A0C08E3059F08B50823008F488C86C
:10174000AFE0B7E21197F1F700C00000ECCF0E94C4
:1017500088008CE00E945E0060E080E00E94D5007E
:1017600089E991E00E941B0160E081E00E94D500C0
:1017700087EA92E00E941B0160E082E00E94D500AF
:1017800087EB92E00E941B0160E083E00E94D5009D
:1017900085EC92E00E941B010E948202892BE1F7F6
:1017A000BFE7E8E3F1E0B150E040F040E1F700C00E
:1017B00000000E948202882329F08C3051F08F3083
:1017C00009F482CF8FE097E20197F1F700C00000A3
:1017D000F0CF1092020310920303109204031092B0
:1017E00005031092FE021092FF0210920003109265
:1017F0000103C29A60E082E00E94D5008FEC92E083
:101800000E941B0160E083E00E94D5008FED92E012
:101810000E941B010E948202892BE1F79FE7A8E347
:10182000B1E09150A040B040E1F700C000000E943C
:1018300082028C3041F5C298EFE7FAE126E0E150F0
:10184000F0402040E1F700C0000080910203909139
:101850000303A0910403B09105038093FE029093CB
:10186000FF02A0930003B09301030F2EF9E06F2E47
:10187000F02D01C0672C0F2EFAE07F2EF02D68941A
:10188000552453F82DC96EE081E00E94D500609187
:10189000020370910303809104039091050346E0D5
:1018A0000E94B701C4CF1A3008F4BACBBECB4601B0
:1018B00057010F2EF3E06F2EF02D05C0C982DA829A
:1018C000EB82FC826B8816E0C12CD32CE12CF22C2D
:1018D000ACCB04D06894B1118DC0089570D088F05D
:1018E0009F5790F0B92F9927B751A0F0D1F0660F0C
:1018F000771F881F991F1AF0BA95C9F712C0B13027
:1019000081F077D0B1E0089574C0672F782F8827D1
:10191000B85F39F0B93FCCF3869577956795B39565
:10192000D9F73EF490958095709561957F4F8F4FD4
:101930009F4F0895E89409C097FB3EF490958095D9
:10194000709561957F4F8F4F9F4F9923A9F0F92F85
:1019500096E9BB279395F695879577956795B79503
:10196000F111F8CFFAF4BB0F11F460FF1BC06F5FE9
:101970007F4F8F4F9F4F16C0882311F096E911C0FB
:10198000772321F09EE8872F762F05C0662371F01C
:1019900096E8862F70E060E02AF09A95660F771F30
:1019A000881FDAF7880F9695879597F9089557FD60
:1019B0009058440F551F59F05F3F71F04795880FBD
:1019C00097FB991F61F09F3F79F087950895121654
:1019D00013061406551FF2CF4695F1DF08C0161600
:1019E00017061806991FF1CF8695710561050894B1
:1019F0000895E894BB2766277727CB0197F90895C8
:101A0000DEDFE0F09E37D8F09639B8F49E3848F41F
:101A1000672F782F8827985FF9CF869577956795F8
:101A200093959539D0F3B62FB1706B0F711D811D51
:101A300020F4879577956795939502C01CC0DACFFF
:101A4000882371F4772321F09850872B762F07C0D5
:101A5000662311F499270DC09051862B70E060E049
:101A60002AF09A95660F771F881FDAF7880F9695E8
:101A7000879597F908959F3F31F0915020F487950D
:101A800077956795B795880F911D9695879597F9E6
:101A90000895A1E21A2EAA1BBB1BFD010DC0AA1FAF
:101AA000BB1FEE1FFF1FA217B307E407F50720F0C7
:101AB000A21BB30BE40BF50B661F771F881F991F42
:101AC0001A9469F760957095809590959B01AC018B
:101AD000BD01CF010895052E97FB1EF400940E94CE
:101AE000820D57FD07D00E94490D07FC03D04EF42C
:101AF0000C94820D50954095309521953F4F4F4F56
:101B00005F4F089590958095709561957F4F8F4FA9
:101B10009F4F0895A29FB001B39FC001A39F700D76
:101B2000811D1124911DB29F700D811D1124911DE5
:101B300008950E948A0DA59F900DB49F900DA49FBB
:101B4000800D911D11240895DC01FC01672F719116
:101B50007723E1F7329704C07C916D937083629193
:101B6000AE17BF07C8F30895A6E1B0E044E050E027
:101B70000C94D40DA8E1B0E042E050E00C94D40DF8
:101B80000396272F0E94E30D0E94E20D252F0E944D
:101B9000E30D242F0C94E30D0196272F0E94E30DF3
:101BA0000C94E20DDC01CB01FC01E199FECF06C0F3
:101BB000FFBBEEBBE09A31960DB20D924150504002
:101BC000B8F70895262FE199FECF9FBB8EBBE09A10
:101BD00001970DB2021631F02DBB0FB6F894E29AC0
:0A1BE000E19A0FBE0895F894FFCFBC
:101BEA0041535445580054454D504552415455525D
:101BFA00453A20202020DF43002A3E2053455454F2
:101C0A00494E475300233E205354415254205441D5
:101C1A00534B0054434E43212100433E2043484F37
:101C2A004F534520494E50555400233E204D414EB6
:101C3A0055414C20494E505554002A3E20424143BA
:101C4A004B00413A37304C69742E5F3235DF435FBF
:101C5A00326D696E00423A37304C69742E5F353006
:101C6A00DF435F326D696E00433A35304C69742E3A
:101C7A005F3530DF435F326D696E00443A36304C6F
:101C8A0069742E5F3530DF435F326D696E005741EC
:101C9A005445523A202020204C69746572005445FC
:101CAA004D502E3A20202020DF430054494D452034
:101CBA003A202020206D696E757465002A3E4241E3
:101CCA00434B20443E44454C2E20233E4E45585417
:101CDA00005F5F54656D702E2043616C69627261AA
:101CEA0074696F6E5F00436F6E7665727465642007
:101CFA0076616C75653A004552564C203A20202090
:101D0A0020DF43002A3E4241434B20443E44454C97
:101D1A002E20233E53415645005F5F57617465721A
:101D2A002043616C6962726174696F6E5F005075FD
:101D3A006C736520436F756E7465643A004552563C
:101D4A004C203A202020204C69746572002A3E57A4
:101D5A00524F4E4720202020233E434F52524543A4
:101D6A0054005741544552FF303030302F20202044
:101D7A00204C495445520054454D5020FF2E2E2EDA
:101D8A002E2F20202020DF430054494D4520FF30CC
:101D9A00303A30302F2020204D696E2E00433E43CA
:101DAA00414E43454C202020202020233E534B49BE
:101DBA00500054696D653A2020203A00414C415246
:101DCA004D494E472100233E20414C41524D204F60
:101DDA004646005F5F5F5F5F5F53455454494E4715
:101DEA00535F5F5F5F5F5F00413E2054656D702EF9
:101DFA002043616C6962726174696F6E00423E20B1
:101E0A0057617465722043616C6962726174696FAB
:101E1A006E002A3E4241434B2020202020202020D1
:101E2A00233E4E45585400436F756E7465642050C6
:101E3A00756C73653A3000233E204C6F61642057FD
:101E4A006174657200433E2043414E43454C002372
:101E5A003E2053746F70204C6F6164696E67002076
:0A1E6A00202020202020202000006E
:00000001FF
