S01000006669726D776172652E73726563B7
S11300000C942A000C94AF020C9447000C94470003
S11300100C9447000C9447000C9447000C94510333
S11300200C9447000C9447000C9447000C94470030
S11300300C9447000C9447000C9447000C94470020
S11300400C9447000C9447000C9447000C94470010
S11300500C94470011241FBECFE5D8E0DEBFCDBF0E
S113006013E0A0E6B0E0E2E7FBE202C005900D92E7
S1130070AC3CB107D9F724E0ACECB3E001C01D926D
S1130080AC30B207E1F70E9457040C94B7150C94F6
S1130090000080FF02C0DC9A01C0DC9881FF02C02E
S11300A0DD9A01C0DD9882FF02C0DE9A01C0DE98AD
S11300B083FF02C0DF9A0895DF980895CF93C82F75
S11300C0D998DB9882958F700E944900DB9A87EE5D
S11300D093E00197F1F700C00000DB9887EE93E00E
S11300E00197F1F700C000008C2F8F700E94490027
S11300F0DB9A87EE93E00197F1F700C00000DB98EC
S11301008FEC97E00197F1F700C00000CF910895BC
S113011080E00E9449008FE496E40197F1F700C063
S1130120000083E30E945E0082E30E945E0088E296
S11301300E945E0088E20E945E0086E00E945E00EB
S11301408CE00E945E0081E00E945E0008958111AF
S113015005C080E8860F0E945E000895813029F46E
S113016080EC860F0E945E000895823029F484E9B1
S1130170860F0E945E000895833021F484ED860F7B
S11301800E945E000895CF93C82FD99ADB98829578
S11301908F700E944900DB9A85E88A95F1F7000088
S11301A0DB9885E88A95F1F700008C2F8F700E9408
S11301B04900DB9A85E88A95F1F70000DB9885E829
S11301C08A95F1F70000CF910895CF93DF93EC0166
S11301D02196FC018081882329F00E94C300899123
S11301E08111FBCFDF91CF9108954F925F926F926F
S11301F07F928F929F92AF92BF92EF92FF920F9352
S11302001F93CF93DF93CDB7DEB72A970FB6F89439
S1130210DEBF0FBECDBF4B015C017A010E94951376
S11302209F770E946213FE0131962AE0DF011D923E
S11302302A95E9F76115710581059105D1F08E01C3
S1130240055F1F4F0F2EFAE04F2E512C612C712C9D
S1130250F02DA30192010E942715F80162938F01EA
S1130260622F732F842F952F6115710581059105D8
S113027081F7FFEFEF16FF0669F4898181110FC042
S1130280FE01329600E010E00F5F1F4F819188233A
S1130290D9F307C00AE010E00E191F0902C000E0FC
S11302A010E0BB201CF48DE20E94C3000A3011054B
S11302B09CF481E090E08C0F9D1F080F191F7E01B4
S11302C09BE0E90EF11CD8018D918D01805D0E94A7
S11302D0C3000E151F05B9F72A960FB6F894DEBFB2
S11302E00FBECDBFDF91CF911F910F91FF90EF9083
S11302F0BF90AF909F908F907F906F905F904F9042
S113030008958F929F92AF92BF92DF92EF92FF92E5
S11303100F931F93CF93DF93CDB7DEB72A970FB612
S1130320F894DEBF0FBECDBF4B015C01D42E9923E0
S11303301CF48DE20E94C300C501B4010E94951310
S11303409F770E94621316161706180619060CF5F5
S11303509E012F5F3F4F790100E010E00F2EFAE07D
S11303608F2E912CA12CB12CF02D0F5F1F4FA501C6
S113037094010E942715605DF70161937F01622F4C
S1130380732F842F952F16161706180619066CF36B
S113039002C000E010E09E012F5F3F4F7901F90198
S11303A0E00FF11F1082C9010E947415C7010E9459
S11303B0E500F70101900020E9F73197EE19FF09F4
S11303C0DE1A92F0ED2CFF24E7FCF0941E141F04B7
S11303D07CF400E010E080E20E94C3000F5F1F4F36
S11303E00E151F05C4F304C08DEA91E00E94E500D8
S11303F02A960FB6F894DEBF0FBECDBFDF91CF9122
S11304001F910F91FF90EF90DF90BF90AF909F905E
S11304108F90089599E140E050E0862B87B92DE054
S11304202A95F1F70000369A349BFECF349A24B112
S113043035B1420F531F915089F79A01AFEAB7E4DF
S11304400E944615481B590BBA0176956795860F8D
S1130450971FBC01729562956F7067277F7067273D
S113046080E090E00E94931308958FEF85BB80EFA6
S113047084BB08958FEE85BB87EE93E00197F1F777
S113048000C00000989B3BC0999B3CC09A9B3DC018
S11304909B9B3EC08FED85BB87EE93E00197F1F700
S11304A000C00000989B37C0999B38C09A9B39C004
S11304B09B9B3AC08FEB85BB87EE93E00197F1F7E6
S11304C000C00000989B33C0999B34C09A9B35C0F0
S11304D09B9B36C08FE785BB87EE93E00197F1F7CE
S11304E000C00000989B2FC0999B30C09A9B31C0DC
S11304F09B9B32C08FEF85BB80E090E0089581E044
S113050090E0089584E090E0089587E090E00895F5
S11305108BE090E0089582E090E0089585E090E01B
S1130520089588E090E008958AE090E0089583E0DB
S113053090E0089586E090E0089589E090E00895C1
S11305408CE090E008958DE090E008958EE090E0D6
S113055008958FE090E0089580E190E008951F925F
S11305600F920FB60F9211248F939F93AF93BF9363
S11305708091FB039091FC03A091FD03B091FE03D5
S11305800196A11DB11D8093FB039093FC03A093DE
S1130590FD03B093FE03BF91AF919F918F910F9094
S11305A00FBE0F901F901895A2E6B0E02D913C91DC
S11305B011973093610020936000E4E6F0E020811D
S11305C031812D933C93A6E6B0E02D913C91119797
S11305D031832083E8E6F0E0708161817C93119699
S11305E06C9391838083272F362FAC014F5F5F4F2D
S11305F04217530749F04F5F5F4F2417350721F027
S113060003962817390779F48091F203853040F472
S113061070936800609369008F5F8093F20305C054
S11306201092F20302C01092F2038091680090913C
S11306306900AC01415051092417350721F0029794
S11306402817390779F48091F103853040F47093C9
S11306506800609369008F5F8093F10305C0109276
S1130660F10302C01092F103E0E6F0E04AE650E044
S113067080E090E021913191820F931FE417F507F8
S1130680C9F765E070E00E94F114882777FD809532
S1130690982F0E9495130E94A8140E946713CB01FF
S11306A008951F920F920FB60F9211244F925F92EA
S11306B06F927F928F929F92AF92BF92CF92DF926E
S11306C0EF92FF922F933F934F935F936F937F9398
S11306D08F939F93AF93BF93EF93FF93CF93DF9346
S11306E000D000D0CDB7DEB7A8958091F0038F5F1E
S11306F08093F00360E080E00E940A022091DC0312
S11307003091DD034091DE035091DF030E94921289
S11307106093DC037093DD038093DE039093DF0327
S11307202091F003243008F49FC0C0900304D090BB
S11307300404E0900504F09006042FEFC21AD20AD4
S1130740E20AF20AC0920304D0920404E09205047F
S1130750F092060420E030E040E85EE30E94451495
S11307600E94A8146B017C016093D8037093D90391
S11307708093DA039093DB038091E4039091E50383
S1130780A091E603B091E70389839A83AB83BC838A
S11307904090EC035090ED036090EE037090EF03F3
S11307A09C01AD016091E0037091E1038091E2034B
S11307B09091E3030E9491124B015C01A301920109
S11307C0C701B6010E9491129B01AC01C501B4019D
S11307D00E9445144B015C016093D0037093D103D4
S11307E08093D2039093D303A30192016091E80311
S11307F07091E9038091EA039091EB030E949112B6
S11308009B01AC016093CC037093CD038093CE0322
S11308109093CF03C501B4010E94FA129B01AC016D
S113082069817A818B819C810E94921220E030E060
S113083048EC52E40E94FA129B01AC01C701B601D4
S11308400E9445146093D4037093D5038093D60318
S11308509093D7031092DC031092DD031092DE0311
S11308601092DF031092F0030F900F900F900F90EF
S1130870DF91CF91FF91EF91BF91AF919F918F91B4
S11308807F916F915F914F913F912F91FF90EF90E6
S1130890DF90CF90BF90AF909F908F907F906F909C
S11308A05F904F900F900FBE0F901F901895CF93AD
S11308B0DF93CDB7DEB7A6970FB6F894DEBF0FBEB1
S11308C0CDBF87B3876087BB8FEF84BB8EEF8ABBB6
S11308D085E886B90E9488000E9435021FBC8CE01E
S11308E08EBD8FE08BBD82E48ABD8BB780648BBFE5
S11308F084B784BF85B7836085BF80E48ABF80E105
S113090089BF78942DE088E190E00FB6F894A8951B
S113091081BD0FBE21BD10E00F2EF6E06F2EF02D2D
S1130920198E1A8E1B8E1C8E19861A861B861C869F
S1130930812C912C5401C12CD12C7601198A1A8A4C
S11309401B8A1C8A00E0212C312CC982DA82EB82BA
S1130950FC828D829E82AF82B88669A2802E19C0E5
S1130960C982DA82EB82FC82B9A219861A861B86B6
S11309701C861D821E821F8218860BC0812E1AA11E
S113098008C0C982DA82EB82FC824D825E826F8269
S1130990788688B3887F88BB8FE493EC0197F1F75E
S11309A000C0000084E190E00E9484156093070475
S11309B0709308048093090490930A048CE090E0F7
S11309C00E9484156093EC037093ED038093EE030F
S11309D09093EF0388E090E00E9484156093E8030D
S11309E07093E9038093EA039093EB0384E090E02F
S11309F00E9484156093E4037093E5038093E603F7
S1130A009093E70380E090E00E9484156093E003F4
S1130A107093E1038093E2039093E30380E190E019
S1130A200E9484156093F3037093F4038093F50399
S1130A309093F6030E9488006FE080E00E94A70074
S1130A408AE690E00E94E50060E081E00E94A70051
S1130A5080E790E00E94E50060E082E00E94A70049
S1130A6083E890E00E94E50060E083E00E94A70034
S1130A708FE890E00E94E500F9A00E943A02892BD9
S1130A80E1F7F9A29FE7A8E3B1E09150A040B0409C
S1130A90E1F700C00000B9A04091FF0350910004A9
S1130AA06091010470910204809103049091040404
S1130AB0A0910504B0910604481759076A077B07FB
S1130AC009F46BC080910B048F5F80930B04853015
S1130AD020F10E9488006FE080E00E94A7008AE66F
S1130AE090E00E94E50060E081E00E94A70080E7BA
S1130AF090E00E94E50060E082E00E94A70083E8A5
S1130B0090E00E94E50060E083E00E94A7008FE887
S1130B1090E00E94E50010920B046CE081E00E94DA
S1130B20A70020E030EC4FE754E46091D8037091C3
S1130B30D9038091DA039091DB030E94F6128111AC
S1130B4005C08DE990E00E94E50017C06091D403D0
S1130B507091D5038091D6039091D7030E946713B7
S1130B60CB010E94D402BC0180E090E044E00E94EA
S1130B70810180E093E00E94E5008091030490915C
S1130B800404A0910504B09106048093FF0390939C
S1130B900004A0930104B09302040E943A02882343
S1130BA009F47ACF8C3021F08B3009F075CFBFC0B7
S1130BB0C980DA80EB80FC800BC0C980DA80EB80CE
S1130BC0FC80B9A005C0C980DA80EB80FC80B72C1A
S1130BD00E9488006FE080E00E94A7008AE690E00F
S1130BE00E94E50060E081E00E94A70084EA90E0B2
S1130BF00E94E50060E082E00E94A70084EB90E0A0
S1130C000E94E50060E083E00E94A70084EC90E08D
S1130C100E94E5000E943A02892BE1F7EFE7F8E32E
S1130C2021E0E150F0402040E1F700C000000E94C4
S1130C303A028823E1F38B3009F492CE8F30A1F18C
S1130C408C30A9F7C982DA82EB82FC82B9A20E94B5
S1130C50880060E080E00E94A70088E191E00E94A3
S1130C60E50060E081E00E94A70088E291E00E9434
S1130C70E50060E082E00E94A70085E391E00E9425
S1130C80E50060E083E00E94A70086E491E00E9412
S1130C90E50081E08D8719861A861B861C861D82D5
S1130CA01E821F82188646C00E94880060E080E091
S1130CB00E94A7008CEC90E00E94E50060E081E0D7
S1130CC00E94A7008FED90E00E94E50060E082E0C2
S1130CD00E94A70082EF90E00E94E50060E083E0BC
S1130CE00E94A70085E091E00E94E5000E943A027C
S1130CF0892BE1F73FE748E351E031504040504051
S1130D00E1F700C000000E943A028823E1F38D302D
S1130D1009F495C58E3009F4AAC58F3009F4C2C50B
S1130D20803109F4DAC58B50823068F751CFB9A20B
S1130D309DE09D876894BB24B4F80F2EFEE09F2E9F
S1130D40F02D6894AA24A3F8C980DA80EB80FC8093
S1130D504D805E806F8078840BC0F1E0FD8708C011
S1130D6033E03D8705C05FE05D8702C097E09D8763
S1130D700E943A02892BE1F7AFE7B8E3E1E0A15022
S1130D80B040E040E1F700C000003D853130C9F4D7
S1130D9066E080E00E94A7008BE591E00E94E500F8
S1130DA066E080E00E94A7008DE00E945E0010E0F3
S1130DB046E049A352E05D87C02ED82CE22CF32CE8
S1130DC0F4C18D858330C9F466E081E00E94A700F8
S1130DD08BE591E00E94E50066E081E00E94A700B7
S1130DE08DE00E945E0011E096E099A3A4E0AD8737
S1130DF0C02ED82CE22CF32CD8C1BD85B530C9F453
S1130E0066E082E00E94A7008BE591E00E94E50085
S1130E1066E082E00E94A7008DE00E945E0012E07E
S1130E20E6E0E9A3F6E0FD87C02ED82CE22CF32CF3
S1130E30BCC12D85273071F50E94880060E080E0F8
S1130E400E94A70080E691E00E94E50060E081E056
S1130E500E94A70085E791E00E94E50060E082E03F
S1130E600E94A70086E891E00E94E50060E083E02C
S1130E700E94A7008AE991E00E94E5008DE00E94AB
S1130E805E0012E036E039A3AD86C02ED82CE22CE9
S1130E90F32C8BC14D85483009F049C04091FF03C4
S1130EA05091000460910104709102048091030444
S1130EB090910404A0910504B091060448175907C1
S1130EC06A077B0709F471C18CE00E945E006B2DF8
S1130ED081E00E94A7006091D8037091D9038091AA
S1130EE0DA039091DB030E94621344E00E948101C3
S1130EF08091030490910404A0910504B091060428
S1130F008093FF0390930004A0930104B093020420
S1130F1069A1812F0E94A70059A15A3021F48CE0C5
S1130F200E945E0042C18DE00E945E003EC18D853C
S1130F30893009F042C00E94880060E080E00E948D
S1130F40A7008FEA91E00E94E50060E081E00E9442
S1130F50A70084EC91E00E94E500692D81E00E94E5
S1130F60A7006091F7037091F8038091F9039091C1
S1130F70FA0346E00E94810160E082E00E94A7003B
S1130F8083ED91E00E94E50060E083E00E94A70009
S1130F908AE991E00E94E50066E082E00E94A700F1
S1130FA08DE00E945E0012E096E099A3AAE0AD876E
S1130FB0C02ED82CE22CF32CF8C0BD85BB3079F5BB
S1130FC00E94880060E080E00E94A70080E691E033
S1130FD00E94E50060E081E00E94A70085E791E0BF
S1130FE00E94E50060E082E00E94A70083EE91E0A9
S1130FF00E94E50060E083E00E94A7008AE991E096
S11310000E94E5008DE00E945E0012E0E6E0E9A3A4
S1131010FCE0FD87C02ED82CE22CF32CC6C02D8515
S11310202C3009F049C04091FF03509100046091B5
S11310300104709102048091030490910404A0912E
S11310400504B0910604481759076A077B0709F499
S1131050ACC08CE00E945E006B2D81E00E94A70072
S11310606091D8037091D9038091DA039091DB03E6
S11310700E94621344E00E948101809103049091D4
S11310800404A0910504B09106048093FF03909397
S11310900004A0930104B093020469A1812F0E946B
S11310A0A70039A13A3021F48CE00E945E007DC093
S11310B08DE00E945E0079C04D854D30D1F50E94CF
S11310C088006FE080E00E94A7008AE690E00E941A
S11310D0E50060E081E00E94A70086EF91E00E94B5
S11310E0E50060E082E00E94A7008BE092E00E94AD
S11310F0E50060E083E00E94A70082E192E00E94A4
S1131100E50066E082E00E94A7008BE591E00E9482
S1131110E50066E082E00E94A7008DE00E945E0088
S113112012E056E059A39D86C02ED82CE22CF32C55
S11311303CC08D858F30C9F50E9488006FE080E047
S11311400E94A7008AE690E00E94E50060E081E04A
S11311500E94A70087E292E00E94E50060E082E03E
S11311600E94A7008CE392E00E94E50060E083E027
S11311700E94A70082E192E00E94E50066E082E01E
S11311800E94A7008BE591E00E94E50066E082E002
S11311900E94A7008DE00E945E0012E096E099A3F1
S11311A0BD86C02ED82CE22CF32C0E943A02882350
S11311B009F4EBCD8B3009F5AD85A9838CE00E9451
S11311C05E008D858D7F883011F40C940E11E981B9
S11311D0EC3011F40C940F11E03111F40C94101153
S11311E0C982DA82EB82FC824D825E826F827886CB
S11311F0FD85FE3009F0E1CCCCCB803109F05EC036
S113120039A13730E0F0315039A3632F812F0E9488
S1131210A70080E20E94C30069A1812F0E94A70059
S11312208DE00E945E00C701B6012AE030E040E094
S113123050E00E94051569017A010C9478124D85DD
S1131240423069F4C982DA82EB82FC828CE00E942B
S11312505E00C980DA80EB80FC80B9A0B9CC8D85B2
S1131260843009F47ACD863009F47ACD883021F4BB
S11312708CE00E945E00D6C7BD85BA3009F4D1C7A0
S1131280BC3021F48CE00E945E00CCC72D852E304A
S113129061F4C982DA82EB82FC824D825E826F82C3
S11312A078868CE00E945E0074CB4D85403111F04D
S11312B00C9478128CE00E945E00B4C78C3009F064
S11312C042C19D85923011F40C947D12943011F436
S11312D00C9480129630C9F4C982DA82EB82FC82C3
S11312E04D825E826F8278860E945E00C980DA80B9
S11312F0EB80FC80CD86DE86EF86F88AA6E0A9A383
S113130019821A821B821C82FFC2BD85B83009F083
S113131063C04091D8035091D9036091DA0370916E
S1131320DB034093EC035093ED036093EE0370935F
S1131330EF038CE090E00E948A15C701B6010E9479
S1131340931320E030E048EC52E40E9445142091CD
S1131350EC033091ED034091EE035091EF030E94B2
S1131360FA12AB01BC0184E090E00E948A158CE083
S11313700E945E00EFE7F8E321E0E150F0402040F6
S1131380E1F700C00000C19A3FE748E351E0315063
S113139040405040E1F700C000000E9488008CE00B
S11313A00E945E0060E080E00E94A70080E691E079
S11313B00E94E50060E081E00E94A70083E492E0DF
S11313C00E94E50060E082E00E94A70088E592E0C8
S11313D00E94E5000C941D128D858A3011F5209130
S11313E0F7033091F8034091F9035091FA03A4E60E
S11313F0B0E00E945515A70196010E940515BA0197
S1131400A90180E190E00E948A158CE00E945E00B0
S113141096E099A3A7E0AD87C988DA88EB88FC88B1
S1131420A7CCBD85BC3009F042C0C982DA82EB8208
S1131430FC824D825E826F8278864091D8035091FF
S1131440D9036091DA037091DB034093E80350936E
S1131450E9036093EA037093EB0388E090E00E9451
S11314608A1569817A818B819C810E94931320E083
S113147030E048EC52E40E9445142091E803309196
S1131480E9034091EA035091EB030E94FA12AB0185
S1131490BC0180E090E00E948A158CE00E945E000E
S11314A0E6E0E9A319821A821B821C8272CAFD85B6
S11314B0FE30A9F58CE00E945E00809107049091B3
S11314C00804A0910904B0910A048C159D05AE0589
S11314D0BF0509F49CC60E9488006FE080E00E946A
S11314E0A7008AE690E00E94E50062E082E00E94A4
S11314F0A70086E692E00E94E5002FEF39E648E176
S1131500215030404040E1F700C0000056E059A3AC
S11315108DE08D87C988DA88EB88FC8829CC9D8585
S1131520903109F0E5C7B701A60184E190E00E947B
S11315308A158CE00E945E00A6E0C988DA88EB88F0
S1131540FC88A9A36FC6B9A1BA3008F069C1893073
S113155011F56B2F812F0E94A70089E30E94C3001D
S1131560E9A1EF5FE9A3CC0CDD1CEE1CFF1CD70145
S1131570C601880F991FAA1FBB1F880F991FAA1F96
S1131580BB1FC80ED91EEA1EFB1EF9E0CF0ED11CEC
S1131590E11CF11C3EC18A30E9F469A1812F0E944B
S11315A0A70080E30E94C30029A12F5F29A3CC0CCC
S11315B0DD1CEE1CFF1CD701C601880F991FAA1F52
S11315C0BB1F880F991FAA1FBB1FC80ED91EEA1E76
S11315D0FB1E1FC1853011F569A1812F0E94A70050
S11315E085E30E94C30039A13F5F39A3CC0CDD1C05
S11315F0EE1CFF1CD701C601880F991FAA1FBB1F31
S1131600880F991FAA1FBB1FC80ED91EEA1EFB1EF6
S113161045E0C40ED11CE11CF11CFBC0863011F561
S113162069A1812F0E94A70086E30E94C30059A1EB
S11316305F5F59A3CC0CDD1CEE1CFF1CD701C60157
S1131640880F991FAA1FBB1F880F991FAA1FBB1FB2
S1131650C80ED91EEA1EFB1E86E0C80ED11CE11C72
S1131660F11CD7C0873011F569A1812F0E94A70012
S113167087E30E94C30099A19F5F99A3CC0CDD1C52
S1131680EE1CFF1CD701C601880F991FAA1FBB1FA0
S1131690880F991FAA1FBB1FC80ED91EEA1EFB1E66
S11316A0A7E0CA0ED11CE11CF11CB3C0883011F5AF
S11316B069A1812F0E94A70088E30E94C300B9A1F9
S11316C0BF5FB9A3CC0CDD1CEE1CFF1CD701C60107
S11316D0880F991FAA1FBB1F880F991FAA1FBB1F22
S11316E0C80ED91EEA1EFB1EE8E0CE0ED11CE11C7A
S11316F0F11C8FC0813011F569A1812F0E94A700D0
S113170081E30E94C300F9A1FF5FF9A3CC0CDD1CA7
S1131710EE1CFF1CD701C601880F991FAA1FBB1F0F
S1131720880F991FAA1FBB1FC80ED91EEA1EFB1ED5
S11317302FEFC21AD20AE20AF20A6BC0823011F504
S113174069A1812F0E94A70082E30E94C30039A1EE
S11317503F5F39A3CC0CDD1CEE1CFF1CD701C60176
S1131760880F991FAA1FBB1F880F991FAA1FBB1F91
S1131770C80ED91EEA1EFB1E42E0C40ED11CE11C99
S1131780F11C47C0833011F569A1812F0E94A70085
S113179083E30E94C30059A15F5F59A3CC0CDD1CF5
S11317A0EE1CFF1CD701C601880F991FAA1FBB1F7F
S11317B0880F991FAA1FBB1FC80ED91EEA1EFB1E45
S11317C083E0C80ED11CE11CF11C23C0843009F550
S11317D069A1812F0E94A70084E30E94C30099A1FC
S11317E09F5F99A3CC0CDD1CEE1CFF1CD701C60126
S11317F0880F991FAA1FBB1F880F991FAA1FBB1F01
S1131800C80ED91EEA1EFB1EA4E0CA0ED11CE11CA0
S1131810F11CB9A1BA3029F48CE00E945E0001C029
S113182000C00E943A02892BE1F7AFE7B8E3E1E098
S1131830A150B040E040E1F700C00000A6CAC98250
S1131840DA82EB82FC82B9A2F2E0FD871E861F8653
S1131850188A29E129871A861B861C8686E490E06B
S1131860A0E0B0E08D839E83AF83B8874DC0C9826A
S1131870DA82EB82FC82B9A292E09D871E861F86E3
S1131880188A22E330E040E050E029873A874B870A
S11318905C8786E490E0A0E0B0E08D839E83AF8314
S11318A0B88732C0C982DA82EB82FC82B9A292E0A4
S11318B09D871E861F86188A22E330E040E050E0B0
S11318C029873A874B875C8782E390E0A0E0B0E009
S11318D08D839E83AF83B88717C0C982DA82EB8277
S11318E0FC82B9A292E09D871E861F86188A22E395
S11318F030E040E050E029873A874B875C873CE33F
S11319003D831E821F8218860E94880060E080E06A
S11319100E94A70088E191E00E94E50066E080E073
S11319200E94A7004D814BA39E80AF80B88444E001
S11319306D817E818F8198850E94810160E081E0C4
S11319400E94A70088E291E00E94E50066E081E041
S11319500E94A70059855D8B8A858E8B9B859F8B02
S1131960AC85A88F44E069857A858B859C850E9427
S1131970810160E082E00E94A70085E391E00E947B
S1131980E50066E082E00E94A700BD85BD8FEE857C
S1131990EE8FFF85FF8F288928A344E06D857E851F
S11319A08F8598890E94810160E083E00E94A700EE
S11319B087E792E00E94E500E9A0FBA00E943A02BA
S11319C0892BE1F7E9A2FBA23FE748E351E031505C
S11319D040405040E1F700C0000079A0FBA00E9405
S11319E03A028823E1F38B3009F4EDC88C30B9F75F
S11319F079A2FBA20E94880060E080E00E94A70018
S1131A008CE892E00E94E5006BE080E00E94A70071
S1131A1044E06BA1792D8A2D9B2D0E94810160E009
S1131A2081E00E94A70081EA92E00E94E5006BE059
S1131A3081E00E94A70044E06D897E898F89988D9A
S1131A400E94810160E082E00E94A70083EB92E0A3
S1131A500E94E5006CE082E00E94A70043E06D8DE7
S1131A607E8D8F8D98A10E94810160E083E00E94A9
S1131A70A70087EC92E00E94E500E9A0FBA00E9489
S1131A803A02892BE1F7E9A2FBA28FE798E3A1E0F0
S1131A9081509040A040E1F700C000001092FB0389
S1131AA01092FC031092FD031092FE0310920304A3
S1131AB010920404109205041092060439A12BA17B
S1131AC071C039A32BA3C29ABFE7E8E3F1E0B15098
S1131AD0E040F040E1F700C000000E94880060E0B0
S1131AE080E00E94A7008CED92E00E94E5006BE08C
S1131AF080E00E94A70044E06BA1792D8A2D9B2DE4
S1131B000E94810160E081E00E94A70081EA92E0E6
S1131B100E94E5006BE081E00E94A70044E06D892B
S1131B207E898F89988D0E94810160E082E00E9405
S1131B30A70083EB92E00E94E5006CE082E00E9443
S1131B40A70043E06D8D7E8D8F8D98A10E94810149
S1131B5060E083E00E94A70087EC92E00E94E50029
S1131B602091FB033091FC034091FD035091FE034F
S1131B70A4E6B0E00E9455152091F3033091F403DC
S1131B804091F5035091F6030E94051569017A010D
S1131B902D813E814F815885C216D306E406F50691
S1131BA0A0F09FC08FE097E20197F1F700C000001A
S1131BB08091030490910404A0910504B09106045B
S1131BC0892B8A2B8B2B71F37CCF4D805E806F80A9
S1131BD078841AA39CA2ADA2BEA2182D4601570177
S1131BE00E943A02882339F08C3009F475C08F3092
S1131BF011F40C94BE0466E080E00E94A70044E067
S1131C0050E0C501B4010E94F5004091FF035091DA
S1131C100004609101047091020480910304909186
S1131C200404A0910504B0910604481759076A07F3
S1131C307B0741F166E081E00E94A7006091D40334
S1131C407091D5038091D6039091D7030E946713B6
S1131C50CB010E94D402BC0180E090E044E050E05B
S1131C600E94F5008091030490910404A09105045E
S1131C70B09106048093FF0390930004A0930104A1
S1131C80B0930204EFE0F7E23197F1F700C00000EF
S1131C902091FB033091FC034091FD035091FE031E
S1131CA0A4E6B0E00E9455152091F3033091F403AB
S1131CB04091F5035091F6030E94051549015A011C
S1131CC0241535054605570508F48ACF9CA0ADA018
S1131CD0BEA0812E1AA105C09CA0ADA0BEA0812EDD
S1131CE01AA1C2985FE788E391E051508040904088
S1131CF0E1F700C000000E94880060E080E00E94DC
S1131D00A7008CE892E00E94E5006BE080E00E946E
S1131D10A70044E06BA1792D8A2D9B2D0E9481019F
S1131D2060E081E00E94A70081EA92E00E94E50061
S1131D306BE081E00E94A70044E06D897E898F8971
S1131D40988D0E94810160E082E00E94A70083EBED
S1131D5092E00E94E5006CE082E00E94A70043E06C
S1131D606D8D7E8D8F8D98A10E94810160E083E04E
S1131D700E94A70087EC92E00E94E50066E080E004
S1131D800E94A70044E050E06BA1792D8A2D9B2D81
S1131D900E94F500E9A0FBA00E943A02892BE1F71A
S1131DA0E9A2FBA2AFE7B8E3E1E0A150B040E04014
S1131DB0E1F700C000001092030410920404109292
S1131DC005041092060439A12BA18FE097E2019734
S1131DD0F1F700C000008091030490910404A091E5
S1131DE00504B0910604892B8A2B8B2B71F339A33C
S1131DF02BA3C19AFFE728E331E0F15020403040A3
S1131E00E1F700C000000E94880060E080E00E94CA
S1131E10A7008CE892E00E94E5006BE080E00E945D
S1131E20A70044E06BA1792D8A2D9B2D0E9481018E
S1131E3060E081E00E94A70081EF92E00E94E5004B
S1131E406BE081E00E94A70044E06D897E898F8960
S1131E50988D0E94810160E082E00E94A70083EBDC
S1131E6092E00E94E5006CE082E00E94A70043E05B
S1131E706D8D7E8D8F8D98A10E94810160E083E03D
S1131E800E94A70087EC92E00E94E50066E080E0F3
S1131E900E94A70044E050E06BA1792D8A2D9B2D70
S1131EA00E94F5007BA0692C99A0F82C812E132D9B
S1131EB04091FF0350910004609101047091020469
S1131EC08091030490910404A0910504B091060448
S1131ED0481759076A077B0751F16091D403709141
S1131EE0D5038091D6039091D7030E946713698F1D
S1131EF07A8F8B8F9C8F66E081E00E94A70044E07C
S1131F0050E0698D7A8D8B8D9C8D0E94F5008091B7
S1131F10030490910404A0910504B09106048093F5
S1131F20FF0390930004A0930104B0930204298555
S1131F303A854B855C85898D9A8DAB8DBC8D8217D6
S1131F409307A407B50780F40E943A02882309F492
S1131F50AFCF8C3049F08F3009F0AACF99A2312E3F
S1131F60182D8F2C0C94C90499A2312E182D8F2C66
S1131F707BA2C1989FE7A8E3B1E09150A040B04094
S1131F80E1F700C000000E94880060E080E00E9449
S1131F90A7008CE892E00E94E5006BE080E00E94DC
S1131FA0A70044E06BA1762D8A2D9B2D0E94810110
S1131FB060E081E00E94A70081EA92E00E94E500CF
S1131FC06BE081E00E94A70044E06D897E898F89DF
S1131FD0988D0E94810160E082E00E94A70083E066
S1131FE093E00E94E5006CE082E00E94A70043E0D9
S1131FF06D8D7E8D8F8D98A10E94810160E083E0BC
S11320000E94A70087EC92E00E94E50066E080E071
S11320100E94A70044E050E06BA1762D8A2D9B2DF1
S11320200E94F50066E081E00E94A70044E050E0D1
S11320306D897E898F89988D0E94F500F9A00E9490
S11320403A02892BE1F7F9A2EFE7F8E321E0E15046
S1132050F0402040E1F700C0000010920304109209
S11320600404109205041092060499A0F22CE32CA7
S11320706091030470910404809105049091060416
S11320802CE330E040E050E00E94051559016A015C
S11320908D859E85AF85B889281739074A075B0760
S11320A088F1C09A9FE7A8E3B1E09150A040B04006
S11320B0E1F700C00000109203041092040410928F
S11320C00504109206040E94880087E193E00E94B0
S11320D0E5006FE080E00E94A7008AE690E00E949D
S11320E0E50066E081E00E94A70081E293E00E949F
S11320F0E50060E083E00E94A7008BE293E00E9489
S1132100E50030C066E082E00E94A70042E050E0B3
S1132110C601B5010E94F50069E082E00E94A700B3
S11321206091030470910404809105049091060465
S11321302CE330E040E050E00E94051542E050E01E
S11321400E94F5000E943A02882309F491CF8C3052
S113215009F4A7CF8F3009F08BCF99A22F2C3E2CF6
S11321600C94C9040E943A02892BE1F7EFE7F8E3E3
S113217021E0E150F0402040E1F700C000000F2EC4
S1132180FCE3CF2ED12CE12CF12CF02D66E080E085
S11321900E94A700609103047091040480910504D7
S11321A090910604A70196010E940515CA01B90180
S11321B042E050E00E94F50069E080E00E94A70040
S11321C060910304709104048091050490910604C5
S11321D0A70196010E94051542E050E00E94F50017
S11321E00E943A028C3061F4C0983FE748E351E022
S11321F0315040405040E1F700C00000F894FFCF58
S11322008FE097E20197F1F700C00000BFCF96E09E
S1132210C988DA88EB88FC8899A304C003C002C08B
S113222001C000C00E94880060E080E00E94A70016
S113223088E393E00E94E50060E081E00E94A7004B
S11322408DE493E00E94E50060E082E00E94A70034
S113225083E693E00E94E50060E083E00E94A7002B
S113226085E793E00E94E5000E943A02892BE1F79A
S113227049A15FE788E391E0515080409040E1F745
S113228000C0000049A30E943A02882359F08D300F
S113229081F08E3011F40C94B3068B50823010F41C
S11322A00C94C104AFE0B7E21197F1F700C000004D
S11322B0EACF0E9488008CE00E945E0060E080E02B
S11322C00E94A7008FEA91E00E94E50060E081E0AF
S11322D00E94A7008AE893E00E94E50060E082E0A3
S11322E00E94A70084E993E00E94E50060E083E097
S11322F00E94A70082EA93E00E94E5000E943A024D
S1132300892BE1F7F9A12FE738E341E02150304070
S11323104040E1F700C00000F9A30E943A0288237C
S113232049F08C3071F08E3011F40C94B6068F3075
S113233009F478CF8FE097E20197F1F700C000002D
S1132340ECCFA989A093FB03BA89B093FC03EB8972
S1132350E093FD03FC89F093FE03A093F703B0938D
S1132360F803E093F903F093FA03C29A2FE738E3F2
S113237041E0215030404040E1F700C000000E949D
S113238088008CE00E945E0060E080E00E94A7006C
S11323908FEA91E00E94E50060E081E00E94A700DE
S11323A08CEA93E00E94E50060E082E00E94A700CE
S11323B08BEB93E00E94E5000E943A02892BE1F73F
S11323C089A19FE7A8E3B1E09150A040B040E1F7B4
S11323D000C0000089A30E943A028C30F1F4C29834
S11323E0FFE728E331E0F15020403040E1F700C03E
S11323F000008091FB039091FC03A091FD03B09138
S1132400FE038093F7039093F803A093F903B0932A
S1132410FA0349E04D870C94B8066EE081E00E940F
S1132420A7006091FB037091FC038091FD039091E0
S1132430FE0346E00E948101CECF0E943A02892B1E
S1132440E1F75FE788E391E0515080409040E1F785
S113245000C000004091FF0350910004609101040A
S1132460709102048091030490910404A0910504E6
S1132470B0910604481759076A077B0709F16EE013
S113248081E00E94A7006091D8037091D9038091E4
S1132490DA039091DB030E94621344E00E948101FD
S11324A08091030490910404A0910504B091060462
S11324B08093FF0390930004A0930104B09302045B
S11324C00E943A028C3031F6C198AFE7B8E3E1E0FC
S11324D0A150B040E040E1F700C00000F6E0F9A3ED
S11324E02BE02D87C988DA88EB88FC880C94B80621
S11324F039A13A3008F48DC994C953E05D8708C006
S1132500C986DA86EB86FC867301620185E08D87D5
S11325102601370196E0C02ED82CE22CF32C99A387
S113252080C95058BB27AA270ED075C166D130F098
S11325306BD120F031F49F3F11F41EF45BC10EF413
S1132540E095E7FB51C1E92F77D180F3BA17620711
S113255073078407950718F071F49EF58FC10EF484
S1132560E0950B2EBA2FA02D0B01B90190010C019F
S1132570CA01A0011124FF27591B99F0593F50F4B7
S1132580503E68F11A16F040A22F232F342F44270F
S1132590585FF3CF469537952795A795F040539507
S11325A0C9F77EF41F16BA0B620B730B840BBAF0D7
S11325B09150A1F0FF0FBB1F661F771F881FC2F742
S11325C00EC0BA0F621F731F841F48F48795779556
S11325D06795B795F7959E3F08F0B3CF9395880F0D
S11325E008F09927EE0F979587950895D9D008F4A8
S11325F081E008950CD00FC107D140F0FED030F037
S113260021F45F3F19F0F0C0511139C1F3C014D166
S113261098F39923C9F35523B1F3951B550BBB27A5
S1132620AA2762177307840738F09F5F5F4F220F52
S1132630331F441FAA1FA9F333D00E2E3AF0E0E84B
S113264030D091505040E695001CCAF729D0FE2F97
S113265027D0660F771F881FBB1F26173707480729
S1132660AB07B0E809F0BB0B802DBF01FF279358DF
S11326705F4F2AF09E3F510568F0B6C000C15F3F2E
S1132680ECF3983EDCF3869577956795B795F795C7
S11326909F5FC9F7880F911D9695879597F90895BF
S11326A0E1E0660F771F881FBB1F6217730784075B
S11326B0BA0720F0621B730B840BBA0BEE1F88F76A
S11326C0E095089504D06894B111D9C00895BCD0A0
S11326D088F09F5790F0B92F9927B751A0F0D1F007
S11326E0660F771F881F991F1AF0BA95C9F712C091
S11326F0B13081F0C3D0B1E00895C0C0672F782F06
S11327008827B85F39F0B93FCCF3869577956795FC
S1132710B395D9F73EF490958095709561957F4F68
S11327208F4F9F4F0895E89409C097FB3EF490950E
S11327308095709561957F4F8F4F9F4F9923A9F096
S1132740F92F96E9BB279395F69587957795679525
S1132750B795F111F8CFFAF4BB0F11F460FF1BC069
S11327606F5F7F4F8F4F9F4F16C0882311F096E9FC
S113277011C0772321F09EE8872F762F05C06623AA
S113278071F096E8862F70E060E02AF09A95660F63
S1132790771F881FDAF7880F9695879597F908951C
S11327A0990F0008550FAA0BE0E8FEEF161617065E
S11327B0E807F907C0F012161306E407F50798F0C6
S11327C0621B730B840B950B39F40A2661F0232BDF
S11327D0242B252B21F408950A2609F4A140A6955B
S11327E08FEF811D811D089597F99F6780E870E040
S11327F060E008959FEF80EC089500240A94161673
S1132800170618060906089500240A9412161306DA
S1132810140605060895092E0394000C11F4882368
S113282052F0BB0F40F4BF2B11F460FF04C06F5F84
S11328307F4F8F4F9F4F089557FD9058440F551F5A
S113284059F05F3F71F04795880F97FB991F61F02E
S11328509F3F79F087950895121613061406551FA5
S1132860F2CF4695F1DF08C0161617061806991F11
S1132870F1CF86957105610508940895E894BB2706
S113288066277727CB0197F908950BD0C4CFB5DF1E
S113289028F0BADF18F0952309F0A6CFABCF1124A6
S11328A0EECFCADFA0F3959FD1F3950F50E0551FEB
S11328B0629FF001729FBB27F00DB11D639FAA2791
S11328C0F00DB11DAA1F649F6627B00DA11D661FE0
S11328D0829F2227B00DA11D621F739FB00DA11D01
S11328E0621F839FA00D611D221F749F3327A00DBB
S11328F0611D231F849F600D211D822F762F6A2F57
S113290011249F5750408AF0E1F088234AF0EE0FDB
S1132910FF1FBB1F661F771F881F91505040A9F7E8
S11329209E3F510570F060CFAACF5F3FECF3983E15
S1132930DCF3869577956795B795F795E7959F5F4F
S1132940C1F7FE2B880F911D9695879597F90895E9
S11329507BDFE0F09E37D8F09639B8F49E3848F41F
S1132960672F782F8827985FF9CF86957795679595
S113297093959539D0F3B62FB1706B0F711D811DEE
S113298020F4879577956795939502C01CC077CFFF
S1132990882371F4772321F09850872B762F07C072
S11329A0662311F499270DC09051862B70E060E0E6
S11329B02AF09A95660F771F881FDAF7880F969585
S11329C0879597F908959F3F31F0915020F48795AA
S11329D077956795B795880F911D9695879597F983
S11329E0089597FB072E16F4009407D077FD09D0BD
S11329F00E94601507FC05D03EF4909581959F4F89
S1132A000895709561957F4F0895A1E21A2EAA1B2F
S1132A10BB1BFD010DC0AA1FBB1FEE1FFF1FA2178A
S1132A20B307E407F50720F0A21BB30BE40BF50B87
S1132A30661F771F881F991F1A9469F76095709510
S1132A40809590959B01AC01BD01CF010895052EA1
S1132A5097FB1EF400940E943E1557FD07D00E9478
S1132A60051507FC03D04EF40C943E155095409583
S1132A70309521953F4F4F4F5F4F08959095809526
S1132A80709561957F4F8F4F9F4F0895A29FB0011E
S1132A90B39FC001A39F700D811D1124911DB29F8E
S1132AA0700D811D1124911D08950E944615A59F46
S1132AB0900DB49F900DA49F800D911D1124089535
S1132AC0AA1BBB1B51E107C0AA1FBB1FA617B70750
S1132AD010F0A61BB70B881F991F5A95A9F780956C
S1132AE09095BC01CD010895DC01FC01672F719123
S1132AF07723E1F7329704C07C916D9370836291E0
S1132B00AE17BF07C8F30895A6E1B0E044E050E073
S1132B100C9498150396272F0E94A7150E94A615BA
S1132B20252F0E94A715242F0C94A715DC01CB0197
S1132B30FC01E199FECF06C0FFBBEEBBE09A3196E3
S1132B400DB20D9241505040B8F70895262FE199E7
S1132B50FECF9FBB8EBBE09A01970DB2021631F0F7
S1132B602DBB0FB6F894E29AE19A0FBE0895F8943B
S1052B70FFCF91
S1132B721E001E001E001E001E00617354657800B4
S1132B8254454D50455241545552453A2020202037
S1132B92DF43002A3E2053455454494E47530023F1
S1132BA23E205354415254205441534B0054434EFB
S1132BB243212100433E2043484F4F534520494E71
S1132BC250555400233E204D414E55414C20494E10
S1132BD2505554002A3E204241434B00413A37307B
S1132BE24C69742E5F3235DF435F326D696E004289
S1132BF23A37304C69742E5F3530DF435F326D698A
S1132C026E00433A35304C69742E5F3530DF435FD2
S1132C12326D696E00443A36304C69742E5F353039
S1132C22DF435F326D696E0057415445523A2020AA
S1132C3220204C697465720054454D502E3A202070
S1132C422020DF430054494D45203A202020206DA6
S1132C52696E757465002A3E4241434B20443E44EA
S1132C62454C2E20233E4E4558540020202020005F
S1132C725F5F54656D702E2043616C69627261748A
S1132C82696F6E5F00436F6E766572746564207659
S1132C92616C75653A004552564C203A202020203A
S1132CA2DF432F535452542E50002A3E4241434B89
S1132CB220443E44454C2E20233E53415645005F5A
S1132CC25F57617465722043616C696272617469F1
S1132CD26F6E5F0050756C736520436F756E74651B
S1132CE2643A004552564C203A202020204C697404
S1132CF26572004552564C203A20202020DF432F93
S1132D02454E442E5000506C6561736520456E74C7
S1132D126572207468652070617300736B65792035
S1132D223A002A3E4241434B2020443E44454C2E25
S1132D322020233E4F4B00456E74657220746865F3
S1132D42206E657720706173732D20006B65792086
S1132D52203A00436F756E7465642056616C756524
S1132D623A20202020DF4300233E2053746F70203A
S1132D72537465616D0057726F6E6720706173736F
S1132D826B6579212121002A3E57524F4E4720205C
S1132D922020233E434F5252454354005741544549
S1132DA252FF303030302F202020204C49544552DD
S1132DB20054454D5020FF2E2E2E2E2F2020202051
S1132DC2DF430054494D4520FF30303A30302F2044
S1132DD220204D696E2E00433E43414E43454C2014
S1132DE22020202020233E534B4950005741544574
S1132DF2527E303030302F202020204C495445520E
S1132E020054454D50207E2E2E2E2E2F2020202081
S1132E12DF430054494D45207E30303A30302F2074
S1132E2220204D696E2E0054696D653A2020203AA7
S1132E3200414C41524D494E472100233E20414C12
S1132E4241524D204F4646005F5F5F5F5F5F5345CF
S1132E525454494E47535F5F5F5F5F5F00413E20BA
S1132E6253797374656D2043616C6962726174692C
S1132E726F6E00423E204368616E67652070617325
S1132E82736B6579002A3E4241434B202020202067
S1132E92202020233E4E45585400423E2042797061
S1132EA261737300233E204C6F6164205761746523
S1132EB27200433E2043414E43454C00436F756EBE
S1132EC27465642050756C73653A00233E20537414
S10F2ED26F70204C6F6164696E67000033
S9030000FC
