S01400006669726D776172655F6578742E7372656303
S113000012C019C018C017C016C015C014C013C040
S113001012C011C010C00FC00EC00DC00CC00BC068
S11300200AC009C008C011241FBECFE5D4E0DEBF5A
S1130030CDBF51D0D7C2E4CFDC01CB01880F991FCB
S1130040AA1FBB1F880F991FAA1FBB1F9C01AD01CC
S1130050220F331F441F551F220F331F441F551FE8
S113006060E072E18AE790E09BD2CA01B901615075
S1130070710981099109F4D130D2272F332720BD8A
S113008069B988E18AB986E880BD08955D9BFECF91
S11300908CB908955F9BFECF8CB108958BB1881FF6
S11300A08827881F0895813611F4959A0895823619
S11300B011F495980895833611F4969A0895843628
S11300C011F496980895853611F4979A0895863612
S11300D009F4979808958FE088BB80EF87BB12BA24
S11300E080EE81BB68E572E080E090E0A5DF2FE060
S11300F088E190E00FB6F894A89581BD0FBE21BDAC
S11301000FEE1FEDDFEBCFE7A895C8DF882311F0D2
S1130110C1DFC9DF08BB22E02A95F1F700C0B0991E
S113012017C081E0B3DF8FE79AE126E08150904069
S11301302040E1F700C00000B09BFECF8FEF90E7B6
S113014022E0815090402040E1F700C000004AC006
S1130150B19917C084E09ADF8FE79AE126E08150D5
S113016090402040E1F700C00000B19BFECF8FEF2C
S113017090E722E0815090402040E1F700C0000069
S113018031C0B29917C087E081DF8FE79AE126E09A
S1130190815090402040E1F700C00000B29BFECFA8
S11301A08FEF90E722E0815090402040E1F700C0BB
S11301B0000018C0B39916C08BE068DF8FE79AE19E
S11301C026E0815090402040E1F700C00000B39B3E
S11301D0FECF8FEF90E722E0815090402040E1F77E
S11301E000C0000018BB82E08A95F1F700C0B09906
S11301F017C082E04BDF9FE72AE186E09150204060
S11302008040E1F700C00000B09BFECF9FEF20E7E5
S113021082E0915020408040E1F700C000004AC0D5
S1130220B19917C085E032DF9FE72AE186E091505B
S113023020408040E1F700C00000B19BFECF9FEF5B
S113024020E782E0915020408040E1F700C00000A8
S113025031C0B29917C088E019DF9FE72AE186E030
S1130260915020408040E1F700C00000B29BFECFD7
S11302709FEF20E782E0915020408040E1F700C0EA
S1130280000018C0B39916C08AE000DF9FE72AE196
S113029086E0915020408040E1F700C00000B39B0D
S11302A0FECF9FEF20E782E0915020408040E1F7AD
S11302B000C00000F3DE882311F0ECDEF4DED8BBCE
S11302C092E09A95F1F700C0B09917C083E0DEDEA2
S11302D02FE78AE196E0215080409040E1F700C08A
S11302E00000B09BFECF2FEF80E792E021508040CA
S11302F09040E1F700C000004AC0B19917C086E001
S1130300C5DE2FE78AE196E0215080409040E1F776
S113031000C00000B19BFECF2FEF80E792E0215098
S113032080409040E1F700C0000031C0B29917C08E
S113033089E0ACDE2FE78AE196E0215080409040CE
S1130340E1F700C00000B29BFECF2FEF80E792E000
S1130350215080409040E1F700C0000018C0B399DC
S113036016C08CE093DE2FE78AE196E021508040AE
S11303709040E1F700C00000B39BFECF2FEF80E771
S113038092E0215080409040E1F700C00000C8BBDB
S113039022E02A95F1F700C0B09917C08DE076DE0F
S11303A08FE79AE126E0815090402040E1F700C0B9
S11303B00000B09BFECF8FEF90E722E08150904089
S11303C02040E1F700C000009FCEB19917C08EE035
S11303D05DDE8FE79AE126E0815090402040E1F70E
S11303E000C00000B19BFECF8FEF90E722E0815068
S11303F090402040E1F700C0000086CEB29917C0BB
S11304008FE044DE8FE79AE126E08150904020405F
S1130410E1F700C00000B29BFECF8FEF90E722E02F
S1130420815090402040E1F700C000006DCEB399A8
S11304306BCE80E12BDE8FE79AE126E0815090407D
S11304402040E1F700C00000B39BFECF8FEF90E7A0
S113045022E0815090402040E1F700C0000054CEDB
S1130460E89409C097FB3EF490958095709561954A
S11304707F4F8F4F9F4F9923A9F0F92F96E9BB2700
S11304809395F695879577956795B795F111F8CF7C
S1130490FAF4BB0F11F460FF1BC06F5F7F4F8F4FE7
S11304A09F4F16C0882311F096E911C0772321F0DD
S11304B09EE8872F762F05C0662371F096E8862F75
S11304C070E060E02AF09A95660F771F881FDAF7CC
S11304D0880F9695879597F9089541D0A8F19E576E
S11304E0A8F1985160F039F1983070F5092E9927E8
S11304F0660F771F881F991F0A94D1F71CC0BB276A
S1130500993F4CF4B111B1E0B62B672F782F8827AF
S1130510985FB1F708C0869577956795B79508F405
S1130520B1609395C1F7BB0F30F411F460FF03C0C1
S11305306F5F7F4F8F4F3EF49095809570956195D6
S11305407F4F8F4F9F4F0895689424C022C057FD5A
S11305509058440F551F59F05F3F71F04795880F2D
S113056097FB991F61F09F3F79F0879508951216C4
S113057013061406551FF2CF4695F1DF08C0161670
S113058017061806991FF1CF869571056105089421
S11305900895E894BB2766277727CB0197F9089538
S11305A0A1E21A2EAA1BBB1BFD010DC0AA1FBB1F73
S11305B0EE1FFF1FA217B307E407F50720F0A21BE5
S11305C0B30BE40BF50B661F771F881F991F1A9452
S11305D069F760957095809590959B01AC01BD017C
S10B05E0CF010895F894FFCF48
S9030000FC
