S01000006669726D776172652E73726563B7
S11300000C94E7110C94CD180C9404120C94041263
S11300100C9404120C9404120C9404120C94F21810
S11300200C9404120C9404120C9404120C940412F4
S11300300C9404120C9404120C9404120C940412E4
S11300400C9404120C9404120C9404120C940412D4
S11300500C940412000000000000000000000000E6
S1130060000000000000000000000000000000008C
S1130070000000000000000007000F800F800F80C8
S11300800F800F8007000700000000000700070032
S11300900700000000000E380E380E380E38063007
S11300A0000000000000000000000000000000004C
S11300B00000000000000C300C300C307FFE7FFE8E
S11300C00C300C300C300C307FFE7FFE0C300C30CA
S11300D00C3000000000024002400FF81FF81A40E4
S11300E01A401FF00FF8025802581FF81FF0024080
S11300F0024000000000000000000E100E300E70E0
S113010000E001C0038007000E700C70087000004E
S113011000000000000000000F0019801980198001
S11301200F000F080F9819F818F018E019F00F983D
S113013000000000000000000700070007000E0098
S113014000000000000000000000000000000000AB
S1130150000000000000000000F001C00380070060
S11301600E000E000E000E000700038001C000F018
S113017000000000000000000F00038001C000E048
S1130180007000700070007000E001C003800F0078
S1130190000000000000000001801188099007E0C1
S11301A007E03FFC3FFC07E007E00990118801806D
S11301B00000000000000000000000000180018039
S11301C001800FF00FF00180018001800000000029
S11301D0000000000000000000000000000000001B
S11301E000000000000000000000070007000700F6
S11301F00E000000000000000000000000000000ED
S113020000001FF81FF800000000000000000000BC
S113021000000000000000000000000000000000DA
S113022000000000000000000000070007000700B5
S1130230000000000000000000020006000E001C88
S11302400038007000E001C0038007000E001C00AD
S113025000000000000000000FF01C381C781CF89F
S11302601CF81DB81DB81F381F381E381C380FF075
S113027000000000000000000180018003801F8056
S11302801F800380038003800380038003801FF0AA
S113029000000000000000000FE01C701C38003853
S11302A0007000E001C0038007000E381C381FF8FE
S11302B000000000000000000FE01C701C38003833
S11302C0007003C003C0007000381C381C700FE0BD
S11302D0000000000000000000E001E003E006E090
S11302E00CE018E01FF81FF800E000E000E003F85D
S11302F000000000000000001FF81C001C001C008F
S11303001C001FE01FF0007800381C381C700FE040
S1130310000000000000000003E007000E001C00C5
S11303201C001FF01FF81C381C381C381C380FF038
S113033000000000000000001FFC1C1C1C1C1C1CF6
S1130340001C0038007000E001C0038003800380BB
S113035000000000000000000FF01C381C381C389E
S11303601F3807E007E01CF81C381C381C380FF055
S113037000000000000000000FF01C381C381C387E
S11303801C381FF80FF800380038007000E007C070
S11303900000000000000000000000000380038053
S11303A0038000000000038003800380000000003D
S11303B00000000000000000000000000380038033
S11303C00380000000000380038003800700000016
S11303D0000000000000007000E001C0038007007E
S11303E00E001C001C000E000700038001C000E08A
S11303F000700000000000000000000000003FFC4E
S11304003FFC000000003FFC3FFC00000000000037
S11304100000000000001C000E000700038001C063
S113042000E00070007000E001C0038007000E00CF
S11304301C000000000003C00FF01E7818380038BC
S1130440007000E001C001C00000000001C001C054
S113045001C0000000000FF81C1C1C1C1C1C1C1CF0
S11304601CFC1CFC1CFC1CFC1C001C001C001FF0C5
S113047007F800000000000003C007E00E701C38FD
S11304801C381C381C381FF81C381C381C381C3805
S113049000000000000000001FF00E380E380E3877
S11304A00E380FF00FF00E380E380E380E381FF0DD
S11304B0000000000000000007F00E381C381C008B
S11304C01C001C001C001C001C001C380E3807F00B
S11304D000000000000000001FE00E700E380E380F
S11304E00E380E380E380E380E380E380E701FE0E7
S11304F000000000000000001FF80E180E080E0097
S11305000E300FF00FF00E300E000E080E181FF80C
S113051000000000000000001FF80E180E080E0076
S11305200E300FF00FF00E300E000E000E001F0004
S1130530000000000000000007F00E381C381C38D2
S11305401C001C001C001CF81C381C380E3807F852
S113055000000000000000001C701C701C701C7067
S11305601C701FF01FF01C701C701C701C701C7021
S113057000000000000000000FE0038003800380FF
S113058003800380038003800380038003800FE0E3
S1130590000000000000000001FC0070007000700A
S11305A000700070007038703870387038700FE068
S11305B000000000000000001E380E380E700EE02F
S11305C00FC00F800F800FC00EE00E700E381E3863
S11305D000000000000000001F000E000E000E00CE
S11305E00E000E000E000E000E080E180E381FF836
S11305F000000000000000001C1C1E3C1F7C1FFCAF
S11306001FFC1DDC1C9C1C1C1C1C1C1C1C1C1C1C02
S113061000000000000000001C1C1C1C1E1C1F1CF1
S11306201F9C1DDC1CFC1C7C1C3C1C1C1C1C1C1C62
S1130630000000000000000003E007F00E381C1C5E
S11306401C1C1C1C1C1C1C1C1C1C0E3807F003E06E
S113065000000000000000001FF00E380E380E38B5
S11306600E380FF00FF00E000E000E000E001F00EB
S1130670000000000000000003E00F780E381C1C8E
S11306801C1C1C1C1C1C1C7C1CFC0FF80FF80038C8
S113069000FC0000000000001FF00E380E380E3879
S11306A00E380FF00FF00E700E380E380E381E385C
S11306B000000000000000000FF01C381C381C383B
S11306C01C000FE007F000381C381C381C380FF0F1
S11306D000000000000000001FFC19CC11C401C080
S11306E001C001C001C001C001C001C001C007F0C8
S11306F000000000000000001C701C701C701C70C6
S11307001C701C701C701C701C701C701C700FE022
S113071000000000000000001C701C701C701C70A5
S11307201C701C701C701C701C700EE007C00380D1
S113073000000000000000001C1C1C1C1C1C1C1CD5
S11307401C1C1C9C1C9C1C9C0FF80FF80770077049
S113075000000000000000001C701C701C700EE003
S113076007C00380038007C00EE01C701C701C705F
S113077000000000000000001C701C701C701C7045
S11307801C700EE007C003800380038003800FE029
S113079000000000000000001FF81C38183810701A
S11307A000E001C0038007000E081C181C381FF865
S11307B0000000000000000007F007000700070029
S11307C0070007000700070007000700070007F0FD
S11307D00000000000000000100018001C000E00C3
S11307E00700038001C000E000700038001C00070F
S11307F0000000000000000007F0007000700070AE
S1130800007000700070007000700070007007F0DD
S1130810000000000000018003C007E00E701C38D7
S113082000000000000000000000000000000000C4
S113083000000000000000000000000000000000B4
S113084000000000000000000000000000000000A4
S11308507FFF7FFF000000001C001C000700070052
S11308600000000000000000000000000000000084
S11308700000000000000000000000000000000074
S11308800FE0007000700FF01C701C701C700FD80B
S113089000000000000000001E000E000E000E000C
S11308A00FF00E380E380E380E380E380E381BF096
S11308B00000000000000000000000000000000034
S11308C00FE01C701C701C001C001C701C700FE0DE
S11308D0000000000000000000F8007000700070CC
S11308E00FF01C701C701C701C701C701C700FD8D6
S11308F000000000000000000000000000000000F4
S11309000FE01C701C701FF01C001C701C700FE0AA
S1130910000000000000000003E0077007700700FB
S113092007001FE01FE007000700070007001FC0C3
S113093000000000000000000000000000000000B3
S11309400FD81C701C701C701C700FF007F0007026
S11309501C700FE0000000001E000E000E000E00D0
S11309600EF00F380F380E380E380E380E381E3889
S1130970000000000000000001C001C001C0000030
S11309800FC001C001C001C001C001C001C00FF807
S11309900000000000000000007000700070000003
S11309A003F00070007000700070007000701C7024
S11309B00CF007E0000000001E000E000E000E0008
S11309C00E380E700EE00FC00EE00E700E381E389A
S11309D000000000000000000FC001C001C001C001
S11309E001C001C001C001C001C001C001C00FF8B5
S11309F000000000000000000000000000000000F3
S1130A001FF81C9C1C9C1C9C1C9C1C9C1C9C1C9CC3
S1130A1000000000000000000000000000000000D2
S1130A201FE01C701C701C701C701C701C701C70EF
S1130A3000000000000000000000000000000000B2
S1130A400FE01C701C701C701C701C701C700FE07C
S1130A500000000000000000000000000000000092
S1130A601BF00E380E380E380E380E380FF00E000C
S1130A700E001F0000000000000000000000000045
S1130A801FB038E038E038E038E038E01FE000E03C
S1130A9000E001F000000000000000000000000081
S1130AA01EF00FF80F380E000E000E000E001F008F
S1130AB00000000000000000000000000000000032
S1130AC00FE01C301C300F8003E0187018700FE02A
S1130AD00000000000000000000001000300070007
S1130AE01FF007000700070007000770077003E006
S1130AF000000000000000000000000000000000F2
S1130B001C701C701C701C701C701C701C700FD826
S1130B1000000000000000000000000000000000D1
S1130B201C701C701C701C701C700EE007C00380CD
S1130B3000000000000000000000000000000000B1
S1130B401C1C1C1C1C1C1C9C1C9C0FF80770077094
S1130B500000000000000000000000000000000091
S1130B601CE01CE00FC0078007800FC01CE01CE0E5
S1130B700000000000000000000000000000000071
S1130B800E380E380E380E380E3807F003E000E049
S1130B9001C01F80000000000000000000000000F1
S1130BA01FE018E011C0038007000E201C601FE046
S1130BB0000000000000000001F8038003800380AF
S1130BC007001C001C00070003800380038001F859
S1130BD000000000000001C001C001C001C001C04C
S1130BE001C001C001C001C001C001C001C001C0F9
S1130BF001C00000000000001F8001C001C001C04E
S1130C0000E00038003800E001C001C001C01F80CE
S1130C1000000000000000001F1C3B9C39DC38F879
S1130C2000000000000000000000000000000000C0
S1130C300000000000000000000000003078783060
S1130C40300030006C6C6C00000000006C6CFE6CBA
S1130C50FE6C6C00183E603C067C18000063660C59
S1130C60183363001C361C3B6E663B00303060005A
S1130C70000000000C18303030180C0030180C0C38
S1130C800C18300000663CFF3C660000003030FC6D
S1130C903030000000000000001818300000007E12
S1130CA000000000000000000018180003060C18E3
S1130CB0306040003E63636B63633E00183858182D
S1130CC018187E003C66061C30667E003C66061CD6
S1130CD006663C000E1E36667F060F007E607C06AC
S1130CE006663C001C30607C66663C007E66060C32
S1130CF0181818003C66663C66663C003C66663E16
S1130D00060C380000181800001818000018180005
S1130D10001818300C18306030180C0000007E00E9
S1130D20007E000030180C060C1830003C66060CDF
S1130D30180018003E636F696F603E00183C6666D9
S1130D407E6666007E33333E33337E001E3360603E
S1130D5060331E007C36333333367C007F31343CC1
S1130D6034317F007F31343C343078001E3360608E
S1130D7067331F006666667E666666003C18181850
S1130D8018183C000F06060666663C007333363CB2
S1130D90363373007830303031337F0063777F7FB0
S1130DA06B63630063737B6F676363003E636363BA
S1130DB063633E007E33333E303078003C666666C3
S1130DC06E3C0E007E33333E363373003C6630187F
S1130DD00C663C007E5A181818183C006666666655
S1130DE066667E0066666666663C18006363636BCF
S1130DF07F7763006363361C1C3663006666663C5B
S1130E0018183C007F63460C19337F003C303030A7
S1130E1030303C006030180C060301003C0C0C0C14
S1130E200C0C3C00081C36630000000000000000AD
S1130E30000000FF18180C000000000000003C0631
S1130E403E663B0070303E3333336E0000003C6638
S1130E5060663C000E063E6666663B0000003C662B
S1130E607E603C001C3630783030780000003B66F1
S1130E70663E067C7030363B3333730018003818F6
S1130E8018183C00060006060666663C70303336C9
S1130E903C3673003818181818183C000000667F98
S1130EA07F6B630000007C666666660000003C663B
S1130EB066663C0000006E33333E307800003B66CB
S1130EC0663E060F00006E3B3330780000003E6043
S1130ED03C067C0008183E18181A0C0000006666D0
S1130EE066663B0000006666663C18000000636BA3
S1130EF07F7F3600000063361C36630000006666A0
S1130F00663E067C00007E4C18327E000E18187077
S1130F1018180E000C0C0C000C0C0C007018180E99
S1130F20181870003B6E0000000000001C36361CD0
S1130F3000000000609090600000000022777F7F36
S1130F403E1C0800FEFFDFFFDFFFFFFFFFFFFFFF88
S1130F50DFFFFFFFFFF7FFF7FFFFDFFFFFFFFFF7F5
S1130F60FFEFFFEFDEFF9EFF7EFF1DFF97FD11F4F5
S1130F700CD349BAC6A1E7A107A269B24DCB72F45A
S1130F80F8FD1DFF5FFF9EFFFFFFFFE7FFE7FFF791
S1130F90BEFFBDFFDFFFFFF7FFF7FFF7FFFFFFFF18
S1130FA0FFFFDFFFFFFFFFFFDFFFFFFFFFFFFFFF8D
S1130FB0FFFFFFFFFFFFFFFFDFFFFFFFFFF7FFF76D
S1130FC0FFFF9EFF9FFF7FFF9EFFD7D551ACCFA3AE
S1130FD0EFB351CCF3EC55FDB7FDD7FD96FD35FDD0
S1130FE0D4EC51CCAEB38EA372AC18D6DFFFBEFFE7
S1130FF09DFFFFFFFFF7FFF7DFFFFFFFFEFFFEFF91
S1131000FEFFFFFFFFFFFFFFFFFFFFFFDFFFFFFF0D
S1131010FFF7FEFFFFFFFFFFFFFFFFFFDFFFDFFF25
S1131020FFFFFFF7FFFF9FFF5BFED1E38F9B31AC18
S1131030F8DD7DFF9EFF7DFF1CFF9AFEB7FD56FD88
S1131040B8FD9BFE3DFF7DFF7DFF5DFFD6D5EF9B89
S11310504E9B71DCDAFE9DFFFFF7FFE7FFF7DEFF33
S1131060DDFFFFFFFFFFFFFFFFFFFFFFFFFFFFFFAE
S1131070DFFFFFFFFEF7FFF7FFF7FFFFDEFFFFFFD6
S1131080FFF7FFFFBFFFBEFF5DFFB2AC6DA3B2EC85
S11310903DFF3CFF59FE92EC2CCB08B245A9A3A816
S11310A0A3B0A3B083A8C3A066A908B24DD3D3FC50
S11310B0FAFE3CFFFCFE72DC4D9BF3BC9EFFFFFF7F
S11310C0FFFFDEFFFFFFDFFFBFF7FFF7FFFFFEFFBE
S11310D0FFFFFFFFFFFFFFFFFFFFFFEFFFF7FEFF35
S11310E0DDFFFEFFFFF7FFFF7FFF15ED4C9B12BDF9
S11310F0DCFF9BFF0FFC07DA82B861C021C801D076
S113110021D020D020D020C841D061D041C841C0D6
S113111041C020C082B8E7E152FC5DFFBFFFB2B41A
S11311200BA3B5FDBDFFFFFFFFFFFFFFFFFFFFF7B1
S1131130FFFFFDFFFFFFFFFFFFFFFFFFFFFFFFFFBD
S1131140FEFFFEFFFFFFFFFFDFFF5EFF32BC6EAB63
S1131150BAFE5BFF90ECC59920C820D000D800E807
S113116000F000F000E800E800E020E800E000E023
S113117000E800E800E800E800E042E062B8A7A95F
S113118014ED5CFF57FE0BB351C4BFFFDFFFDFFF5D
S1131190FFFFFFFFFEFFFEFFFFFFFFFFDFFFFFFF7D
S11311A0FFFFDEFFFDFFFFFFFFF7BFFF1CFF0BB3D9
S11311B092CC7EFF76FD86D921D022D000E000E0DB
S11311C000E800E800E000E800E800E000E800E0F3
S11311D000E000E800E800E800E800E801F000D0E2
S11311E041D041D040C028D238FE5DFF11C48FB336
S11311F07FFFDFFFDEFFFEFFDEFFFFFFFFFFFFFFDE
S1131200DFFFDFFFDFFFFFFFFEFFFFFF9FFFFDFEAE
S1131210ECAA13F55CFF10E483A821D800F001F0D8
S113122000E800E000D820D820D000D800D800E0A2
S113123000E000E800E000D800E000E000D800E0B2
S113124001E022E000E000F000F021D0A49894EC4A
S11312501EFF72E44CABBDFFFEFFFFFFFFFFFFFF6D
S1131260FFFFFFFFFFFFDFFFDFFFFFF7FFF79EFF3B
S1131270DCFEECAA95E57CFFCADA21C821D801D0AE
S113128001E000F000E000E000D820D820D800D829
S113129000E000E000E000E000E000D800D820D842
S11312A000D800D801E000E000E000E800F000E829
S11312B002D864B84EEB1CFF12E56C9BDFFFFFFF06
S11312C0FFFFDEFFFFFFDFFFFFFFFFFFFEFFFFF774
S11312D0DFFF5EFF0CB353ED9DFFAAB221C000F007
S11312E000F041D041C840D800E000E000E000E058
S11312F000E000E000E000E000E000E000E000E0EA
S113130000E000E000D800D800E000E000E000D8F1
S113131001D800E800F000F062C0EBD25CFFD3DC3F
S11313208EA39FFFFFFFFFFFFFFFFFFFFFFFFFEF06
S1131330FFEFDFFF5FFFF2CBD2CC7BFFEACA21C015
S113134041E800E800E000E020D840D000D800E008
S113135000E000E800E800E000E000E000E000E079
S113136000E000E000E000E000D820D800E000E069
S113137000E021D821D000E000F000F000E083B8C4
S11313804DD33DFF10CCD2D4DEFFFFEFDFFFFFFFD4
S1131390DFFFFFEFFFF7BEFFF5F44EB39EFFEFDB79
S11313A041C800F000E820D040D800E800F000E890
S11313B000E000E000E000E000E000E000D800D839
S11313C000D800D800E000E000E000E000E000E029
S11313D020D820D801D800E000E020D820D800E0B0
S11313E000E800D863B831FC1CFF0BA338EEDFFF24
S11313F0FFFFFFFFFFFFFFFFBFFF5DFF6C931BFFBE
S1131400D4FC43B801E000E800E840E000D800E87C
S113141000F000E800E800E800E000E000E000E0A0
S113142000E000E000E000D800D800D800E000E0D0
S113143000E800E820D800D800E000E000E020D870
S113144020D020D000E000E800E062B075FD99FEF5
S11314502D9B3DFFDFFFDFFFFFF79FFF5FFFB2B470
S1131460B4BD5BFFA3D001F001E021D000E000E8AF
S113147000E840D800D001E800E800E800E000E01F
S113148000E000E000E000E000E000E000D820D848
S113149000E000E000E800F000D800E000E000E038
S11314A001D800E000E020D820D800E800E821D0EE
S11314B009BA3DFF31CCB2FCFFFFDFFFFFF79FFF0E
S11314C07BFE6D9BDCFFADDB00D001F801E040C882
S11314D000E000F800F020D020D000D800E000E0C8
S11314E000E000E000E000E000E000E000E000E0F8
S11314F000E000E000E000E000E000E000E000E0E8
S113150000E000E001E001E000E000E000D800E0DD
S113151000E021D842B811FCFCFE4CA39EF7FFFF6B
S1131520FFFF9FFF72D413EDB9FEC29842C801E8D1
S113153000E800E000E000F000E801E000D800D896
S113154001D801D801D800E000E000E000E000E0AC
S113155000E000E000E800E800E000E020D820D04F
S113156000E000E000E000F000F001E801D800E055
S113157000E800E041D800D000E0C3D81CFFF3A489
S113158096B5DFFFDEFFBDFFAD933CFF0DF322C830
S113159021D820D820D800E001E001E000E000E0FC
S11315A000E003E803D800D820D840E000D800D8F1
S11315B021E001E003E803E001D820D840E020E086
S11315C000D840D060C022D802E000E060D800D04B
S11315D002E001F000F000E001E801E800E840C0AA
S11315E071F4FFFE2EBB7EFF9EFF38D692AC1CFF2B
S11315F003D100E000E800E800E001F000E000D8DA
S113160020D020D800E800F000E820E800D800E06E
S113161000F800F000D821D801D800E800F000E07C
S113162000D800E000E000E800E000D802E000E0BC
S113163000E000E801E802E800E000D800E000E88B
S113164000E820D0E8B95FFF8FC3D8FD5DFFB3ACDD
S113165019DE15FD20C800F800F001E001E000E803
S113166000E840D840D800D800E800E800E800D8F6
S113167021D801E000E000E020D060D020D800E0D4
S113168000E820F000E800E000E800E800F000E0F6
S113169021E000E000F000F000E001D801D820D8FB
S11316A000D020E000E002D883A8D7FD14ED92E436
S11316B05DFFAF9B7FFF2ECB41C000E001D802C08D
S11316C042C841D800D800D801E801E820D860C851
S11316D040D0A6F129EA09D249CA29CA49E2A5F1AA
S11316E0C1F040D840C820D000E000F000E042D073
S11316F020D000D800E000E000D060D840D800D866
S113170001D841D820D020D800E002E082C08CFB70
S1131710B9FEAEC317FECFB37EFFE8B122C042D8F4
S113172022B8E9D1A7C1E3C041C822D801D802D068
S113173066D945B141C0A7E908D2DBFEBFFF9EFFD1
S113174051FC85F9A1F060C0C2A886C942C801D085
S113175042C8E4B8039960B800D800D862C0E3C8AE
S113176040D000E000E001D840D800D800E800E014
S113177020C8E6F1BCFFCEBB91F471DC9BFEA3A8AC
S113178042D826F911FC6ABA92F4F8FD52FC05C15C
S113179087C155FD93FC90EB08FA00C8A3B019FE6D
S11317A0FFEFFFFFEBCA21C861D0C7D176FD52F429
S11317B036FDABD2A3A893FCB9FE17FEEBFA62C0C8
S11317C00DFBCCFA00D800E000D820D000D800E807
S11317D000E800E000D0C2E8DDFF50C40ACB13FDEE
S11317E076FD61B000D8C2E8C7D1A7916EB33DFFC2
S11317F0FCFE4DBB33DD9CFF59FE2AA240D000E025
S113180021C0D8FDFFF7BEFFCBDA41C004B9BCFE4E
S1131810DCFE0992D7ED5EFF87B147F97EFF9EFF9C
S11318205DFF8EDB4EFB01C800E020E020D820D80D
S113183000D801E800E000E020E000D8FBFEF4D48A
S113184089B214FDD3FC81B860B84CFB78FE34F542
S113185051C49EFF9EFF0FACEDAB9CFFBDFFFCFE91
S113186024D100D841D0D7FDFFF7BFFFAAE261B869
S1131870EBD27EFF5EFF8FBB19FE7EFF2DEB00E0F7
S1131880F0BBFFFFFFEF9DFFC29841C821D800D8ED
S113189000E000E820E021D001D800E800E000D812
S11318A018FE56ED0892D7FD51FC82A8C7B15CFF23
S11318B09DFF0EBC27829EFF9EFFF0BB0391F2FCAE
S11318C09EFFFFE7D5FC62C082C0B7FDFFEFDFFFDC
S11318D0AADA61C08AD27EFF5EFF6EC3C8A908C2BD
S11318E0A5C960C8CCD2FCFEFFE7FEFF90E4C2A805
S11318F083C064E000E800E042C8C4C042D000E80D
S113190000E820D076F597F50992F8FD10FCA3B015
S113191046A91DFF7DFFD2DCADCB3DFF3DFFF1FBB2
S113192025D925D9B6FDDFF757FD62B841B079FE58
S1131930BFFF9EFFEBEA00D042C097FD5DFF08AAFF
S113194063B8D0FB64E1E8FAACFA46A13DFFBDFF01
S11319505BFF0BDB46C132FCC5D863B84FFB8FFB82
S113196041D000F000E820D076F596F5089AD8FD2D
S113197032FC63B062C008DA14FDD3FC8FFB32FC86
S113198032FCABFA86E92CFBCEFBF3FC46D941C012
S113199082C8CFFBB3FCB2FCE7E900E000E0E5D08D
S11319A051FCCFFB0DFB87F9E3D84BFB00F002C8D9
S11319B02AD2B3FCD3FC52FC67C192FC10FC72F433
S11319C0D4FC4FFB00D000F000E800D0D6F5D6F5EB
S11319D0A9B276FDF5FC83B000C840D020B0C4B0F5
S11319E0A4B863C062C061B8A2A8C2A882B061B83A
S11319F040D041D021C821C841C841C061C820D0CD
S1131A0021E021D041B8C3A8A3B062B842C041B814
S1131A1000E801D063C063B042A862B024B950FCAE
S1131A204FE46DBBB3F44EFB20C060E020D800C887
S1131A3037F675DD4BC3F3F498FDC390C2B860B8B4
S1131A4082B863B062A882B081B0C1A8A1A0C2A8C4
S1131A50C3B062B081B840B062C062C062C041B07D
S1131A6061B081B860B061B0A3B862A8A3A0C3A8F4
S1131A7083B064B880B861B042B0A3B881A8C1B0E3
S1131A80A1A8A1A0C2900391E290C3A0C3B082B860
S1131A9021B083C03BFFF3CCB1EC71D43DFF92E4A1
S1131AA050FCEFFBF0FBF0FB10FC0FFC2EFC0FFCDA
S1131AB0EFFBAFFB11FC32FC10FC10FC10FCCFFB65
S1131AC011FC31FC10FC2FFC2FFCEFFB31FC11FC52
S1131AD0F0FBCEFBF0FBF1FB4EFC30FC31FCCFFB0A
S1131AE02FFC2DFCEDFBCEFBAFFB0FFCEEFBEEFB66
S1131AF0F0FB10FC10FC10FC9DFF10BC37FECEB3B5
S1131B007EFFB3DC2CEB2DFB0DFB2DFB4DFB2BFBE8
S1131B104BFB2CFB0DFBEDFA0DFB4EFB4DFB0CFBC5
S1131B204DFB4DFB4EFB4EFB4DFBEBFA2DFB2DFB12
S1131B302DFBCCFA2DFB2CFB2CFB4CFB4CFB2DFB87
S1131B400CFB4DFB2CFB2CFB2DFBECFAECFA0CFBF9
S1131B502CFB2DFB4DFB4DFB0CEB92FC7CFF8EBB59
S1131B601BFFAEA39EFF2DB362C000D821D083B06B
S1131B70A3A881B861C041B863C023C042C841C0B2
S1131B8020C081C041B863B842C041C041C063C0F5
S1131B9043C043C021C061B842B842B861B860B81C
S1131BA022C842C062C062B842C044C044C062B0ED
S1131BB0A2B0A2B043B823C042C081B8C2A08EEB89
S1131BC0DAFE8EC37EFFB2B4F5DD74FD42B803D0F5
S1131BD066D843C862C804C905A988A946B1C3A088
S1131BE007B2CEC3E4A825B9A3A866B96ADA05B9D1
S1131BF0A3B025B966B9AEF365A98EEBECDA25A1DD
S1131C0006A906B907B9A4A0A7C1CCEA27B9C59803
S1131C10A7A14EDBC59826B105A9C7C1CCE2A4A0F3
S1131C20A29816FEB4FC72ECBEFF17CE50AC1CFF9B
S1131C30A4C847F933FC05C1C6C991FC10FCB0FB2C
S1131C40B0FBD0FB51FC30FCAEFBCFFBAFFB0CFB7D
S1131C5072FC45C9A8E111FC11FC4DFBA3A092FC48
S1131C6031FCF0FBAFFBD0FBF0FBD0FBAFF3AFFBE1
S1131C70D0FB11FCD0FB51FC10FC2DFB51FC2EFBC6
S1131C8073FCABE228AA5BFF8EBB38FEFEFFDFFFCE
S1131C908FA39CFE2EFBE4D08AFAC3B849D2EFFB93
S1131CA007E286E9A7F1C8E929F229EAE7E16AFA35
S1131CB0C7F166E1A7E9E4D8A4D829FAE8E9A7D9E5
S1131CC082B86AFAE8E169EA49EA29F2A9E271FC10
S1131CD052FC6ADA28EA48F2E8E928EA07EAC6D9AF
S1131CE028EAE9F14AFAA7C9B2E41BF7CF9BBEFF81
S1131CF0FFEFBFFF52D4B5E41DFFC39860D021D0DD
S1131D0005D145C940C020E020D842C001C000D858
S1131D1040C821D021D800D021D001D821D801D069
S1131D2021D062D021D021D041D041C841C820C89F
S1131D3081B044D146D942C062C861C840C840D0CD
S1131D4060D800C841C842C842C025B13DFF72AC4A
S1131D50B6C5FFFFFFEF9FFFDCFE2D9BBEFF10DC2F
S1131D6020C000F001E802D020D800E000D842D022
S1131D7021D800E841D800D000E021E801E000E0EB
S1131D8000E000E000D800D800E000E800E000D85F
S1131D9000E020E061C820D000E800E001D820D0B5
S1131DA020D820D800D820E000D841D082A892FCC6
S1131DB0DCFE2EB3BFFFFFFFDFFFBFFF9EFFF3CCB0
S1131DC0D2C45DFF66C101E000F000F000E000D87D
S1131DD020D800D800E000E041D800D800E000D8C6
S1131DE000E000E000E800E000E000E000E800F0CF
S1131DF000E800E820E000D820D000E000E800E897
S1131E0000E000E800E000D820D820E800E820D076
S1131E1049BA5DFFF0BBB4FCDFFFDFFFFFFFFFFF4C
S1131E20DFFF7CFF0AAB79FE56FDA3A800E000F8B3
S1131E3000E801D040D820E800E801E021D800D82B
S1131E4001E000E000D800E020E000E000D800E07D
S1131E5000E800E000E800D800D821D800D800E06D
S1131E6000E000E000E800E800E001D820D800E04D
S1131E7000E862C038FE58E68D935DFFBFFFDFFFC8
S1131E80FDFFFFEFFFF7DEFFB5F52BAB7DFF51E460
S1131E9081B000E000F001E000D020D800E001E0D3
S1131EA000E000E800E000E020E000D820D820D8DE
S1131EB020D820E000D800E000E000E000D821D8DD
S1131EC000E001E020D800D800E000E001E001E8F3
S1131ED000E800D862C0B2FC3CFF4B9399F6BFFF08
S1131EE0FFFFFFFFFEFFFFFFFFF7FFF7FEFFB2C498
S1131EF02FC43CFF2CDB62C000E000F000E020D8DF
S1131F0021E000E000F000E800E000E000D820D884
S1131F1000D820D800D800D800E000E000E000E0BD
S1131F2000E000E001D800E000E000E800E021D09B
S1131F3021E000F000F022C0F0EB5DFFCEBBB2E484
S1131F409EFFFFFFFFFFFFFFFFFFDEFFFFFFFFF727
S1131F50FFF7BEFFEEB391E41DFFACD282B820D8E8
S1131F6000E800E800E000E000E800E800E040E00D
S1131F7020D820D800D800E000D800E000E000E03D
S1131F8000E000E000E800E820D021E800E800E8F4
S1131F9000E000D800E000D842C06EEB3DFF71C401
S1131FA0EFBB7EFFBFFFFFF7FFFFFFFFDFFFFFFF7A
S1131FB0FFFFFFFFDFFFDFFF9EFF6DA3D4EC1DFFDC
S1131FC08EE361A841E000F000F001E000E020E0D1
S1131FD020D800D000D000E000E000E001E801E8F3
S1131FE000E000D800D800E000E000E040D800E0C5
S1131FF000F000E020E000E020E062B031E47DFF8A
S1132000B2DC4DBB9FFFFFFFFFF7FEFFFFFFFFFFAB
S1132010DFFFBFFFFFFFBFFF9FFFDFFFFFFF9EFF4D
S11320206DA3B2E43CFFD2FCC2B041D000D801D8C9
S113203000E800E000E000E000E800E800E001E87B
S113204001E800E000E020D820E000E000E000E04B
S113205000E800F000E820D880D020C8A3C015FD17
S11320609EFF91B46EB35EFFBFFFFFE7FFEFFDFF7E
S1132070FFFFFFFFFFF7FFFFDFFF9FFFDFFFFFFF14
S1132080DFF7FFFFBFFF8EABAECB3CFF79FEAABAF2
S113209081A841D801F000E800E000E801E800E888
S11320A000E000E001E801E001E020D800D800E011
S11320B000E800E800F000E820E040C860A8CBD2C7
S11320C0FCFE1DFF8EB3EFB39FFFBFFFFFFFFFFFBB
S11320D0FEFFFFFFFFFFFFFFFFEFFFFFBFFFFFFF5D
S11320E0FFF7FFFFFFFFFFFFDFFF9EFF51DC0CB395
S11320F017EEBDFF33FDA6D102C801C022C802D825
S113210001E001E000D800D800E000E000D800D0F1
S113211000D801E001E000D803D021C840B827E28C
S113212034FD7EFF18DE2C9B92EC7EFFFFFFFFE761
S1132130FFFFBEFFBEFFFFFFFFFFFFFFFFF7DFFF55
S1132140DFFFFFFFFEF7FFF7FFFFFFFFFFFFDFFFEC
S11321509FFFD8ED6EA351C43CFF3CFF14FD4CD34C
S113216066A962A842C021C820D020D800E000E0BF
S113217000D841D041D022C842C862C046A10CCB8D
S113218075FDFCFE9BFED0BB8E9379EEBEFFBFFFB8
S1132190FFFFFFF7DEFFDFFFDFFFFFFFFFFFFFFFB4
S11321A0DEFFFFFFFFFFFFFFFEFFFEFFFFF7FEF76F
S11321B0FFFFFFFFFFF7DFFF3EFF72FCECAA92ACCC
S11321C03AF7DDFF7BFF34FD2CFBE7F144E9A1E0A6
S11321D020E000E041D8E3E045E1E8E96EFBD3FC10
S11321E09CFFBDFFBAEE32B40DB3F4FC3CFFDFFF3D
S11321F0FFEFFFF7FDFFDDFFFFFFFFF7FFEFFFFF3F
S1132200FFFFFFFFFFFFFFFFFFFFFFFFFFFFFFFFDA
S1132210FFFFFFFFFFFFFFFFFFFFFFFFFFFFFFFFCA
S11322207DFF55C56EB36EBBB3EC59FE5DFF9DFFDC
S11322309EFF9EFF3DFF7EFF7DFF9EFF9EFF7EFF74
S11322405DFF59FEB3E42DBB4EAB76D5DEFFFFFF39
S1132250FFFFFFFFFFFFFFFFFFFFFFFFFFFFFFFF8A
S1132260FFFFFFFFFFFFFFFFFFFFFFFFFFFFFFFF7A
S1132270FFFFFFFFFFFFFFFFFFFFFFFFFFFFFFFF6A
S1132280FFFFDFFFDFFF9EFF5DFFB7FD72DCAFC323
S11322908EAB30B4D3C475D596DDB7DDB6D576D55F
S11322A0D3C410BCCFBBAEB392E4F8FD5EFFBEFF57
S11322B0FFFFFFFFFFFFDFFFFFFFFFFFFFFFFFFF4A
S11322C0FFFFFFFFFFFFFFFFFFFFFFFF6E616E00D9
S11322D0696E660000407A10F35A00A0724E180925
S11322E00010A5D4E80000E87648170000E40B5479
S11322F0020000CA9A3B000000E1F5050000809648
S11323009800000040420F000000A0860100000079
S1132310102700000000E803000000006400000033
S113232000000A00000000000100000000002C76FC
S1132330D888DC674F0823DFC1DFAE59E1B1B79617
S1132340E5E3E453C63AE651997696E8E6C2842674
S1132350EB898C9B62ED407C6FFCEFBC9C9F40F250
S1132360BAA56FA5F490055A2AF75C936B6CF967CC
S11323706DC11BFCE0E40D47FEF520E6B500D0ED91
S1132380902E0300943577050080841E08000020F9
S11323904E0A000000C80C333333330F986E128397
S11323A01141EF8D2114893BE65516CFFEE6DB186B
S11323B0D1844B381BF77C1D901DA4BBE424203230
S11323C084725E228100C9F124ECA1E53D27112429
S11323D01FBECFE5D8E0DEBFCDBF13E0A0E6B0E07E
S11323E0E6E5FFE502C005900D92AC37B107D9F7D9
S11323F023E0ACE7B3E001C01D92A039B207E1F7D6
S11324000E9417190C94A92F0C94000085BB9C0101
S113241022273E7F3BBB90FF02C0C09A0895C0981C
S11324200895C29A95980E940612C198C19A089577
S1132430C29A959A0E940612C198C19A0895CF93A0
S1132440DF93EB010E941112CE010E941812DF915A
S1132450CF910895EF92FF920F931F93CF93DF9341
S11324608C01EB017901E0E0F0E0F42FBF01680F8B
S1132470791F84E490E00E941F12BE0185E490E07D
S11324800E941F12B70186E490E00E941F12B80157
S11324908EE490E00E941F12BE018FE490E00E943F
S11324A01F1282E290E00E941112DF91CF911F91DE
S11324B00F91FF90EF900895C29AC39A8FE097E22C
S11324C00197F1F700C00000C3988FE295E70197E8
S11324D0F1F700C00000C39A8FE295E70197F1F786
S11324E000C00000949861E070E080E090E00E94F9
S11324F01F1264EA78EA83E090E00E941F1260E011
S113250070E08CE090E00E941F126CE070E88DE0B7
S113251090E00E941F1260E07BE28EE090E00E9457
S11325201F1267EB70E08EE190E00E941F126FE3D0
S11325307BE281E090E00E941F1260E076E082E09E
S113254090E00E941F1260E070E080E190E00E9441
S11325501F1260E770E681E190E00E941F1260E0C4
S113256070E085E090E00E941F1260E070E086E079
S113257090E00E941F126CE17FEE86E190E00E94E1
S11325801F1263E070E087E190E00E941F1263E392
S113259072E087E090E00E941F1260E070E08BE040
S11325A090E00E941F1260E070E08FE090E00E94D3
S11325B01F1260E070E081E490E00E941F1260E06E
S11325C070E082E490E00E941F1260E070E088E412
S11325D090E00E941F126FE371E089E490E00E9492
S11325E01F1260E070E08AE490E00E941F1260E035
S11325F070E08BE490E00E941F1265E97FEE84E4B2
S113260090E00E941F1260E070E085E490E00E9478
S11326101F126FE371E086E490E00E941F1267E0EE
S113262077E080E390E00E941F1264E072E081E3AF
S113263090E00E941F1264E072E082E390E00E9446
S11326401F1262E075E083E390E00E941F1267E0CE
S113265075E084E390E00E941F1264E072E085E379
S113266090E00E941F1264E072E086E390E00E9412
S11326701F1262E075E087E390E00E941F1262E09F
S113268073E08AE390E00E941F1262E073E08BE340
S113269090E00E941F1260E070E083E290E00E94EC
S11326A01F1260E070E084E290E00E941F1260E07C
S11326B070E885E290E00E941F1260E070E08FE411
S11326C090E00E941F1260E070E08EE490E00E94AF
S11326D01F1282E290E00E941112949A0895CF93FF
S11326E0DF93EC0194982FE331E04FEE50E060E08B
S11326F070E080E090E00E942A12CE010E9418123D
S113270020E431E050EF40E00AC0C198C19A01973B
S11327100097D9F7215031092115310519F0852F7A
S1132720942FF3CF949ADF91CF910895AF92BF92F3
S1132730CF92DF92EF92FF920F931F93CF93DF9389
S11327406C017B01EA01590194980E942A12C80184
S11327500E941812AE14BF04A8F09C2D8D2D0CC03D
S1132760C198C19A3196CE17DF07D0F72FEFE21A3E
S1132770F20AAE14BF0430F0CC15DD05B8F3E92F2E
S1132780F82FEECF949ADF91CF911F910F91FF9084
S1132790EF90DF90CF90BF90AF900895CF93DF93E9
S11327A0EA0194989B01AC010E942A12CE010E9476
S11327B01812949ADF91CF910895EF92FF920F939C
S11327C01F93CF93DF93F82EE62E8A01E901681751
S11327D048F0AE01B8018F2D90E00E94CE13F3941F
S11327E0EF14B8F7DF91CF911F910F91FF90EF9005
S11327F00895CF92DF92EF92FF920F931F93CF939E
S1132800DF93EC018B0179016817790758F0C42E26
S1132810D12CA701BE01C6010E94CE1321960C172C
S11328201D07B8F7DF91CF911F910F91FF90EF90A3
S1132830DF90CF900895CF92DF92EF92FF920F93A3
S11328401F93CF93DF93C82EEB01D42E7901980107
S1132850AB016D2D0E94DD139801A7016D2D8C2D08
S11328600E94DD1398014C2DB701CE010E94F9138B
S113287098014D2DB701CE010E94F913DF91CF913C
S11328801F910F91FF90EF90DF90CF9008952F92BA
S11328903F924F925F926F927F928F929F92AF92EC
S11328A0BF92CF92DF92EF92FF920F931F93CF9339
S11328B0DF93CDB7DEB7AE970FB6F894DEBF0FBE89
S11328C0CDBF7AA769A75A012801283009F062C050
S11328D0082F10E0000F111F000F111F000F111F10
S11328E00C5C144F9A01AB01B501CA010E942A1273
S11328F0CE010996DE011196F80124912D930F5F04
S11329001F4FA817B907C1F7C50108969CA78BA745
S1132910FE0131961F01650189A59AA501969EA71E
S11329208DA7612C32C0C8010197F10120812223B7
S11329302CF4A201B6010E94CE130AC0A701B6016D
S11329400E94CE139501A801B501C8010E942A1264
S1132950F4018081880F808373940F5F1F4FF8E028
S11329607F12E1CF8FEFC81AD80A960149A55AA55C
S1132970B601CA010E942A129FEF291A390AEBA54F
S1132980FCA5CE16DF0609F473C00DA51EA5762C92
S11329904101C9CF203109F06BC0F0E28F9F800163
S11329A011240C5A13409A0149A55AA5B501CA012C
S11329B00E942A129801205E3F4FDE011996F80109
S11329C084913196E49190E0982F88278E0F911D81
S11329D08D939D930E5F1F4F2017310781F7C5011B
S11329E040969CA78BA7FE0139963F01450189A516
S11329F09AA501969EA78DA7212C35C0C8010197E1
S1132A00F3012081318133232CF4A201B4010E940B
S1132A10CE130AC0A701B4010E94CE139501A801E8
S1132A20B501C8010E942A12F60180819181880FA4
S1132A30991F9183808333940F5F1F4FF0E13F12FE
S1132A40DDCF8FEF881A980A940149A55AA5B401DD
S1132A50CA010E942A1292E0690E711CEBA5FCA522
S1132A608E169F0629F00DA51EA5322C6301C6CF34
S1132A70AE960FB6F894DEBF0FBECDBFDF91CF91F7
S1132A801F910F91FF90EF90DF90CF90BF90AF9088
S1132A909F908F907F906F905F904F903F902F907A
S1132AA008952F923F924F925F926F927F928F92EE
S1132AB09F92AF92BF92CF92DF92EF92FF920F93C9
S1132AC01F93CF93DF93CDB7DEB76A970FB6F89411
S1132AD0DEBF0FBECDBF6B011A0128014701FC0107
S1132AE001900020E9F7AF01481B590BBA0162506D
S1132AF071095B0177230CF44CC0DC01FE013196B3
S1132B0040E050E08D9181934F5F5F4FA416B5066E
S1132B10CCF73CC0CE0101969A8F898F612C712C21
S1132B207401820128E0A101B601E98DFA8D819139
S1132B30FA8FE98F0E944714F8E0CF0ED11C6FEF93
S1132B40661A760AA614B7045CF725C0203119F575
S1132B50BB200CF1CE0101969A8F898F612C712CC8
S1132B607401820120E1A101B601E98DFA8D819100
S1132B70FA8FE98F0E944714FEE0CF0ED11C6FEF4D
S1132B80661A760AA614B7045CF705C02830F1F675
S1132B90C1CF2830D9F66A960FB6F894DEBF0FBEBF
S1132BA0CDBFDF91CF911F910F91FF90EF90DF90F8
S1132BB0CF90BF90AF909F908F907F906F905F90D9
S1132BC04F903F902F9008952F923F924F925F9293
S1132BD06F927F928F929F92AF92BF92CF92DF9229
S1132BE0EF92FF920F931F93CF93DF93CDB7DEB78E
S1132BF02B970FB6F894DEBF0FBECDBF3A01490143
S1132C001801EB862601FE0131962AE0DF011D92B0
S1132C102A95E9F76115710581059105C9F06E01E1
S1132C20BBE0CB0ED11C1AE0E12EF12C00E010E049
S1132C30A80197010E947A2DF60162936F01622F19
S1132C40732F842F952F611571058105910581F7E7
S1132C50FFEF6F167F0671F42981211111C0FE0167
S1132C603296C12CD12C2FEFC21AD20A21912223E1
S1132C70D1F308C02AE030E06901C618D70802C0C1
S1132C80C12CD12C9923ACF4750182012B85A101AF
S1132C90B4018DE20E9447148B85883021F498E0BA
S1132CA0890E911C06C0AB85A03119F4BEE08B0ED1
S1132CB0911CEAE0CE16D1042CF581E090E08C0F53
S1132CC09D1FC80ED91E3E019BE0690E711CD601E2
S1132CD08D916D01750182012B85A101B401805D87
S1132CE00E944714BB85B83021F4E8E08E0E911C95
S1132CF006C0FB85F03119F42EE0820E911CC61437
S1132D00D70429F72B960FB6F894DEBF0FBECDBFBC
S1132D10DF91CF911F910F91FF90EF90DF90CF90B3
S1132D20BF90AF909F908F907F906F905F904F90E7
S1132D303F902F9008952F923F924F925F926F92FF
S1132D407F928F929F92AF92BF92CF92DF92EF9237
S1132D50FF920F931F93CF93DF934C016B019498D1
S1132D603B01620E731E6615770550F55C01A40ED7
S1132D70B51E2A01440C551C282E392C1AC0960164
S1132D80AE01B601CE010E942A1282E0E80EF11CC7
S1132D90F701859194910E9418122196CA15DB05BA
S1132DA070F3040D151D8FEFC81AD80AC614D70482
S1132DB038F48A149B04B8F7C22DD32D7801DFCFE1
S1132DC0949ADF91CF911F910F91FF90EF90DF9034
S1132DD0CF90BF90AF909F908F907F906F905F90B7
S1132DE04F903F902F90089587B3806A87BB82E508
S1132DF08DB908958FB9779BFECF8FB10895CF9386
S1132E00DF93C4982AE12A95F1F700C080E90E9473
S1132E10FA163AE13A95F1F700C080E00E94FA16FA
S1132E20C82FD0E0DC2FCC2780E00E94FA169E0148
S1132E30280F311DC901C49A880F892F881F990B47
S1132E409195DF91CF910895CF93DF93C4988AE150
S1132E508A95F1F700C080ED0E94FA168AE18A95FE
S1132E60F1F700C080E00E94FA16C82FD0E0DC2FF2
S1132E70CC2780E00E94FA16C80FD11DC49ACE0157
S1132E80880F892F881F990B91959927DF91CF91EE
S1132E900895CF93DF93EC010E94FF1699838883F2
S1132EA00E9424179B838A8381E090E0DF91CF9175
S1132EB0089595E020E030E0862B87B94AE14A95F1
S1132EC0F1F700C0369A349BFECF349A44B155B121
S1132ED0240F351F915089F7C90165E070E00E9405
S1132EE0442DCB010895EF92FF920F931F930FEFA0
S1132EF01FEF27EB30E04CE350E065E870E08AE038
S1132F0090E00E949613EE24EA94FE2C00E010E078
S1132F1020E146E950E06BE170E080E690E00E9439
S1132F2051150FEF1FEF27EB30E045E750E065E860
S1132F3070E083E490E00E94961300E010E020E14A
S1132F4046E950E064E570E082E690E00E945115A5
S1132F500FEF1FEF27EB30E04EEA50E065E870E03A
S1132F608CE790E00E94961300E010E020E146E92F
S1132F7050E06DE870E084E690E00E9451150FEF98
S1132F801FEF27EB30E047EE50E065E870E085EB9B
S1132F9090E00E94961300E010E020E146E950E042
S1132FA066EC70E086E690E00E9451150FEF1FEF8B
S1132FB020EF30E04CE350E06EEB70E08AE090E00C
S1132FC00E94961300E010E020E14FEC50E06BE12A
S1132FD070E088E690E00E9451150FEF1FEF20EF9C
S1132FE030E045E750E06EEB70E083E490E00E944F
S1132FF0961300E010E020E14FEC50E064E570E04F
S11330008AE690E00E9451150FEF1FEF20EF30E0A9
S11330104EEA50E06EEB70E08CE790E00E9496136D
S113302000E010E020E14FEC50E06DE870E08CE649
S113303090E00E9451150FEF1FEF20EF30E047EEB4
S113304050E06EEB70E085EB90E00E94961300E098
S113305010E020E14FEC50E066EC70E08EE690E08A
S11330600E9451150FEF1FEF29E231E04CE350E0CD
S113307067EF70E08AE090E00E94961300E010E0B1
S113308020E148E051E06BE170E080E790E00E94CD
S113309051150FEF1FEF29E231E045E750E067EFEC
S11330A070E083E490E00E94961300E010E020E1D9
S11330B048E051E064E570E08BE593E00E9451152F
S11330C00FEF1FEF29E231E04EEA50E067EF70E0C6
S11330D08CE790E00E94961300E010E020E148E0C5
S11330E051E060E870E082E790E00E9451150FEF34
S11330F01FEF29E231E047EE50E067EF70E085EB27
S113310090E00E94961300E010E020E148E051E0D6
S11331106FEB70E086E790E00E9451151F910F91CC
S1133120FF90EF900895DC01CB01880F991FAA1F2F
S1133130BB1F880F991FAA1FBB1F9C01AD01220F43
S1133140331F441F551F220F331F441F551F60E0B8
S113315072E18AE790E00E94582DCA01B9016150DA
S11331607109810991090E9429290E946629272F42
S1133170332720BD69B988E18AB986E880BD0895FE
S11331805D9BFECF8CB908955F9BFECF8CB10895F3
S11331908BB1881F8827881F08951F920F920FB63E
S11331A00F9211248F939F93AF93BF9380918C03BD
S11331B090918D03A0918E03B0918F030196A11D70
S11331C0B11D80938C0390938D03A0938E03B093D1
S11331D08F03BF91AF919F918F910F900FBE0F906E
S11331E01F9018951F920F920FB60F9211248F9370
S11331F09F93AF93BF938091840390918503A09193
S11332008603B09187030196A11DB11D80938403A9
S113321090938503A0938603B0938703BF91AF91E6
S11332209F918F910F900FBE0F901F901895CF9381
S1133230DF93CDB7DEB7A1970FB6F894DEBF0FBE0C
S1133240CDBF19821A821B821C821BBA10E418BBE0
S113325015BA12BA8EEF8ABB8FEB87BB8FEF84BB94
S113326080EF81BB68E572E080E090E00E949318F3
S113327087E886B90E945C120E94F4161FBC8CE099
S11332808EBD8AE78BBD82E18ABD8BB780648BBF1C
S113329084B784BF85B7836085BF1ABF80E189BFC7
S11332A078941D861E861F86188A1D821E821F82A0
S11332B018861D8A1E8A1F8A188E0F2EFDE08F2EF7
S11332C0912CF02D2DE028A319A2CE0101961C010A
S11332D0898B3A8A82E090E00E947C2F90937F034E
S11332E080937E0380E090E00E947C2F90937D0386
S11332F080937C038FE190E00E946F130F2EFFE117
S1133300EF2EF12CF02D0FEF1FEF20E144E550E0FC
S11333106BE470E089E790E00E94511500EE1FEF26
S11333202EEA30E043EC50E066E970E083E290E09E
S11333300E9496130F2EF0EEEF2EFF24FA94F02D38
S11333400FE110E020E14BE950E06DE270E08FE71F
S113335090E00E94511500EE1FEF24E231E04DE6AB
S113336050E062E171E083E290E00E9496130FE185
S113337010E028E048E151E068E270E08AE890E07B
S11333800E9451150F2EFFE1EF2EF12CF02D0FEFBF
S11333901FEF28E045E050E060E670E083E990E04C
S11333A00E94511504E41FE022E330E042E350E0C0
S11333B069E071E084EB90E00E949B160FEF1FEF31
S11333C02BE331E046EE50E068E071E083EB90E0FF
S11333D00E941B14409180035091810360918203E9
S11333E0709183038091840390918503A091860357
S11333F0B0918703481759076A077B07B1F160E06A
S113340080E00E9459179C01A4E6B0E00E94992D27
S113341020917E0330917F0340E050E00E94582DBC
S1133420CA01B9010F2EFFE1AF2EB12CF02DCC242F
S1133430CA94DC2C6894EE24E3F805E010E028EC50
S113344030E044E050E00E94E415809184039091C0
S11334508503A0918603B0918703809380039093A2
S11334608103A0938203B09383030E94C818882326
S113347041F00E94C4188C30E1F18B3011F40C94AB
S1133480E9268399A7CFC1010E944917AFE1BEE4A1
S11334901197F1F700C00000C1010E94491789810A
S11334A09A819C01295731092D31310538F42B813A
S11334B03C812453310925393105D8F08497449748
S11334C040F48B819C8189978F34910510F40C947E
S11334D0E926BFEF20E782E0B15020408040E1F7C9
S11334E000C0000077CF4D8A5E8A6F8A788E298C5F
S11334F03A8C8FE190E00E946F130F2EFFE1EF2EC4
S1133500F12CF02D0FEF1FEF28E044E150E067E1CC
S113351070E080EA90E00E94511500EE1FEF2EE368
S113352030E04BEC50E06DE270E08BE190E00E9403
S113353096130F2EF0EEEF2EFF24FA94F02D00E0F8
S113354010E028E042E350E063E270E084EB90E0B6
S11335500E94511500EE1FEF21E630E04BEC50E0E5
S113356060E570E08BE190E00E94961300E010E0CB
S113357028E045E550E063E270E089EC90E00E94C9
S1133580511500EE1FEF24E830E04BEC50E063E708
S113359070E08BE190E00E94961300E010E028E0D8
S11335A048E750E063E270E08EED90E00E94511530
S11335B000EE1FEF27EA30E04BEC50E066E970E0E4
S11335C08BE190E00E94961300E010E028E04BE9C4
S11335D050E063E270E083EF90E00E94511500E058
S11335E018EF24EE30E04BEC50E06CEB70E08BE134
S11335F090E00E9496130F2EE12CF8EFFF2EF02D91
S11336000FEF1FEF20E147EC50E06FE170E088E03E
S113361091E00E94511500EE1FEF25E131E04BECE3
S113362050E064E071E08BE190E00E9496130F2E6D
S1133630F0EEEF2EFF24FA94F02D00E010E028E0E5
S113364049E051E063E270E085E191E00E945115A8
S1133650839BFECF0E94C8188823A9F00E94C41837
S11336608D3009F468C48E3009F47EC48F3009F4B7
S113367094C4803109F4A6C48C3011F40C94AD28A0
S11336808B3009F427CE8399E5CFC1010E944917F5
S1133690AFE1BEE41197F1F700C00000C1010E9440
S11336A049178B819C8184978F3A910530F58981E4
S11336B09A819C01265C31092231310508F498C4B1
S11336C02A5E3F4F2E30310508F4ABC4255E3F4FD0
S11336D02231310508F4BEC42B5E3F4F2031310541
S11336E008F4CDC4245D3F4F2032310510F40C940E
S11336F0B0288C97479708F4EDCDBFEF20E782E020
S1133700B15020408040E1F700C00000A3CF332433
S1133710339404C00F2EF3E03F2EF02D8FE190E0A0
S11337200E946F130E947317839BFECF0F2EF5E048
S11337302F2EF02D91E0391225C00FEF1FEF25E653
S113374030E047EE50E065E470E08AE090E00E94EB
S113375096130F2EFFE1EF2EF12CF02D20E144E122
S113376050E06AE070E082E291E00E94511520E1AD
S113377046E250E06AE070E082E391E00E94511575
S1133780398426C1A3E03A1233C00FEF1FEF25E6B8
S113379030E047EE50E065E470E08AE090E00E949B
S11337A096130FE110E026E330E047EE50E064E1C9
S11337B070E08AE090E00E9496130F2EFFE1EF2E56
S11337C0F12CF02D0FEF1FEF20E144E150E06AE00F
S11337D070E08CE391E00E94511520E146E250E054
S11337E06AE070E08CE491E00E9451153B88F0C0DF
S11337F0B5E03B1233C00FEF1FEF25E630E047EE94
S113380050E065E470E08AE090E00E9496130FE1D6
S113381010E026E330E047EE50E064E170E08AE037
S113382090E00E9496130F2EFFE1EF2EF12CF02D65
S11338300FEF1FEF20E144E150E06AE070E086E51D
S113384091E00E94511520E146E250E06AE070E008
S113385086E691E00E9451153C88BAC027E03212F6
S113386027C00FEF1FEF25E630E047EE50E065E498
S113387070E08AE090E00E9496130F2EFFE1EF2E95
S1133880F12CF02D28E04FE050E06AE070E08FE684
S113389091E00E94511528E046E250E06AE070E0B1
S11338A082E891E00E9451156894332433F890C063
S11338B088E0381241C040918003509181036091A7
S11338C08203709183038091840390918503A09176
S11338D08603B0918703481759076A077B0709F4E1
S11338E077C060E080E00E945917BC0180E090E05E
S11338F00F2EFFE1AF2EB12CF02DCC24CA94DC2C7A
S11339006894EE24E3F80FE010E022EA30E044E0AB
S113391050E00E94E4158091840390918503A09166
S11339208603B09187038093800390938103A093CF
S11339308203B09383034CC099E0391249C00FEF5E
S11339401FEF25E630E047EE50E065E470E08AE0E2
S113395090E00E9496130F2EFFE1EF2EF12CF02D34
S113396028E04FE050E06AE070E08AE991E00E94CC
S11339705115609188037091890380918A03909115
S11339808B030F2EFFE1AF2EB12CF02DCC24CA9463
S1133990DC2C6894EE24E3F80FE010E022EB30E036
S11339A04FEF5FEF0E94E4150F2EFFE1EF2EF12C95
S11339B0F02D0FEF1FEF28E046E250E06AE070E0E0
S11339C082E891E00E9451150F2EFAE03F2EF02D6F
S11339D00E94C818882331F10E94C418893009F460
S11339E042C08A3009F46DC08B3009F493C08C3026
S11339F009F4CDC0853009F44CC1863009F477C18F
S1133A00873009F4A2C1883009F4CBC1813009F4AC
S1133A10F5C1823009F420C2833009F441C28430F4
S1133A2009F460C2839986CE89899A890E944917CC
S1133A30AFE1BEE41197F1F700C0000089899A89CB
S1133A400E94491789819A819C01255231092332A8
S1133A50310508F00FC18B819C819C0128513109EB
S1133A602133310540F5EE24EA94FE2C00E010E009
S1133A7020E14DE450E0B40180E790E00E9451154C
S1133A80BEE08B0E911C440C551C661C771CD301A4
S1133A90C201880F991FAA1FBB1F880F991FAA1F55
S1133AA0BB1F480E591E6A1E7B1E29E0420E511C84
S1133AB0611C711CDCC09C012E543109203331057A
S1133AC018F5EE24EA94FE2C00E010E020E14DE429
S1133AD050E0B4018BE593E00E9451158EE0880E0E
S1133AE0911C440C551C661C771CD301C201880F21
S1133AF0991FAA1FBB1F880F991FAA1FBB1F480E1F
S1133B00591E6A1E7B1EB3C09C01225831092333FF
S1133B103105C0F59EE089169104D8F0AEE08A1A0A
S1133B209108EE24EA94FE2C00E010E020E14DE43C
S1133B3050E0B40182E193E00E945115C301B20147
S1133B402AE030E040E050E00E94582D29013A017B
S1133B508EC0B2E03B1609F4C6CC24E0321609F458
S1133B60D6CD86E0381609F4D5CD832D8D7F8830E7
S1133B7009F07DC04D8A5E8A6F8A788E298C3A8CD2
S1133B800C94E926885B9109C49708F070C092E010
S1133B90391609F455C0A4E03A1609F45DC0B6E03C
S1133BA03B1609F482C228E0321225C04D8A5E8A8F
S1133BB06F8A788E298C3A8C60E080E00E945917D5
S1133BC09C01A4E6B0E00E94992D2D893E894F897D
S1133BD0588D0E94582DB90182E090E00E94822FF6
S1133BE01D8A1E8A1F8A188E0F2EFDE08F2EF02D3F
S1133BF0912C0C94E9268AE0381239C0298C3A8C2D
S1133C00209188033091890340918A0350918B035A
S1133C10A4E6B0E00E94A82DA30192010E94582DB1
S1133C20B90180E090E00E94822F1D8A1E8A1F8ABB
S1133C30188E0F2EFDE08F2EF02D912C0C94E9267A
S1133C404D825E826F8278863B8C412C512C612C94
S1133C50712C88A099A00BC04D865E866F86788AE9
S1133C60322C412C512C612C712C88A099A0839B5F
S1133C70FECF57C19C012C5431092432310508F080
S1133C80B0C08B819C819C012851310921333105BD
S1133C9040F5EE24EA94FE2C00E010E020E14DE42F
S1133CA050E0B40188E690E00E9451159EE0890E30
S1133CB0911C440C551C661C771CD301C201880F4F
S1133CC0991FAA1FBB1F880F991FAA1FBB1F480E4D
S1133CD0591E6A1E7B1EA5E04A0E511C611C711CF4
S1133CE07DC09C012E5431092033310540F5EE246A
S1133CF0EA94FE2C00E010E020E14DE450E0B40131
S1133D008AE690E00E945115BEE08B0E911C440C93
S1133D10551C661C771CD301C201880F991FAA1F6A
S1133D20BB1F880F991FAA1FBB1F480E591E6A1E6E
S1133D307B1E26E0420E511C611C711C4FC09C016D
S1133D40225831092333310540F5EE24EA94FE2C40
S1133D5000E010E020E14DE450E0B4018CE690E096
S1133D600E9451158EE0880E911C440C551C661C53
S1133D70771CD301C201880F991FAA1FBB1F880F8C
S1133D80991FAA1FBB1F480E591E6A1E7B1E97E06F
S1133D90490E511C611C711C21C0885B9109C49798
S1133DA0E8F4EE24EA94FE2C00E010E020E14DE477
S1133DB050E0B4018EE690E00E945115AEE08A0E08
S1133DC0911CAAE0B0E0A30192010E94A82D2B014E
S1133DD03C01B8E04B0E511C611C711C839BFECF4F
S1133DE0A0C084579109829708F09BC08B819C8165
S1133DF09C01285131092133310540F5EE24EA9420
S1133E00FE2C00E010E020E14DE450E0B40180E637
S1133E1090E00E9451152EE0820E911C440C551C1A
S1133E20661C771CD301C201880F991FAA1FBB1FF0
S1133E30880F991FAA1FBB1F480E591E6A1E7B1E9E
S1133E408FEF481A580A680A780A69C09C012E54F0
S1133E50310920333105F0F4EE24EA94FE2C00E01D
S1133E6010E020E14DE450E0B40182E690E00E94CD
S1133E7051159EE0890E911CAAE0B0E0A3019201C5
S1133E800E94A82D2B013C01A2E04A0E511C611C8A
S1133E90711C45C09C012258310923333105F0F4CB
S1133EA0EE24EA94FE2C00E010E020E14DE450E022
S1133EB0B40184E690E00E945115BEE08B0E911C83
S1133EC0AAE0B0E0A30192010E94A82D2B013C01BD
S1133ED023E0420E511C611C711C21C0885B9109B6
S1133EE0C497E8F4EE24EA94FE2C00E010E020E10C
S1133EF04DE450E0B40186E690E00E9451158EE056
S1133F00880E911CAAE0B0E0A30192010E94A82DA2
S1133F102B013C01A4E04A0E511C611C711C839BC3
S1133F20FECFBFEF20E782E0B15020408040E1F7B0
S1133F3000C00000FFCB82E090E0A0E0B0E0898701
S1133F409A87AB87BC8789E190E0A0E0B0E08D87D9
S1133F509E87AF87B88B86E490E0A0E0B0E08D83C5
S1133F609E83AF83B887B0C082E090E0A0E0B0E069
S1133F7089879A87AB87BC8782E390E0A0E0B0E0B2
S1133F808D879E87AF87B88B86E490E0A0E0B0E091
S1133F908D839E83AF83B88797C082E090E0A0E0D2
S1133FA0B0E089879A87AB87BC8782E390E0A0E082
S1133FB0B0E08D879E87AF87B88B8D839E83AF8358
S1133FC0B88782C082E090E0A0E0B0E089879A8759
S1133FD0AB87BC8782E390E0A0E0B0E08D879E874A
S1133FE0AF87B88B9CE39D831E821F8218866CC0AA
S1133FF082E090E0A0E0B0E089879A87AB87BC8735
S113400089E190E0A0E0B0E08D879E87AF87B88B10
S113401086E490E0A0E0B0E08D839E83AF83B88710
S113402053C082E090E0A0E0B0E089879A87AB8734
S1134030BC8782E390E0A0E0B0E08D879E87AF87E5
S1134040B88B86E490E0A0E0B0E08D839E83AF83DC
S1134050B8873AC082E090E0A0E0B0E089879A8710
S1134060AB87BC8782E390E0A0E0B0E08D879E87B9
S1134070AF87B88B8D839E83AF83B88725C082E0DA
S113408090E0A0E0B0E089879A87AB87BC8782E3A1
S113409090E0A0E0B0E08D879E87AF87B88B9CE36B
S11340A09D831E821F8218860FC0298C3A8C4986F4
S11340B05A866B867C861D8A1E8A1F8A188E0F2E4E
S11340C0FDE08F2EF02D912C8FE190E00E946F1374
S11340D00F2EFFE1EF2EF12CF02D0FEF1FEF28E054
S11340E042E350E064E170E08FEA91E00E945115F0
S11340F0AD81AB8BBE81BC8B2F81298F88858B8F43
S11341000F2EFFE1AF2EB12CF02DCC24CA94DC2C61
S11341106894EE24E3F802E310E024E530E04FEF86
S11341205FEF6D817E818F8198850E94E4150F2E4B
S1134130FFE1EF2EF12CF02D0FEF1FEF28E046E406
S113414050E064E170E082EC91E00E9451159D859D
S11341509C8FAE85AD8FBF85BE8F28892F8F6894C5
S1134160EE24E3F806E410E024E530E04FEF5FEFDF
S11341706D857E858F8598890E94E4150F2EFFE159
S1134180EF2EF12CF02D0FEF1FEF28E04AE550E061
S113419064E170E086ED91E00E94511579846A84AF
S11341A05B844C846894EE24E3F80AE510E024E58B
S11341B030E04FEF5FEF69857A858B859C850E949F
S11341C0E4150FEF1FEF24EB30E04EEB50E06CE80A
S11341D070E082E390E00E94961320EF30E04EEB13
S11341E050E068EC70E082E390E00E949613EE24C5
S11341F0EA94FE2C00E010E020E148E950E069E395
S113420070E08AEE91E00E94511500E018EF20E181
S113421044ED50E069E370E084EF91E00E945115B1
S1134220839BFECF19890A890E94C818882339F014
S11342300E94C4188C3089F18B3009F45AC98399CF
S1134240F3CF812F902F0E9449178FE19EE40197AD
S1134250F1F700C00000812F902F0E9449172B8195
S11342603C812D53310926383105F0F629813A81F4
S1134270C901895791094D9780F02C5431092D318A
S1134280310508F436C99FEFA0E7B2E09150A04091
S1134290B040E1F700C00000C7CF8FE190E00E947A
S11342A06F130F2EFFE1EF2EF12CF02D0FEF1FEF08
S11342B028E044E150E064E170E08EEF91E00E9478
S11342C0511528E330E042ED50E068E270E08EE101
S11342D090E00E94961328E730E042ED50E068E356
S11342E070E08EE190E00E941B14EE24EA94FE2C10
S11342F000E010E028E04CE250E063E270E082E18C
S113430092E00E9451150F2EFFE1EF2EF12CF02DBB
S11343100FEF1FEF28E04CE350E063E270E089E127
S113432092E00E94511528E048E450E06BE270E00E
S11343308EE292E00E94511528E044E550E063E2E9
S113434070E082E492E00E9451150F2EFFE1AF2E3F
S1134350B12CF02DCC24CA94DC2C6894EE24E3F820
S113436004E510E02BE730E04FEF5FEF6B897C89C9
S1134370898D9B8D0E94E4150F2EFFE1EF2EF12C09
S1134380F02D0FEF1FEF28E046E650E063E270E007
S113439087E592E00E9451156894EE24E3F806E65E
S11343A010E02BE730E044E050E06B897C89898D94
S11343B09B8D0E94E4150FEF1FEF20E930E042EDE2
S11343C050E060E870E08EE190E00E94961320EDEA
S11343D030E042ED50E060E970E08EE190E00E9450
S11343E01B14EE24EA94FE2C00E010E028E044E8DC
S11343F050E063E270E083E990E00E9451150F2ED3
S1134400FFE1EF2EF12CF02D0FEF1FEF28E044E930
S113441050E063E270E089E192E00E94511528E0E7
S113442040EA50E06BE270E08CE692E00E945115A5
S113443028E04CEA50E063E270E080E892E00E94F9
S113444051156894EE24E3F80CEA10E02BE730E011
S11344504FEF5FEF6C8D7D8D8E8D9F8D0E94E415E7
S11344600F2EFFE1EF2EF12CF02D0FEF1FEF28E0C0
S11344704CEB50E063E270E085E992E00E94511554
S11344806894EE24E3F80CEB10E02BE730E043E013
S113449050E06C8D7D8D8E8D9F8D0E94E4150FEF05
S11344A01FEF28EE30E042ED50E068ED70E08EE161
S11344B090E00E94961328E231E042ED50E068EE6D
S11344C070E08EE190E00E941B14EE24EA94FE2C2E
S11344D000E010E028E04CED50E063E270E08AEA8E
S11344E092E00E9451150F2EFFE1EF2EF12CF02DDA
S11344F00FEF1FEF28E04CEE50E063E270E080EB3A
S113450092E00E94511528E048EF50E063E270E029
S113451080EC92E00E9451156894EE24E3F808EFD1
S113452010E02BE730E04FEF5FEF672D762D852D00
S1134530942D0E94E4150F2EFFE1EF2EF12CF02DA7
S11345400FEF1FEF28E044E051E063E270E083EDF9
S113455092E00E94511528E044E151E063E270E0EA
S113456089EE92E00E9451156894EE24E3F804E188
S113457011E02BE730E044E050E0672D762D852DE7
S1134580942D0E94E41510928C0310928D031092C6
S11345908E0310928F03109284031092850310925D
S11345A08603109287033FC081E60E94C0182FEF54
S11345B080E792E0215080409040E1F700C0000085
S11345C081E60E94C0180F2EE12CF8EFFF2EF02D8B
S11345D00FEF1FEF28E04CE350E06BEA70E08EEF42
S11345E092E00E94511520918C0330918D034091EB
S11345F08E0350918F03A4E6B0E00E94A82D209171
S11346007C0330917D0340E050E00E94582D290145
S11346103A018D819E81AF81B885281739074A07F1
S11346205B0728F1C1C5AA24AA94BA2C0F2EFFE176
S1134630CF2ED12CF02D6894EE24E3F805E010E0A1
S113464025E030E044E050E060E070E080E090E09D
S11346500E94E4158091840390918503A0918603C0
S1134660B0918703892B8A2B8B2BE9F29DCF0E9473
S1134670C818882329F00E94C4188C30E1F48CC037
S1134680839919C0C1010E944917AFE1BEE4119793
S1134690F1F700C00000C1010E94491789819A8185
S11346A08F5B91094F9738F48B819C818697823B6D
S11346B0910508F471C0A4E6B0E0A30192010E9440
S11346C0A82D2D813E814F8158850E94582DCA0105
S11346D0B9010F2EFFE1AF2EB12CF02DCC24CA94DA
S11346E0DC2C6894EE24E3F808E410E02BE230E0DC
S11346F04FEF5FEF0E94E4152BE730E04FEF5FEFE1
S1134700C301B2010E94E4156D817E818F81988579
S1134710641975098609970906E610E02BE730E06D
S113472044E050E00E94E415609184037091850395
S11347308091860390918703AA24AA94BA2C0F2E01
S1134740FFE1CF2ED12CF02D05E010E025E030E084
S113475044E050E00E94E41520918C0330918D03D5
S113476040918E0350918F03A4E6B0E00E94A82DDF
S113477020917C0330917D0340E050E00E94582D4D
S113478029013A018D819E81AF81B88528173907A7
S11347904A075B0708F46BCF82E60E94C0189FEFBC
S11347A0A0E7B2E09150A040B040E1F700C00000A3
S11347B082E60E94C0180F2EFFE1EF2EF12CF02D9F
S11347C00FEF1FEF28E04CE350E06BEA70E08AE261
S11347D092E00E9451150F2EFFE1AF2EB12CF02D67
S11347E0CC24CA94DC2C6894EE24E3F808E410E0AA
S11347F02BE230E04FEF5FEF64E670E080E090E0A2
S11348000E94E4152BE730E04FEF5FEF6B897C8962
S1134810898D9B8D0E94E41506E610E02BE730E0BD
S113482044E050E060E070E080E090E00E94E41535
S113483010928403109285031092860310928703CA
S113484020C083E60E94C0182FEF80E792E0215039
S113485080409040E1F700C0000083E60E94C01849
S11348600F2EE12CF8EFFF2EF02D0FEF1FEF28E0B5
S113487044E950E06BEA70E08EEF92E00E9451153B
S113488024C0AA24AA94BA2C0F2EFFE1CF2ED12C37
S1134890F02D6894EE24E3F805E010E025E030E024
S11348A044E050E060E070E080E090E00E94E415B5
S11348B08091840390918503A0918603B09187032E
S11348C0892B8A2B8B2BE9F2BCCFAFE0B7E211978F
S11348D0F1F700C0000060E080E00E9459179C01DD
S11348E0A4E6B0E00E94992D20917E0330917F03CD
S11348F040E050E00E94582D29013A018D859E85A3
S1134900AF85B889281739074A075B0708F09FC0A5
S11349100E94C818882329F00E94C4188C30E1F43E
S113492096C0839919C0C1010E944917AFE1BEE442
S11349301197F1F700C00000C1010E944917898155
S11349409A8183589109829738F48B819C81869748
S1134950823B910508F47BC0409180035091810310
S11349606091820370918303809184039091850305
S1134970A0918603B0918703481759076A077B07FC
S113498009F449C0A4E6B0E0A30192010E94A82D55
S11349902D853E854F8558890E94582DCA01B9013D
S11349A00F2EFFE1AF2EB12CF02DCC24CA94DC2CB9
S11349B06894EE24E3F800EA10E02BE230E043E0F0
S11349C050E00E94E4152BE730E043E050E0C301DF
S11349D0B2010E94E4156D857E858F8598896419DE
S11349E07509860997090CEB10E02BE730E043E0EA
S11349F050E00E94E4158091840390918503A09176
S1134A008603B09187038093800390938103A093DE
S1134A108203B09383036091840370918503809132
S1134A20860390918703AA24AA94BA2C0F2EFFE13F
S1134A30CF2ED12CF02D6894EE24E3F805E010E09D
S1134A4025E030E044E050E00E94E4153ECF84E6E7
S1134A500E94C018BFEF20E782E0B15020408040A0
S1134A60E1F700C0000084E60E94C0180F2EFFE1A9
S1134A70EF2EF12CF02D0FEF1FEF28E044E950E06A
S1134A806BEA70E08AE292E00E9451150F2EFFE17A
S1134A90AF2EB12CF02DCC24CA94DC2C6894EE24D7
S1134AA0E3F800EA10E02BE230E043E050E064E693
S1134AB070E080E090E00E94E4152BE730E043E0F2
S1134AC050E06C8D7D8D8E8D9F8D0E94E4150CEBD6
S1134AD010E02BE730E043E050E060E070E080E07D
S1134AE090E00E94E41510928403109285031092C2
S1134AF08603109287030F2EE12CF8EFFF2EF02D82
S1134B000FEF1FEF28E04CEE50E06BE770E082E01F
S1134B1093E00E9451156091840370918503809104
S1134B208603909187032CE330E040E050E00E943C
S1134B30582D29013A0189859A85AB85BC852817AA
S1134B4039074A075B0708F44DC085E60E94C01880
S1134B509FEFA0E7B2E09150A040B040E1F700C061
S1134B60000085E60E94C0180F2EFFE1EF2EF12C05
S1134B70F02D0FEF1FEF28E04CEE50E06BE770E0F4
S1134B808BE093E00E9451151092840310928503E8
S1134B9010928603109287038FE190E00E946F13B6
S1134BA020E144E550E063E370E084E193E00E9497
S1134BB051152EEA30E043EC50E066E970E083E200
S1134BC090E00E949613EE24EA94FE2C00E018EF85
S1134BD020E14BE950E065E370E08EE193E00E9450
S1134BE051159FC00F2EFFE1AF2EB12CF02DCC2418
S1134BF0CA94DC2C6894EE24E3F804E011E02BE77B
S1134C0030E04FEF5FEFC301B2010E94E4150F2EB5
S1134C10FFE1EF2EF12CF02D0FEF1FEF28E044E021
S1134C2051E06BE970E08DEA91E00E9451156091CA
S1134C3084037091850380918603909187032CE30C
S1134C4030E040E050E00E94582D6894EE24E3F8F0
S1134C5004E011E023EA30E042E050E00E94E41571
S1134C6069857A858B859C856419750986099709F8
S1134C7004E111E02BE730E044E050E00E94E41549
S1134C800E94C818882329F00E94C4188C3009F4A3
S1134C905CCF839910C0C1010E94491789819A8110
S1134CA08E549109499738F48B819C818697823B75
S1134CB0910508F44ACF6091840370918503809133
S1134CC0860390918703AA24AA94BA2C0F2EFFE19D
S1134CD0CF2ED12CF02D6894EE24E3F805E010E0FB
S1134CE025E030E044E050E00E94E4156091840344
S1134CF07091850380918603909187032CE330E0C3
S1134D0040E050E00E94582D29013A0189859A8596
S1134D10AB85BC85281739074A075B0708F462CFBF
S1134D2014CF0E94C818882321F00E94C4188C3024
S1134D30D1F0839932C0C1010E944917AFE1BEE4AA
S1134D401197F1F700C00000C1010E944917898141
S1134D509A81895791094D97B8F48B819C81C497A6
S1134D608539910588F486E60E94C018BFEF20E7D4
S1134D7082E0B15020408040E1F700C0000086E6A8
S1134D800E94C0180C946A199FEFA0E7B2E09150FA
S1134D90A040B040E1F700C000006091840370912E
S1134DA085038091860390918703AA24AA94BA2C40
S1134DB00F2EFFE1CF2ED12CF02D6894EE24E3F8D2
S1134DC005E010E025E030E044E050E00E94E41506
S1134DD0A8CF8FE190E00E946F130F2EFFE1EF2E1A
S1134DE0F12CF02D0FEF1FEF20E146E450E060E4DA
S1134DF070E08AE890E00E94511500EE1FEF2CE964
S1134E0030E049EC50E064E870E088E290E00E9411
S1134E1096130F2EF0EEEF2EFF24FA94F02D0FE1EF
S1134E2010E028E04CE850E06DE270E088E293E0A6
S1134E300E94511500EE1FEF2EEC30E049EC50E0DB
S1134E4066EB70E088E290E00E9496130FE110E0B8
S1134E5028E04EEB50E065E370E08CE393E00E94C1
S1134E60511500EE1FEF20E031E049EC50E068EE10
S1134E7070E088E290E00E9496130FE110E028E0D1
S1134E8040EF50E06DE270E085E191E00E94511541
S1134E9007E0102F79886A880E94C818882369F06F
S1134EA00E94C418412E8D3009F45CC18E30D1F1BA
S1134EB08B7F8B3011F40C946A198399EDCF872D75
S1134EC0962D0E9449178FE19EE40197F1F700C0E7
S1134ED00000872D962D0E9449172B813C812E526C
S1134EE03109293A3105C0F629813A81402EC90198
S1134EF0835891098D31910508F434C181964897FE
S1134F0088F02E5331092A31310510F40C946A19B2
S1134F109FEFA0E7B2E09150A040B040E1F700C09D
S1134F200000BACF8FE190E00E946F130F2EFFE1D3
S1134F30EF2EF12CF02D0FEF1FEF28E044E150E0AD
S1134F4065E370E08CE393E00E94511528E040E5AE
S1134F5050E060E470E08EE493E00E94511500EEAE
S1134F601FEF2CE930E049EC50E064E870E088E29F
S1134F7090E00E9496130F2EF0EEEF2EFF24FA9489
S1134F80F02D0FE110E028E04CE850E06DE270E015
S1134F908DE593E00E945115839BFECF19890A8900
S1134FA00E94C818882321F00E94C4188C3041F153
S1134FB08399F6CF812F902F0E9449178FE19EE4A9
S1134FC00197F1F700C00000812F902F0E9449172C
S1134FD02B813C812E523109293A310508F7298168
S1134FE03A81235831092D31310550F09FEFA0E764
S1134FF0B2E09150A040B040E1F700C00000D0CF33
S113500010928C0310928D0310928E0310928F03D2
S1135010109288031092890310928A0310928B03D2
S113502081E60E94C0182FEF80E792E02150804073
S11350309040E1F700C0000081E60E94C01800EE35
S11350401FEF2CE930E049EC50E064E870E088E2BE
S113505090E00E9496130F2EF0EEEF2EFF24FA94A8
S1135060F02D0FE110E028E04CE850E06DE270E034
S11350708CE693E00E945115839BFECF79886A8861
S11350800E94C818882321F00E94C4188C30C1F1F2
S113509060918C0370918D0380918E0390918F03A6
S11350A00F2EFFE1AF2EB12CF02DCC24CA94DC2CB2
S11350B06894EE24E3F800E510E028EA30E04FEFCE
S11350C05FEF0E94E4158399DBCF872D962D0E9414
S11350D04917AFE1BEE41197F1F700C00000872D36
S11350E0962D0E9449178B819C818E97893A910550
S11350F038F689819A81835891094D9708F04AC0FE
S113510082E60E94C018BFEF20E782E0B150204041
S11351108040E1F700C0000082E60E94C0189FEFC3
S1135120A4E3BCE09150A040B040E1F700C000000F
S113513080918C0390918D03A0918E03B0918F0385
S11351408093880390938903A0938A03B0938B037D
S11351500F2EF9E04F2EF02D05C04424439402C0D5
S1135160442443940F2EF6E05F2EF02D68946624B9
S113517062F86894772471F823E02B8F5C8A6B8A39
S113518079863A8E298E342C4D885E886F88788C87
S11351900C948E1B8FEF90E7A2E081509040A040CA
S11351A0E1F700C000006CCF82E60E94C018BFEF98
S11351B020E782E0B15020408040E1F700C00000C9
S11351C082E60E94C0180F2EFFE1EF2EF12CF02D85
S11351D00FEF1FEF28E04CE350E06BEA70E08AE247
S11351E092E00E9451150F2EFFE1AF2EB12CF02D4D
S11351F0CC24CA94DC2C6894EE24E3F808E410E090
S11352002BE230E04FEF5FEF64E670E080E090E087
S11352100E94E4152BE730E04FEF5FEF6B897C8948
S1135220898D9B8D0E94E41506E610E02BE730E0A3
S113523044E050E060E070E080E090E00E94E4151B
S113524010928403109285031092860310928703B0
S113525018CBE89409C097FB3EF49095809570951F
S113526061957F4F8F4F9F4F9923A9F0F92F96E9AE
S1135270BB279395F695879577956795B795F11123
S1135280F8CFFAF4BB0F11F460FF1BC06F5F7F4FC0
S11352908F4F9F4F16C0882311F096E911C07723D2
S11352A021F09EE8872F762F05C0662371F096E8DB
S11352B0862F70E060E02AF09A95660F771F881FAA
S11352C0DAF7880F9695879597F9089541D0A8F154
S11352D09E57A8F1985160F039F1983070F5092E75
S11352E09927660F771F881F991F0A94D1F71CC04E
S11352F0BB27993F4CF4B111B1E0B62B672F782F3F
S11353008827985FB1F708C0869577956795B79514
S113531008F4B1609395C1F7BB0F30F411F460FF4A
S113532003C06F5F7F4F8F4F3EF4909580957095CB
S113533061957F4F8F4F9F4F0895689424C022C07A
S113534057FD9058440F551F59F05F3F71F0479532
S1135350880F97FB991F61F09F3F79F08795089517
S1135360121613061406551FF2CF4695F1DF08C036
S1135370161617061806991FF1CF86957105610553
S113538008940895E894BB2766277727CB0197F9FB
S11353900895A3E1B0E0EFECF9E20C94B32D7C01A5
S11353A01B016A01FC0117821682838181FF66C397
S11353B0BE016F5F7F4F4B01F7019381F10193FDB4
S11353C0859193FF81911F01882309F453C385328A
S11353D039F493FD859193FF81911F01853239F44E
S11353E0B70190E00E94EC2E56016501E5CF10E074
S11353F0512C20E02032A0F48B3269F030F480325A
S113540059F0833269F420612CC08D3239F0803335
S113541039F4216026C02260246023C0286021C0A2
S113542027FD27C030ED380F3A3078F426FF06C048
S1135430FAE01F9F300D1124132F13C06AE0569E0B
S1135440300D1124532E20620CC08E3221F426FD1F
S113545011C3206406C08C3611F4206802C088365B
S113546041F4F10193FD859193FF81911F01811115
S1135470C1CF9BEB980F933018F42061805E06C077
S11354809BE9980F933008F0AAC12F7E26FF16E0FF
S11354902F73722E853621F4F22FF0647F2E08C00C
S11354A0863621F4622F6068762E02C011111150E5
S11354B077FE07C01C3348F444244394410E27E08C
S11354C00BC0183030F4212F06C027E04CE3442EE3
S11354D003C027E017E0412C560174E0A70EB11C6D
S11354E0F6016081718182819381042DA4010E945F
S11354F0FE2D6C01098100FF02C003FF06C071FC90
S113550007C072FC08C0612C08C03DE2632E05C0D0
S11355102BE2622E02C090E2692E802F8C7099F1EA
S1135520662011F084E001C083E0851510F0512C51
S11355300BC0581A73FC08C0B70180E290E00E94C7
S1135540EC2E5A94C9F7F3CF662029F0B701862DC3
S113555090E00E94EC2E03FD03C000ED12E202C0B5
S11355600CEC12E2F72DF0717F2EF8018491882360
S113557009F476C271108052B70190E00E94EC2EBB
S11355800F5F1F4FF2CF77FE0FC04C0C04FF04C017
S11355908A81813309F44A94141474F5F8E0F415FB
S11355A078F588E0482E2CC076FC2AC0812F90E044
S11355B08C159D059CF06CEFC6166FEFD60674F043
S11355C0772D7068772E0AC0E2E0F0E0EC0FFD1F43
S11355D0E10FF11D8081803319F411501111F4CFC2
S11355E077FE0EC044244394410E812F90E0C816E8
S11355F0D9062CF41C1904C04424439401C010E0BF
S113560077FE07C01C141D043CF496012F5F3F4F26
S113561005C025E030E002C021E030E0662011F052
S11356202F5F3F4F112331F0412F50E04F5F5F4F09
S1135630240F351F452D50E02417350714F4521A52
S113564001C0512C872D897049F4552039F0B701D8
S113565080E290E00E94EC2E5A94F7CF662029F065
S1135660B701862D90E00E94EC2E73FC09C05520F2
S113567039F0B70180E390E00E94EC2E5A94F7CF02
S113568077FE5FC09C2D8D2DD7FE02C090E080E098
S1135690692E782E40E050E0C601841991099D8757
S11356A08C87960126193709280D391D812F90E022
S11356B0EE27FF27E81BF90BFF87EE87FFEF6F1636
S11356C07F0669F4B7018EE290E02B8B3A8B488B0E
S11356D0598B0E94EC2E598948893A892B89C61422
S11356E0D70454F06C857D85661577052CF4F90193
S11356F0E40FF51F818101C080E371E0671A71082E
S11357004F5F5F4FEE85FF856E167F066CF0B70125
S113571090E02B8B3A8B488B598B0E94EC2E2B8973
S11357203A8948895989CACF6C147D0439F49A811D
S1135730963318F4953311F404FF81E3B70190E034
S11357404BC08A81813309F00F7EB70190E00E943B
S1135750EC2E111105C074FE18C085E490E017C04A
S1135760B7018EE290E00E94EC2E82E066246394FE
S1135770680EF401E80FF11D8081B70190E00E94EA
S1135780EC2E115041F3862DF1CF85E690E0B70160
S11357900E94EC2ED7FC05C0C114D10439F404FFD7
S11357A005C0D194C194D1088DE201C08BE2B70148
S11357B090E00E94EC2E80E36AE0C616D1042CF03F
S11357C08F5FFAE0CF1AD108F7CFB70190E00E94BB
S11357D0EC2EB701C601C0960E94EC2E41C183365F
S11357E031F0833779F0833509F058C021C0560170
S11357F072E0A70EB11CF6018081898301E010E0FC
S1135800640114C05601F2E0AF0EB11CF601C08071
S1135810D18026FF03C0612F70E002C06FEF7FEFDD
S1135820C6012B8B0E94E12E8C012B892F7715C08A
S11358305601F2E0AF0EB11CF601C080D18026FF04
S113584003C0612F70E002C06FEF7FEFC6012B8BA6
S11358500E94D62E8C012B892068722E23FD1AC03B
S1135860852D90E008171907A8F4B70180E290E0AD
S11358700E94EC2E5A94F4CFF60177FC859177FEC2
S113588081916F01B70190E00E94EC2E51105A945F
S1135890015011090115110579F7E2C0843611F0A0
S11358A0893651F5560127FF09C0F4E0AF0EB11C4B
S11358B0F60160817181828193810AC0F2E0AF0EAA
S11358C0B11CF60160817181882777FD8095982F3E
S11358D0022F0F7697FF08C090958095709561957B
S11358E07F4F8F4F9F4F00682AE030E0A4010E9451
S11358F01E2FC82EC8183EC0022F853721F40F7EF4
S11359002AE030E01DC0097F8F3691F018F4883505
S113591059F0B0C0803719F0883711F0ABC000617E
S113592004FF09C0046007C024FF08C0066006C065
S113593028E030E005C020E130E002C020E132E0A0
S1135940560107FF09C0F4E0AF0EB11CF6016081F7
S113595071818281938108C0F2E0AF0EB11CF6011F
S11359606081718180E090E0A4010E941E2FC82E06
S1135970C8180F7706FF0BC0202F2E7FC11650F4D6
S113598004FF0AC002FD08C0202F2E7E05C0DC2CB7
S1135990202F03C0DC2C01C0D12E24FF0DC0FE013A
S11359A0EC0DF11D8081803311F4297E09C022FFA2
S11359B006C0D394D39404C0822F867809F0D3947C
S11359C023FD13C020FF06C01C2DD51418F4150D9B
S11359D01D19D52CD51468F4B70180E290E02B8B07
S11359E00E94EC2ED3942B89F5CFD51410F45D18B6
S11359F001C0512C24FF12C0B70180E390E02B8B2F
S1135A000E94EC2E2B8922FF17C021FF03C088E5DA
S1135A1090E002C088E790E0B7010CC0822F86783E
S1135A2059F021FD02C080E201C08BE227FD8DE226
S1135A30B70190E00E94EC2EC11638F4B70180E360
S1135A4090E00E94EC2E1150F7CFCA94F401EC0DB3
S1135A50F11D8081B70190E00E94EC2EC110F5CFBA
S1135A60552009F4C2CCB70180E290E00E94EC2EEC
S1135A705A94F6CFF7018681978102C08FEF9FEF8A
S1135A806396E2E10C94CF2D97FB072E16F4009455
S1135A9007D077FD09D00E94EA2D07FC05D03EF41B
S1135AA0909581959F4F0895709561957F4F0895C6
S1135AB0A1E21A2EAA1BBB1BFD010DC0AA1FBB1F0E
S1135AC0EE1FFF1FA217B307E407F50720F0A21B80
S1135AD0B30BE40BF50B661F771F881F991F1A94ED
S1135AE069F760957095809590959B01AC01BD0117
S1135AF0CF010895052E97FB1EF400940E94912D6A
S1135B0057FD07D00E94582D07FC03D04EF40C9487
S1135B10912D50954095309521953F4F4F4F5F4FB4
S1135B20089590958095709561957F4F8F4F9F4F05
S1135B300895A29FB001B39FC001A39F700D811D62
S1135B401124911DB29F700D811D1124911D089582
S1135B500E94992DA59F900DB49F900DA49F800D38
S1135B60911D112408952F923F924F925F926F924C
S1135B707F928F929F92AF92BF92CF92DF92EF92D9
S1135B80FF920F931F93CF93DF93CDB7DEB7CA1B5A
S1135B90DB0B0FB6F894DEBF0FBECDBF09942A8885
S1135BA0398848885F846E847D848C849B84AA842D
S1135BB0B984C884DF80EE80FD800C811B81AA81BA
S1135BC0B981CE0FD11D0FB6F894DEBF0FBECDBF85
S1135BD0ED010895AA1BBB1B51E107C0AA1FBB1FFF
S1135BE0A617B70710F0A61BB70B881F991F5A9565
S1135BF0A9F780959095BC01CD010895283008F04F
S1135C0027E03327DA01990F311D87FD9160009653
S1135C106105710539F432602E5F3D9330E32A95B6
S1135C20E1F708959F3F30F080387105610509F070
S1135C303C5F3C5F3D93913008F08068911DDF9399
S1135C40CF931F930F93FF92EF92192F987F9695FE
S1135C50E92F96959695E90FFF27E25DFC4D99276C
S1135C603327EE24FF24A701E70105900894079445
S1135C7028F4360FE71EF81E491F511D660F771FC3
S1135C80881F991F0694A1F70590079428F4E70E3E
S1135C90F81E491F561FC11D770F881F991F661FC5
S1135CA00694A1F70590079428F4F80E491F561F8F
S1135CB0C71FD11D880F991F661F771F0694A1F770
S1135CC00590079420F4490F561FC71FD81F990F3A
S1135CD0661F771F881F0694A9F784911095177083
S1135CE041F0D695C79557954795F794E7941A953B
