:1000000012C019C018C017C016C015C014C013C044
:1000100012C011C010C00FC00EC00DC00CC00BC06C
:100020000AC009C008C011241FBECFE5D4E0DEBF5E
:10003000CDBF57D0E7C2E4CFDC01CB01880F991FB9
:10004000AA1FBB1F880F991FAA1FBB1F9C01AD01D0
:10005000220F331F441F551F220F331F441F551FEC
:1000600060E072E18AE790E0ABD2CA01B901615069
:1000700071098109910904D240D2272F332720BD6D
:1000800069B988E18AB986E880BD08955D9BFECF95
:100090008CB908955F9BFECF8CB108958BB1881FFA
:1000A0008827881F0895813619F4959AEFDF0895FF
:1000B000823619F49598EADF0895833619F4969AF2
:1000C000E5DF0895843619F49698E0DF08958536C3
:1000D00019F4979ADBDF0895863611F49798D6DFE6
:1000E00008958FE088BB80EF87BB12BA80EE81BB9A
:1000F00068E572E080E090E09FDF2EE088E190E02C
:100100000FB6F894A89581BD0FBE21BD0FEE1FED6F
:10011000DFEBCFE7A895C2DF882311F0BBDFC3DF99
:1001200008BB22E02A95F1F700C0B09917C081E022
:10013000ADDF8FE79AE126E0815090402040E1F763
:1001400000C00000B09BFECF8FEF90E722E081500F
:1001500090402040E1F700C000004AC0B19917C0AC
:1001600084E094DF8FE79AE126E0815090402040C0
:10017000E1F700C00000B19BFECF8FEF90E722E0D7
:10018000815090402040E1F700C0000031C0B2999A
:1001900017C087E07BDF8FE79AE126E0815090402F
:1001A0002040E1F700C00000B29BFECF8FEF90E748
:1001B00022E0815090402040E1F700C0000018C0CC
:1001C000B39916C08BE062DF8FE79AE126E0815099
:1001D00090402040E1F700C00000B39BFECF8FEFBE
:1001E00090E722E0815090402040E1F700C00000FD
:1001F00055DF882311F04EDF56DF18BB82E08A9569
:10020000F1F700C0B09917C082E040DF9FE72AE114
:1002100086E0915020408040E1F700C00000B09B94
:10022000FECF9FEF20E782E0915020408040E1F731
:1002300000C000004AC0B19917C085E027DF9FE7E2
:100240002AE186E0915020408040E1F700C00000A4
:10025000B19BFECF9FEF20E782E09150204080408D
:10026000E1F700C0000031C0B29917C088E00EDF8E
:100270009FE72AE186E0915020408040E1F700C0EE
:100280000000B29BFECF9FEF20E782E0915020401C
:100290008040E1F700C0000018C0B39916C08AE0A2
:1002A000F5DE9FE72AE186E0915020408040E1F7AB
:1002B00000C00000B39BFECF9FEF20E782E091508B
:1002C00020408040E1F700C00000E8DE882311F004
:1002D000E1DEE9DED8BB92E09A95F1F700C0B09973
:1002E00017C083E0D3DE2FE78AE196E021508040FB
:1002F0009040E1F700C00000B09BFECF2FEF80E7F9
:1003000092E0215080409040E1F700C000004AC0D8
:10031000B19917C086E0BADE2FE78AE196E0215056
:1003200080409040E1F700C00000B19BFECF2FEF6E
:1003300080E792E0215080409040E1F700C000004B
:1003400031C0B29917C089E0A1DE2FE78AE196E0BB
:10035000215080409040E1F700C00000B29BFECFEA
:100360002FEF80E792E0215080409040E1F700C0FD
:10037000000018C0B39916C08CE088DE2FE78AE130
:1003800096E0215080409040E1F700C00000B39B10
:10039000FECF2FEF80E792E0215080409040E1F7C0
:1003A00000C000007BDE882311F074DE7CDEC8BB59
:1003B00022E02A95F1F700C0B09917C08DE066DE03
:1003C0008FE79AE126E0815090402040E1F700C09D
:1003D0000000B09BFECF8FEF90E722E0815090406D
:1003E0002040E1F700C0000095CEB19917C08EE023
:1003F0004DDE8FE79AE126E0815090402040E1F702
:1004000000C00000B19BFECF8FEF90E722E081504B
:1004100090402040E1F700C000007CCEB29917C0A8
:100420008FE034DE8FE79AE126E081509040204053
:10043000E1F700C00000B29BFECF8FEF90E722E013
:10044000815090402040E1F700C0000063CEB39996
:1004500061CE80E11BDE8FE79AE126E0815090407B
:100460002040E1F700C00000B39BFECF8FEF90E784
:1004700022E0815090402040E1F700C000004ACEC9
:10048000E89409C097FB3EF490958095709561952E
:100490007F4F8F4F9F4F9923A9F0F92F96E9BB27E4
:1004A0009395F695879577956795B795F111F8CF60
:1004B000FAF4BB0F11F460FF1BC06F5F7F4F8F4FCB
:1004C0009F4F16C0882311F096E911C0772321F0C1
:1004D0009EE8872F762F05C0662371F096E8862F59
:1004E00070E060E02AF09A95660F771F881FDAF7B0
:1004F000880F9695879597F9089541D0A8F19E5752
:10050000A8F1985160F039F1983070F5092E9927CB
:10051000660F771F881F991F0A94D1F71CC0BB274D
:10052000993F4CF4B111B1E0B62B672F782F882793
:10053000985FB1F708C0869577956795B79508F4E9
:10054000B1609395C1F7BB0F30F411F460FF03C0A5
:100550006F5F7F4F8F4F3EF49095809570956195BA
:100560007F4F8F4F9F4F0895689424C022C057FD3E
:100570009058440F551F59F05F3F71F04795880F11
:1005800097FB991F61F09F3F79F0879508951216A8
:1005900013061406551FF2CF4695F1DF08C0161654
:1005A00017061806991FF1CF869571056105089405
:1005B0000895E894BB2766277727CB0197F908951C
:1005C000A1E21A2EAA1BBB1BFD010DC0AA1FBB1F57
:1005D000EE1FFF1FA217B307E407F50720F0A21BC9
:1005E000B30BE40BF50B661F771F881F991F1A9436
:1005F00069F760957095809590959B01AC01BD0160
:08060000CF010895F894FFCF2B
:00000001FF
