S01000006669726D776172652E73726563B7
S11300000C942A000C94F7020C9447000C944700BB
S11300100C9447000C9447000C9447000C9458032C
S11300200C9447000C9447000C9447000C94470030
S11300300C9447000C9447000C9447000C94470020
S11300400C9447000C9447000C9447000C94470010
S11300500C94470011241FBECFE5D8E0DEBFCDBF0E
S113006013E0A0E6B0E0EAEDF3E202C005900D92E1
S1130070A231B107D9F723E0A2E1B3E001C01D9298
S1130080A435B207E1F70E9475040C94EB110C94AB
S1130090000080FF02C0AC9A01C0AC9881FF02C08E
S11300A0AD9A01C0AD9882FF02C0AE9A01C0AE986D
S11300B083FF02C0AF9A0895AF980895CF93C82FD5
S11300C0A998AB9882958F700E944900AB9A87EEED
S11300D093E00197F1F700C00000AB9887EE93E03E
S11300E00197F1F700C000008C2F8F700E94490027
S11300F0AB9A87EE93E00197F1F700C00000AB984C
S113010087EE93E00197F1F700C00000CF910895C6
S113011081E00E945E00089580E00E9449008FE122
S11301209EE40197F1F700C0000083E30E945E00A3
S113013087E893E10197F1F700C0000082E30E9491
S11301405E0087E893E10197F1F700C0000088E2C0
S11301500E945E0087E893E10197F1F700C0000078
S113016088E20E945E0087E893E10197F1F700C0FE
S1130170000086E00E945E0087E893E10197F1F7B2
S113018000C000008CE00E945E0087E893E10197C4
S1130190F1F700C0000081E00E945E0087E893E16F
S11301A00197F1F700C000000895811105C080E8AF
S11301B0860F0E945E000895813029F480EC860F3A
S11301C00E945E000895823029F484E9860F0E941B
S11301D05E000895833021F484ED860F0E945E0052
S11301E00895CF93C82FA99AAB9882958F700E94D7
S11301F04900AB9A87EE93E00197F1F700C0000045
S1130200AB9887EE93E00197F1F700C000008C2FC4
S11302108F700E944900AB9A87EE93E00197F1F743
S113022000C00000AB9887EE93E00197F1F700C09F
S11302300000CF910895CF93DF93EC012196FC0148
S11302408081882329F00E94F10089918111FBCFDC
S1130250DF91CF9108954F925F926F927F928F9228
S11302609F92AF92BF92EF92FF920F931F93CF93FF
S1130270DF93CDB7DEB72A970FB6F894DEBF0FBE73
S1130280CDBF4B015C017A010E94F10F9F770E9460
S1130290BE0FFE0131962AE0DF011D922A95E9F78F
S11302A06115710581059105D1F08E01055F1F4F20
S11302B00F2EFAE04F2E512C612C712CF02DA3013E
S11302C092010E946F11F80162938F01622F732FC4
S11302D0842F952F611571058105910581F7FFEF35
S11302E0EF16FF0669F4898181110FC0FE01329671
S11302F000E010E00F5F1F4F81918823D9F307C0FE
S11303000AE010E00E191F0902C000E010E0BB2053
S11303101CF48DE20E94F1000A3011059CF481E086
S113032090E08C0F9D1F080F191F7E019BE0E90EC2
S1130330F11CD8018D918D01805D0E94F1000E1594
S11303401F05B9F72A960FB6F894DEBF0FBECDBFCE
S1130350DF91CF911F910F91FF90EF90BF90AF90DD
S11303609F908F907F906F905F904F9008958F92A1
S11303709F92AF92BF92DF92EF92FF920F931F93DF
S1130380CF93DF93CDB7DEB72A970FB6F894DEBFCD
S11303900FBECDBF4B015C01D42E99231CF48DE21A
S11303A00E94F100C501B4010E94F10F9F770E94E1
S11303B0BE0F16161706180619060CF59E012F5FB8
S11303C03F4F790100E010E00F2EFAE08F2E912CC0
S11303D0A12CB12CF02D0F5F1F4FA50194010E9499
S11303E06F11605DF70161937F01622F732F842F7A
S11303F0952F16161706180619066CF302C000E0AE
S113040010E09E012F5F3F4F7901F901E00FF11FCA
S11304101082C9010E94A811C7010E941B01F701A3
S113042001900020E9F73197EE19FF09DE1A92F0E6
S1130430ED2CFF24E7FCF0941E141F047CF400E070
S113044010E080E20E94F1000F5F1F4F0E151F05A0
S1130450C4F304C08EE991E00E941B012A960FB6F2
S1130460F894DEBF0FBECDBFDF91CF911F910F91E6
S1130470FF90EF90DF90BF90AF909F908F90089582
S113048087B3806A87BB86E58DB908958FB9779B5A
S1130490FECF8FB10895BC9AC49A0E944002089579
S11304A0CF93DF93C4982DE02A95F1F7000080E004
S11304B00E944602C82FD0E0DC2FCC2780E00E94A7
S11304C04602C49A9E01280F311DC901DF91CF91C4
S11304D008950E94500282FD0DC0887F9F779595F4
S11304E087959595879595958795959587959595F0
S11304F08795089580ED97E008958FEF8BBB80EF8B
S11305008ABB08958FEE8BBB87EE93E00197F1F7DA
S113051000C00000C89B3BC0C99B3CC0CA9B3DC0F7
S1130520CB9B3EC08FED8BBB87EE93E00197F1F739
S113053000C00000C89B37C0C99B38C0CA9B39C0E3
S1130540CB9B3AC08FEB8BBB87EE93E00197F1F71F
S113055000C00000C89B33C0C99B34C0CA9B35C0CF
S1130560CB9B36C08FE78BBB87EE93E00197F1F707
S113057000C00000C89B2FC0C99B30C0CA9B31C0BB
S1130580CB9B32C08FEF8BBB80E090E0089581E07D
S113059090E0089584E090E0089587E090E0089565
S11305A08BE090E0089582E090E0089585E090E08B
S11305B0089588E090E008958AE090E0089583E04B
S11305C090E0089586E090E0089589E090E0089531
S11305D08CE090E008958DE090E008958EE090E046
S11305E008958FE090E0089580E190E008951F92CF
S11305F00F920FB60F9211248F939F93AF93BF93D3
S11306008091400390914103A0914203B091430330
S11306100196A11DB11D8093400390934103A093C3
S11306204203B0934303BF91AF919F918F910F9079
S11306300FBE0F901F90189520913703211114C0FD
S113064090934D0380934C0390934F0380934E03F8
S113065090935103809350039093530380935203D8
S113066021E0209337030895EEE4F3E02081318103
S113067030934D0320934C03A0E5B3E02D913C91BE
S1130680119731832083E2E5F3E0208131812D93BA
S11306903C939183808301968217930721F490936E
S11306A0530380935203809152039091530308950E
S11306B01F920F920FB60F9211244F925F926F9276
S11306C07F928F929F92AF92BF92CF92DF92EF92DE
S11306D0FF922F933F934F935F936F937F938F93E7
S11306E09F93AF93BF93EF93FF93CF93DF9300D088
S11306F000D0CDB7DEB7A895809136038F5F809385
S113070036030E946902BC01882777FD8095982FE3
S11307100E94F10F2091220330912303409124037E
S1130720509125030E94EE0E6093220370932303DD
S1130730809324039093250320913603243008F4F6
S1130740B1C0C0904803D0904903E0904A03F090B0
S11307504B032FEFC21AD20AE20AF20AC0924803EC
S1130760D0924903E0924A03F0924B0320E030E038
S113077040E85EE30E94A1100E94041160931E03EE
S113078070931F0380932003909321030E94C30F4F
S1130790CB010E941C03BC0180E090E00E94EF0F9B
S11307A06B017C0160931E0370931F0380932003ED
S11307B09093210380912A0390912B03A0912C0301
S11307C0B0912D0389839A83AB83BC834090320319
S11307D05090330360903403709035039C01AD0155
S11307E06091260370912703809128039091290337
S11307F00E94ED0E4B015C01A3019201C701B601F9
S11308000E94ED0E9B01AC01C501B4010E94A11030
S11308104B015C01609316037093170380931803D4
S113082090931903A301920160912E0370912F03F9
S113083080913003909131030E94ED0E9B01AC0135
S1130840609312037093130380931403909315031E
S1130850C501B4010E94560F9B01AC0169817A81E4
S11308608B819C810E94EE0E20E030E048EC52E443
S11308700E94560F9B01AC01C701B6010E94A11052
S113088060931A0370931B0380931C0390931D03BE
S11308901092220310922303109224031092250332
S11308A0109236030F900F900F900F90DF91CF911D
S11308B0FF91EF91BF91AF919F918F917F916F9134
S11308C05F914F913F912F91FF90EF90DF90CF90E8
S11308D0BF90AF909F908F907F906F905F904F905C
S11308E00F900FBE0F901F901895CF93DF93CDB745
S11308F0DEB7A0970FB6F894DEBF0FBECDBF87B3A7
S1130900876087BB8EEF84BB0E944B020E948C00E1
S11309100E947D021FBC8CE08EBD8FE08BBD82E403
S11309208ABD8BB780648BBF84B784BF85B783606F
S113093085BF80E48ABF80E189BF78942DE088E197
S113094090E00FB6F894A89581BD0FBE21BD00E0DC
S113095016E0188A198A1A8A1B8A1D821E821F822F
S11309601886812C912C5401C12CD12C760126E0BF
S11309702C8B1D8A1E8A1F8A188E0F2EF6E03F2E9E
S1130980F02D80E08D8790E09E87A0E0AF87212C3A
S113099089829A82AB82BC820DC01D821E821F8214
S11309A0188619821A821B821C8204C049825A82C8
S11309B06B827C8288B3887F88BB8CE090E00E9445
S11309C0B81160933203709333038093340390938C
S11309D0350388E090E00E94B81160932E03709371
S11309E02F03809330039093310384E090E00E94BE
S11309F0B81160932A0370932B0380932C03909374
S1130A002D0380E090E00E94B81160932603709358
S1130A102703809328039093290380E190E00E94A8
S1130A20B811609338037093390380933A03909319
S1130A303B030E9488006FE080E00E94D50080E6BE
S1130A4090E00E941B0160E081E00E94D50086E6F0
S1130A5090E00E941B0160E082E00E94D50089E7DB
S1130A6090E00E941B0160E083E00E94D50085E8CD
S1130A7090E00E941B010E948202892BE1F7BFE7EC
S1130A80E8E3F1E0B150E040F040E1F700C00000DD
S1130A90409144035091450360914603709147038C
S1130AA08091480390914903A0914A03B0914B036C
S1130AB0481759076A077B07D1F16CE081E00E946F
S1130AC0D50020E030E04AEF54E460911E037091B9
S1130AD01F0380912003909121030E94520F8111E2
S1130AE005C083E990E00E941B0111C060911A03C4
S1130AF070911B0380911C0390911D030E94BE0FF3
S1130B0044E00E94B70183E492E00E941B018091BB
S1130B10480390914903A0914A03B0914B038093F9
S1130B20440390934503A0934603B09347030E9464
S1130B308202882309F4ACCF8C3041F08B3009F069
S1130B40A7CF49805A806B807C80E4C70E948800CC
S1130B506FE080E00E94D50080E690E00E941B01D7
S1130B6060E081E00E94D5008AE990E00E941B01C8
S1130B7060E082E00E94D5008AEA90E00E941B01B6
S1130B8060E083E00E94D5008AEB90E00E941B01A4
S1130B900E948202892BE1F72FE788E391E021503C
S1130BA080409040E1F700C000000E948202882348
S1130BB0E1F38B3009F4F1CE8F3019F08C30A9F7C2
S1130BC043C00E94880060E080E00E94D50082EC6F
S1130BD090E00E941B0160E081E00E94D50085ED59
S1130BE090E00E941B0160E082E00E94D50088EE44
S1130BF090E00E941B0160E083E00E94D5008BEF2F
S1130C0090E00E941B010E948202892BE1F7AFE76A
S1130C10B8E3E1E0A150B040E040E1F700C00000DB
S1130C200E9482028823E1F38D3009F42AC48E30B5
S1130C3009F43AC48F3009F44DC4803109F45CC41A
S1130C408B50823068F782CF0E94880060E080E099
S1130C500E94D5008EE091E00E941B0160E081E0DB
S1130C600E94D5008EE191E00E941B0160E082E0C9
S1130C700E94D5008BE291E00E941B0160E083E0BA
S1130C800E94D5008CE391E00E941B01F1E0F987FA
S1130C901D821E821F82188619821A821B821C8260
S1130CA00C94570E21E0298702C083E089870E94B3
S1130CB08202892BE1F79FE7A8E3B1E09150A040BD
S1130CC0B040E1F700C00000F985F130C1F4632DB4
S1130CD080E00E94D5008CE093E00E941B01632D0C
S1130CE080E00E94D5008DE00E945E0000E0132D9C
S1130CF022E02987CD84DE84EF84F22C70C18985BB
S1130D008330C1F4632D81E00E94D5008CE093E030
S1130D100E941B01632D81E00E94D5008DE00E949A
S1130D205E0001E0132D94E09987CD84DE84EF8486
S1130D30F22C55C1A985A530B9F4632D82E00E9437
S1130D40D5008CE093E00E941B01632D82E00E9499
S1130D50D5008DE00E945E0002E0132D3986CD841B
S1130D60DE84EF84F22C3BC1B985B73069F50E946B
S1130D70880060E080E00E94D50081E591E00E9457
S1130D801B0160E081E00E94D50086E691E00E94AC
S1130D901B0160E082E00E94D50087E791E00E9499
S1130DA01B0160E083E00E94D5008BE891E00E9483
S1130DB01B018DE00E945E0002E0132DB986CD84F4
S1130DC0DE84EF84F22C0BC1E985E83009F048C0D9
S1130DD04091440350914503609146037091470349
S1130DE08091480390914903A0914A03B0914B0329
S1130DF0481759076A077B0709F4F1C08CE00E9481
S1130E005E0060E181E00E94D50060911E03709154
S1130E101F0380912003909121030E94BE0F44E0A0
S1130E200E94B7018091480390914903A0914A031D
S1130E30B0914B038093440390934503A0934603DE
S1130E40B0934703612F802F0E94D5001A3021F4FC
S1130E508CE00E945E00C3C08DE00E945E00BFC0B3
S1130E60F985F93009F040C00E94880060E080E014
S1130E700E94D50080EA91E00E941B0160E081E0BD
S1130E800E94D50085EB91E00E941B016EE081E099
S1130E900E94D50060913C0370913D0380913E0314
S1130EA090913F03432D0E94B70160E082E00E94CD
S1130EB0D50084EC91E00E941B0160E083E00E9475
S1130EC0D5008BE891E00E941B01632D82E00E9413
S1130ED0D5008DE00E945E0002E0132DA986CD842A
S1130EE0DE84EF84F22C7BC029852B3071F50E94BF
S1130EF0880060E080E00E94D50081E591E00E94D6
S1130F001B0160E081E00E94D50086E691E00E942A
S1130F101B0160E082E00E94D50084ED91E00E9414
S1130F201B0160E083E00E94D5008BE891E00E9401
S1130F301B018DE00E945E0002E0132D8CE0898786
S1130F40CD84DE84EF84F22C4AC099859C3009F06C
S1130F5046C040914403509145036091460370910B
S1130F6047038091480390914903A0914A03B091AB
S1130F704B03481759076A077B0789F18CE00E94E5
S1130F805E0060E181E00E94D50060911E037091D3
S1130F901F0380912003909121030E94BE0F44E01F
S1130FA00E94B7018091480390914903A0914A039C
S1130FB0B0914B038093440390934503A09346035D
S1130FC0B0934703612F802F0E94D5001A3021F47B
S1130FD08CE00E945E0003C08DE00E945E000E94CF
S1130FE08202882309F470CE8B30A9F449825A8294
S1130FF06B827C828CE00E945E0089858D7F8830C4
S113100009F484C5B985BC3009F0A0CD49805A8063
S11310106B807C807FC5803109F04BC01730D0F0E5
S11310201150612F802F0E94D50080E20E94F100B0
S1131030612F802F0E94D5008DE00E945E00C701C1
S1131040B6012AE030E040E050E00E944D11690111
S11310507A01ADC6E985E23021F48CE00E945E009D
S113106075CDF985F43009F41DCEF63009F41DCEA2
S1131070F83061F449825A826B827C828CE00E944F
S11310805E0049805A806B807C8044C529852A3063
S113109009F440C52C3009F08AC649825A826B8211
S11310A07C828CE00E945E0049805A806B807C8048
S11310B031C58C3009F0CFC08985823009F47BC6F4
S11310C0843009F47BC6863089F449825A826B8263
S11310D07C828CE00E945E00C986DA86EB86FC8600
S11310E016E0C12CD12CE12CF12C18C29985983032
S11310F009F04FC040911E0350911F0360912003DB
S1131100709121034093320350933303609334036B
S1131110709335038CE090E00E94BE11C701B601C4
S11311200E94EF0F20E030E048EC52E40E94A1104E
S113113020913203309133034091340350913503AD
S11311400E94560FAB01BC0184E090E00E94BE11E6
S11311508CE00E945E000E9488008CE00E945E0089
S113116060E080E00E94D50081E591E00E941B01CF
S113117060E081E00E94D50087EE91E00E941B01AF
S113118060E082E00E94D5008CEF91E00E941B0198
S1131190B3C5A985AA3001F520913C0330913D03E4
S11311A040913E0350913F03A4E6B0E00E948E11AB
S11311B0A70196010E944D11BA01A90180E190E0B6
S11311C00E94BE118CE00E945E001C898986CD8835
S11311D0DE88EF88F88C6BCDB985BC3009F0E7C5A3
S11311E049825A826B827C8240911E0350911F0374
S11311F0609120037091210340932E0350932F0399
S1131200609330037093310388E090E00E94BE1134
S1131210C701B6010E94EF0F20E030E048EC52E431
S11312200E94A11020912E0330912F03409130038E
S1131230509131030E94560FAB01BC0180E090E055
S11312400E94BE118CE00E945E0016E0C12CD12CDD
S1131250E12CF12CAFCB1A3008F004C1893001F530
S1131260612F802F0E94D50089E30E94F1001F5F47
S1131270CC0CDD1CEE1CFF1CD701C601880F991F86
S1131280AA1FBB1F880F991FAA1FBB1FC80ED91EF8
S1131290EA1EFB1EE9E0CE0ED11CE11CF11CDCC0F1
S11312A08A30D9F4612F802F0E94D50080E30E94F8
S11312B0F1001F5FCC0CDD1CEE1CFF1CD701C60126
S11312C0880F991FAA1FBB1F880F991FAA1FBB1F36
S11312D0C80ED91EEA1EFB1EBFC08530B1F4612FB3
S11312E0802F0E94D50085E30E94F1001F5FAAE0D1
S11312F0B0E0A70196010E948E116B017C01F5E01C
S1131300CF0ED11CE11CF11CA7C08630B1F4612FB3
S1131310802F0E94D50086E30E94F1001F5FAAE09F
S1131320B0E0A70196010E948E116B017C0126E0BA
S1131330C20ED11CE11CF11C8FC08730B1F4612FA7
S1131340802F0E94D50087E30E94F1001F5FAAE06E
S1131350B0E0A70196010E948E116B017C01A7E009
S1131360CA0ED11CE11CF11C77C08830B1F4612F86
S1131370802F0E94D50088E30E94F1001F5FAAE03D
S1131380B0E0A70196010E948E116B017C01B8E0C8
S1131390CB0ED11CE11CF11C5FC08130B1F4612F74
S11313A0802F0E94D50081E30E94F1001F5FAAE014
S11313B0B0E0A70196010E948E116B017C01EFEF52
S11313C0CE1ADE0AEE0AFE0A47C08230B1F4612F5B
S11313D0802F0E94D50082E30E94F1001F5FAAE0E3
S11313E0B0E0A70196010E948E116B017C01F2E02E
S11313F0CF0ED11CE11CF11C2FC08330B1F4612F3E
S1131400802F0E94D50083E30E94F1001F5FAAE0B1
S1131410B0E0A70196010E948E116B017C0123E0CC
S1131420C20ED11CE11CF11C17C08430A9F4612F39
S1131430802F0E94D50084E30E94F1001F5FAAE080
S1131440B0E0A70196010E948E116B017C01A4E01B
S1131450CA0ED11CE11CF11C1A3029F48CE00E9444
S11314605E0001C000C00E948202892BE1F78FE771
S113147098E3A1E081509040A040E1F700C0000053
S113148023CCB2E0B9871A861B861C86E9E1ED837A
S11314901E821F82188686E490E0A0E0B0E0898373
S11314A09A83AB83BC833AC092E099871A861B86E1
S11314B01C8682E390E0A0E0B0E08D839E83AF833E
S11314C0B88786E490E0A0E0B0E089839A83AB8398
S11314D0BC8324C092E099871A861B861C8682E30B
S11314E090E0A0E0B0E08D839E83AF83B8878983CA
S11314F09A83AB83BC8312C092E099871A861B86B9
S11315001C8682E390E0A0E0B0E08D839E83AF83ED
S1131510B8879CE399831A821B821C820E948800EC
S113152060E080E00E94D5008EE091E00E941B0103
S113153066E080E00E94D500A981A8A3BA81B98F92
S1131540EB81EA8FFC81FB8F44E069817A818B8196
S11315509C810E94B70160E081E00E94D5008EE189
S113156091E00E941B0166E081E00E94D5002D817C
S11315702C8F8E818D8F9F819E8FA885AF8F44E0A5
S11315806D817E818F8198850E94B70160E082E041
S11315900E94D5008BE291E00E941B0166E082E08C
S11315A00E94D500B984AA849B848C8444E0698514
S11315B07A858B859C850E94B70160E083E00E9458
S11315C0D5008AE092E00E941B0178A00E9482026A
S11315D0892BE1F778A2BFE7E8E3F1E0B150E040FE
S11315E0F040E1F700C0000078A00E948202882346
S11315F0E1F38B3009F4AACA8C30B9F778A20E94BF
S1131600880060E080E00E94D5008FE192E00E94B3
S11316101B016BE080E00E94D50044E068A1798D55
S11316208A8D9B8D0E94B70160E081E00E94D50005
S113163084E392E00E941B016BE081E00E94D500EC
S113164044E06C8D7D8D8E8D9F8D0E94B70160E08E
S113165082E00E94D50086E492E00E941B016CE0C7
S113166082E00E94D50043E06B2D7A2D892D982DC0
S11316700E94B70160E083E00E94D5008AE592E011
S11316800E941B012FE788E391E0215080409040A5
S1131690E1F700C000001092400310924103109241
S11316A0420310924303109248031092490310928C
S11316B04A0310924B03B8A040C080914803909114
S11316C04903A0914A03B0914B03892B8A2B8B2B9E
S11316D0A1F1B8A2C29A65E080E00E94D5008EE72D
S11316E00E94F100AFE7B8E3E1E0A150B040E04070
S11316F0E1F700C000002091400330914103409184
S1131700420350914303A4E6B0E00E948E1120915D
S113171038033091390340913A0350913B030E94BE
S11317204D1149015A0189819A81AB81BC812817E5
S113173039074A075B0730F054C00E948202892BA4
S1131740E1F7BBCF49805A806B807C800E94820283
S1131750882331F08C3009F444C08F3009F42AC94D
S113176066E080E00E94D50044E050E0C501B40189
S11317700E942B0166E081E00E94D50060911A036B
S113178070911B0380911C0390911D030E94BE0F56
S113179044E050E00E942B01AFE0B7E21197F1F76B
S11317A000C0000020914003309141034091420366
S11317B050914303A4E6B0E00E948E1120913803B7
S11317C03091390340913A0350913B030E944D11EB
S11317D049015A01241535054605570508F4B6CFC5
S11317E000C0C29865E080E00E94D5008FEF0E949F
S11317F0F10066E080E00E94D50044E050E068A17A
S1131800798D8A8D9B8D0E942B01FFE728E381E06F
S1131810F15020408040E1F700C0000010924803DE
S11318201092490310924A0310924B0322C08091F4
S1131830480390914903A0914A03B0914B03892B2B
S11318408A2B8B2BB1F0C19A65E081E00E94D50010
S11318508EE70E94F1009FE7A8E3B1E09150A04019
S1131860B040E1F700C0000088889988AA88BB8846
S113187005C00E948202892BE1F7D9CF409144032D
S1131880509145036091460370914703809148034A
S113189090914903A0914A03B0914B03481759070B
S11318A06A077B0731F160911A0370911B038091E1
S11318B01C0390911D030E94C30F4B015C0166E061
S11318C081E00E94D50044E050E0C501B4010E94CB
S11318D02B018091480390914903A0914A03B09150
S11318E04B038093440390934503A0934603B09322
S11318F047038D819E81AF81B88588169906AA0613
S1131900BB0678F40E948202882309F4B7CF8C3096
S113191041F08F3009F0B2CF888A998AAA8ABB8AAB
S113192049C8888A998AAA8ABB8AC19865E081E0F5
S11319300E94D5008FEF0E94F10066E081E00E94D2
S1131940D50044E050E06C8D7D8D8E8D9F8D0E947E
S11319502B01109248031092490310924A031092EB
S11319604B0365E082E00E94D5008EE70E94F100FF
S11319700E948202892BE1F79FE7A8E3B1E091502E
S1131980A040B040E1F700C00000609148037091AE
S1131990490380914A0390914B032CE330E040E0EB
S11319A050E00E944D1149015A0189859A85AB8501
S11319B0BC85281739074A075B0778F1C09A65E0A8
S11319C082E00E94D5008FEF0E94F100109248033C
S11319D01092490310924A0310924B030E9488000C
S11319E08FE692E00E941B016FE080E00E94D50028
S11319F080E690E00E941B0166E081E00E94D50031
S1131A0089E792E00E941B0160E083E00E94D50018
S1131A1083E892E00E941B012DC066E082E00E94F0
S1131A20D50042E050E0C501B4010E942B0169E0F9
S1131A3082E00E94D500609148037091490380912F
S1131A404A0390914B032CE330E040E050E00E94C5
S1131A504D1142E050E00E942B010E948202882333
S1131A6009F493CF8C3009F4A9CF8F3009F08DCFCE
S1131A700C94DA040E948202892BE1F79FE7A8E321
S1131A80B1E09150A040B040E1F700C000000F2E3B
S1131A90FCE3CF2ED12CE12CF12CF02D66E080E07C
S1131AA00E94D500609148037091490380914A03D4
S1131AB090914B03A70196010E944D11CA01B901EF
S1131AC042E050E00E942B0169E080E00E94D500D2
S1131AD0609148037091490380914A0390914B03AC
S1131AE0A70196010E944D1142E050E00E942B0193
S1131AF00E9482028C3019F4C098F894FFCFEFE072
S1131B00F7E23197F1F700C00000C8CF49805A804E
S1131B106B807C800E94880060E080E00E94D50099
S1131B2080E992E00E941B0160E081E00E94D50000
S1131B3085EA92E00E941B0160E083E00E94D500E8
S1131B408BEB92E00E941B010E948202892BE1F739
S1131B50FFE728E381E0F15020408040E1F700C036
S1131B6000000E948202882339F08D3061F08B508E
S1131B70823010F40C94D604AFE0B7E21197F1F779
S1131B8000C00000EECF0E9488008CE00E945E003E
S1131B9060E080E00E94D50080EA91E00E941B0191
S1131BA060E082E00E94D50080ED92E00E941B017B
S1131BB060E083E00E94D5008EED92E00E941B015C
S1131BC00E948202892BE1F7BFE7E8E3F1E0B1501C
S1131BD0E040F040E1F700C000000E948202882348
S1131BE029F08C3051F08F3009F494CF8FE097E2D4
S1131BF00197F1F700C00000F0CF49825A826B824E
S1131C007C8210924003109241031092420310927E
S1131C10430310923C0310923D0310923E03109232
S1131C203F03C29A60E081E00E94D50088EE92E012
S1131C300E941B0160E082E00E94D50087EF92E0E1
S1131C400E941B0160E083E00E94D50087E093E0DE
S1131C500E941B010E948202892BE1F79FE7A8E3FF
S1131C60B1E09150A040B040E1F700C000000E94F4
S1131C7082028C3089F5C298EFE7FAE126E0E15060
S1131C80F0402040E1F700C00000809140039091B3
S1131C904103A0914203B091430380933C0390938A
S1131CA03D03A0933E03B0933F0389E089870F2E41
S1131CB0FAE0AF2EF02D6894BB24B3F80F2EF5E0B4
S1131CC09F2EF02D0F2EF7E08F2EF02D49805A8095
S1131CD06B807C800C9457066EE081E00E94D500F6
S1131CE060914003709141038091420390914303BA
S1131CF046E00E94B701BBCF0E948202892BE1F724
S1131D00AFE7B8E3E1E0A150B040E040E1F700C044
S1131D100000C19A409144035091450360914603E9
S1131D20709147038091480390914903A0914A031D
S1131D30B0914B03481759076A077B0709F16EE016
S1131D4081E00E94D50060911E0370911F03809171
S1131D502003909121030E94BE0F44E00E94B7012A
S1131D608091480390914903A0914A03B0914B0399
S1131D708093440390934503A0934603B093470391
S1131D800E9482028C3031F6C198FFE72AE186E096
S1131D90F15020408040E1F700C000001C899BE026
S1131DA09987CD88DE88EF88F88C0C9457061A3012
S1131DB008F452CB58CBB3E0B98707C0CD82DE829A
S1131DC0EF82F88673016201998626013701132D8B
S1131DD0CD84DE84EF84F22C46CB5058BB27AA274F
S1131DE00ED075C166D130F06BD120F031F49F3F35
S1131DF011F41EF45BC10EF4E095E7FB51C1E92F29
S1131E0077D180F3BA17620773078407950718F030
S1131E1071F49EF58FC10EF4E0950B2EBA2FA02D10
S1131E200B01B90190010C01CA01A0011124FF2783
S1131E30591B99F0593F50F4503E68F11A16F0407E
S1131E40A22F232F342F4427585FF3CF469537957D
S1131E502795A795F0405395C9F77EF41F16BA0B42
S1131E60620B730B840BBAF09150A1F0FF0FBB1FF0
S1131E70661F771F881FC2F70EC0BA0F621F731F39
S1131E80841F48F4879577956795B795F7959E3F96
S1131E9008F0B3CF9395880F08F09927EE0F979524
S1131EA087950895D9D008F481E008950CD00FC126
S1131EB007D140F0FED030F021F45F3F19F0F0C0BC
S1131EC0511139C1F3C014D198F39923C9F355239F
S1131ED0B1F3951B550BBB27AA2762177307840719
S1131EE038F09F5F5F4F220F331F441FAA1FA9F3CF
S1131EF033D00E2E3AF0E0E830D091505040E695C1
S1131F00001CCAF729D0FE2F27D0660F771F881F21
S1131F10BB1F261737074807AB07B0E809F0BB0B10
S1131F20802DBF01FF2793585F4F2AF09E3F510534
S1131F3068F0B6C000C15F3FECF3983EDCF38695D1
S1131F4077956795B795F7959F5FC9F7880F911DAA
S1131F509695879597F90895E1E0660F771F881F96
S1131F60BB1F621773078407BA0720F0621B730B49
S1131F70840BBA0BEE1F88F7E095089504D068949B
S1131F80B111D9C00895BCD088F09F5790F0B92FF3
S1131F909927B751A0F0D1F0660F771F881F991FBA
S1131FA01AF0BA95C9F712C0B13081F0C3D0B1E0CC
S1131FB00895C0C0672F782F8827B85F39F0B93FDC
S1131FC0CCF3869577956795B395D9F73EF49095BC
S1131FD08095709561957F4F8F4F9F4F0895E8943A
S1131FE009C097FB3EF490958095709561957F4F5D
S1131FF08F4F9F4F9923A9F0F92F96E9BB2793950B
S1132000F695879577956795B795F111F8CFFAF41A
S1132010BB0F11F460FF1BC06F5F7F4F8F4F9F4F4B
S113202016C0882311F096E911C0772321F09EE8A9
S1132030872F762F05C0662371F096E8862F70E00F
S113204060E02AF09A95660F771F881FDAF7880FE9
S11320509695879597F90895990F0008550FAA0B3F
S1132060E0E8FEEF16161706E807F907C0F01216A7
S11320701306E407F50798F0621B730B840B950BAA
S113208039F40A2661F0232B242B252B21F40895FF
S11320900A2609F4A140A6958FEF811D811D08959C
S11320A097F99F6780E870E060E008959FEF80EC07
S11320B0089500240A9416161706180609060895AA
S11320C000240A9412161306140605060895092E10
S11320D00394000C11F4882352F0BB0F40F4BF2B7F
S11320E011F460FF04C06F5F7F4F8F4F9F4F0895BF
S11320F057FD9058440F551F59F05F3F71F04795B5
S1132100880F97FB991F61F09F3F79F08795089599
S1132110121613061406551FF2CF4695F1DF08C0B8
S1132120161617061806991FF1CF869571056105D5
S113213008940895E894BB2766277727CB0197F97D
S113214008950BD0C4CFB5DF28F0BADF18F095237B
S113215009F0A6CFABCF1124EECFCADFA0F3959F31
S1132160D1F3950F50E0551F629FF001729FBB277A
S1132170F00DB11D639FAA27F00DB11DAA1F649F26
S11321806627B00DA11D661F829F2227B00DA11DD9
S1132190621F739FB00DA11D621F839FA00D611D5F
S11321A0221F749F3327A00D611D231F849F600D80
S11321B0211D822F762F6A2F11249F5750408AF0B9
S11321C0E1F088234AF0EE0FFF1FBB1F661F771F45
S11321D0881F91505040A9F79E3F510570F060CF81
S11321E0AACF5F3FECF3983EDCF38695779567952D
S11321F0B795F795E7959F5FC1F7FE2B880F911D63
S11322009695879597F908957BDFE0F09E37D8F08F
S11322109639B8F49E3848F4672F782F8827985F4A
S1132220F9CF86957795679593959539D0F3B62F21
S1132230B1706B0F711D811D20F48795779567959B
S1132240939502C01CC077CF882371F4772321F0C3
S11322509850872B762F07C0662311F499270DC059
S11322609051862B70E060E02AF09A95660F771FF4
S1132270881FDAF7880F9695879597F908959F3FF9
S113228031F0915020F4879577956795B795880F2D
S1132290911D9695879597F90895A1E21A2EAA1B88
S11322A0BB1BFD010DC0AA1FBB1FEE1FFF1FA21702
S11322B0B307E407F50720F0A21BB30BE40BF50BFF
S11322C0661F771F881F991F1A9469F76095709588
S11322D0809590959B01AC01BD01CF010895052E19
S11322E097FB1EF400940E94861157FD07D00E94AC
S11322F04D1107FC03D04EF40C9486115095409573
S1132300309521953F4F4F4F5F4F0895909580959D
S1132310709561957F4F8F4F9F4F08950E9499113B
S1132320A59F900DB49F900DA49F800D911D112425
S11323300895A29FB001B39FC001A39F700D811D9A
S11323401124911DB29F700D811D1124911D0895BA
S1132350DC01FC01672F71917723E1F7329704C008
S11323607C916D9370836291AE17BF07C8F3089593
S1132370A6E1B0E044E050E00C94CC110396272F82
S11323800E94DB110E94DA11252F0E94DB11242FF9
S11323900C94DB11DC01CB01FC01E199FECF06C0FA
S11323A0FFBBEEBBE09A31960DB20D924150504006
S11323B0B8F70895262FE199FECF9FBB8EBBE09A14
S11323C001970DB2021631F02DBB0FB6F894E29AC4
S10D23D0E19A0FBE0895F894FFCFC0
S11323DA41535445580054454D5045524154555261
S11323EA453A20202020DF43002A3E2053455454F6
S11323FA494E475300233E205354415254205441DA
S113240A534B0054434E43212100433E2043484F3B
S113241A4F534520494E50555400233E204D414EBA
S113242A55414C20494E505554002A3E20424143BE
S113243A4B00413A37304C69742E5F3235DF435FC3
S113244A326D696E00423A37304C69742E5F35300A
S113245ADF435F326D696E00433A35304C69742E3E
S113246A5F3530DF435F326D696E00443A36304C73
S113247A69742E5F3530DF435F326D696E005741F0
S113248A5445523A202020204C6974657200544500
S113249A4D502E3A20202020DF430054494D452038
S11324AA3A202020206D696E757465002A3E4241E7
S11324BA434B20443E44454C2E20233E4E4558541B
S11324CA005F5F54656D702E2043616C69627261AE
S11324DA74696F6E5F00436F6E766572746564200B
S11324EA76616C75653A004552564C203A20202094
S11324FA20DF432F535452542E50002A3E42414364
S113250A4B20443E44454C2E20233E53415645001D
S113251A5F5F57617465722043616C6962726174AA
S113252A696F6E5F0050756C736520436F756E74C6
S113253A65643A004552564C203A202020204C69C2
S113254A746572004552564C203A20202020DF43FD
S113255A2F454E442E5000436F756E7465642056A1
S113256A616C75653A20202020DF4300233E205306
S113257A746F7020537465616D002A3E57524F4E32
S113258A4720202020233E434F52524543540057AC
S113259A41544552FF303030302F202020204C49FE
S11325AA5445520054454D5020FF2E2E2E2E2F20D6
S11325BA202020DF430054494D4520FF30303A3073
S11325CA302F2020204D696E2E00433E43414E4356
S11325DA454C202020202020233E534B49500054B0
S11325EA696D653A2020203A00414C41524D494ECA
S11325FA472100233E20414C41524D204F4646007C
S113260A5F5F5F5F5F5F53455454494E47535F5F53
S113261A5F5F5F5F00413E2053797374656D2043A9
S113262A616C6962726174696F6E002A3E42414349
S113263A4B2020202020202020233E4E45585400A1
S113264A233E204C6F616420576174657200433ED7
S113265A2043414E43454C00436F756E74656420B4
S113266A50756C73653A00233E2053746F70204C86
S113267A6F6164696E6700202020202020202020BA
S105268A00004A
S9030000FC
