S01000006669726D776172652E73726563B7
S11300000C942A000C94EB020C9447000C944700C7
S11300100C9447000C9447000C9447000C948D03F7
S11300200C9447000C9447000C9447000C94470030
S11300300C9447000C9447000C9447000C94470020
S11300400C9447000C9447000C9447000C94470010
S11300500C94470011241FBECFE5D8E0DEBFCDBF0E
S113006013E0A0E6B0E0E8EEFAE202C005900D92DB
S1130070AA3CB107D9F724E0AAECB3E001C01D9271
S1130080AA30B207E1F70E9498040C9472150C94FC
S1130090000080FF02C0AC9A01C0AC9881FF02C08E
S11300A0AD9A01C0AD9882FF02C0AE9A01C0AE986D
S11300B083FF02C0AF9A0895AF980895CF93C82FD5
S11300C0A998AB9882958F700E944900AB9A87EEED
S11300D093E00197F1F700C00000AB9887EE93E03E
S11300E00197F1F700C000008C2F8F700E94490027
S11300F0AB9A87EE93E00197F1F700C00000AB984C
S113010087EE93E00197F1F700C00000CF910895C6
S113011080E00E9449008FE19EE40197F1F700C05E
S1130120000083E30E945E008FEC97E00197F1F7F3
S113013000C0000082E30E945E008FEC97E001970C
S1130140F1F700C0000088E20E945E008FEC97E0A7
S11301500197F1F700C0000088E20E945E008FEC76
S113016097E00197F1F700C0000086E00E945E006E
S11301708FEC97E00197F1F700C000008CE00E943B
S11301805E008FEC97E00197F1F700C0000081E07A
S11301900E945E008FEC97E00197F1F700C0000029
S11301A00895811105C080E8860F0E945E000895BD
S11301B0813029F480EC860F0E945E00089582301D
S11301C029F484E9860F0E945E000895833021F4A7
S11301D084ED860F0E945E000895CF93C82FA99ADC
S11301E0AB9882958F700E944900AB9A85E88A95F6
S11301F0F1F70000AB9885E88A95F1F700008C2FA1
S11302008F700E944900AB9A85E88A95F1F7000047
S1130210AB9885E88A95F1F70000CF910895CF93C4
S1130220DF93EC012196FC018081882329F00E9450
S1130230ED0089918111FBCFDF91CF9108954F9209
S11302405F926F927F928F929F92AF92BF92EF9242
S1130250FF920F931F93CF93DF93CDB7DEB72A9707
S11302600FB6F894DEBF0FBECDBF4B015C017A011F
S11302700E9450139F770E941D13FE0131962AE0BD
S1130280DF011D922A95E9F7611571058105910534
S1130290D1F08E01055F1F4F0F2EFAE04F2E512C27
S11302A0612C712CF02DA30192010E94E214F8013B
S11302B062938F01622F732F842F952F611571051F
S11302C08105910581F7FFEFEF16FF0669F4898137
S11302D081110FC0FE01329600E010E00F5F1F4F46
S11302E081918823D9F307C00AE010E00E191F0991
S11302F002C000E010E0BB201CF48DE20E94ED007F
S11303000A3011059CF481E090E08C0F9D1F080FCA
S1130310191F7E019BE0E90EF11CD8018D918D011E
S1130320805D0E94ED000E151F05B9F72A960FB6E1
S1130330F894DEBF0FBECDBFDF91CF911F910F9117
S1130340FF90EF90BF90AF909F908F907F906F90B1
S11303505F904F9008958F929F92AF92BF92DF92D9
S1130360EF92FF920F931F93CF93DF93CDB7DEB736
S11303702A970FB6F894DEBF0FBECDBF4B015C01C8
S1130380D42E99231CF48DE20E94ED00C501B40122
S11303900E9450139F770E941D1316161706180605
S11303A019060CF59E012F5F3F4F790100E010E024
S11303B00F2EFAE08F2E912CA12CB12CF02D0F5F73
S11303C01F4FA50194010E94E214605DF70161933F
S11303D07F01622F732F842F952F16161706180688
S11303E019066CF302C000E010E09E012F5F3F4F3E
S11303F07901F901E00FF11F1082C9010E942F1544
S1130400C7010E940F01F70101900020E9F731971D
S1130410EE19FF09DE1A92F0ED2CFF24E7FCF094AC
S11304201E141F047CF400E010E080E20E94ED0042
S11304300F5F1F4F0E151F05C4F304C088EA91E037
S11304400E940F012A960FB6F894DEBF0FBECDBFEF
S1130450DF91CF911F910F91FF90EF90DF90BF90AC
S1130460AF909F908F90089587B3806A87BB86E58D
S11304708DB908958FB9779BFECF8FB10895BC9A3B
S1130480C49A0E9434020895CF93DF93C4982DE058
S11304902A95F1F7000080E00E943A02C82FD0E0CC
S11304A0DC2FCC2780E00E943A02C49A9E01280FD8
S11304B0311DC901DF91CF9108950E94440282FD4C
S11304C00DC0887F9F779595879595958795959588
S11304D087959595879595958795089580ED97E0EF
S11304E008958FEF8BBB80EF8ABB08958FEE8BBB93
S11304F087EE93E00197F1F700C00000C89B3BC072
S1130500C99B3CC0CA9B3DC0CB9B3EC08FED8BBBFF
S113051087EE93E00197F1F700C00000C89B37C055
S1130520C99B38C0CA9B39C0CB9B3AC08FEB8BBBED
S113053087EE93E00197F1F700C00000C89B33C039
S1130540C99B34C0CA9B35C0CB9B36C08FE78BBBDD
S113055087EE93E00197F1F700C00000C89B2FC01D
S1130560C99B30C0CA9B31C0CB9B32C08FEF8BBBC1
S113057080E090E0089581E090E0089584E090E0C8
S1130580089587E090E008958BE090E0089582E07C
S113059090E0089585E090E0089588E090E0089563
S11305A08AE090E0089583E090E0089586E090E08A
S11305B0089589E090E008958CE090E008958DE03E
S11305C090E008958EE090E008958FE090E0089523
S11305D080E190E008951F920F920FB60F921124BC
S11305E08F939F93AF93BF938091F9039091FA03F4
S11305F0A091FB03B091FC030196A11DB11D809352
S1130600F9039093FA03A093FB03B093FC03BF9107
S1130610AF919F918F910F900FBE0F901F901895DF
S1130620A2E6B0E02D913C911197309361002093A4
S11306306000E4E6F0E0208131812D933C93A6E64E
S1130640B0E02D913C91119731832083E8E6F0E0EE
S1130650708161817C9311966C9391838083272FA1
S1130660362FAC014F5F5F4F4217530749F04F5F7E
S11306705F4F2417350721F003962817390779F4BB
S11306808091F003853040F47093680060936900B2
S11306908F5F8093F00305C01092F00302C01092A4
S11306A0F0038091680090916900AC0141505109B8
S11306B02417350721F002972817390779F4809118
S11306C0EF03853040F470936800609369008F5F96
S11306D08093EF0305C01092EF0302C01092EF0362
S11306E0E0E6F0E04AE650E080E090E021913191CC
S11306F0820F931FE417F507C9F765E070E00E94C5
S1130700AC14882777FD8095982F0E9450130E947F
S113071063140E942213CB0108951F920F920FB607
S11307200F9211244F925F926F927F928F929F92B9
S1130730AF92BF92CF92DF92EF92FF922F933F93AB
S11307404F935F936F937F938F939F93AF93BF93D5
S1130750EF93FF93CF93DF9300D000D0CDB7DEB7F4
S1130760A8958091EE038F5F8093EE030E945D0253
S1130770BC01882777FD8095982F0E945013209103
S1130780DA033091DB034091DC035091DD030E94D6
S11307904D126093DA037093DB038093DC03909330
S11307A0DD032091EE03243008F49FC0C0900104BF
S11307B0D0900204E0900304F09004042FEFC21AD6
S11307C0D20AE20AF20AC0920104D0920204E09230
S11307D00304F092040420E030E040E85EE30E9469
S11307E000140E9463146B017C016093D603709320
S11307F0D7038093D8039093D9038091E203909117
S1130800E303A091E403B091E50389839A83AB8366
S1130810BC834090EA035090EB036090EC0370902B
S1130820ED039C01AD016091DE037091DF038091C3
S1130830E0039091E1030E944C124B015C01A3017F
S11308409201C701B6010E944C129B01AC01C50183
S1130850B4010E9400144B015C016093CE037093B9
S1130860CF038093D0039093D103A30192016091AD
S1130870E6037091E7038091E8039091E9030E94F5
S11308804C129B01AC016093CA037093CB03809319
S1130890CC039093CD03C501B4010E94B5129B0112
S11308A0AC0169817A818B819C810E944D1220E088
S11308B030E048EC52E40E94B5129B01AC01C70140
S11308C0B6010E9400146093D2037093D303809303
S11308D0D4039093D5031092DA031092DB031092A1
S11308E0DC031092DD031092EE030F900F900F9033
S11308F00F90DF91CF91FF91EF91BF91AF919F91B5
S11309008F917F916F915F914F913F912F91FF90C4
S1130910EF90DF90CF90BF90AF909F908F907F909B
S11309206F905F904F900F900FBE0F901F9018958F
S1130930CF93DF93CDB7DEB7A0970FB6F894DEBFA1
S11309400FBECDBF87B3876087BB8EEF84BB0E9489
S11309503F020E9488000E9471021FBC8CE08EBD81
S11309608FE08BBD82E48ABD8BB780648BBF84B774
S113097084BF85B7836085BF80E48ABF80E189BF77
S113098078942DE088E190E00FB6F894A89581BDA5
S11309900FBE21BD00E016E01B8E1C8E1D8E1E8E28
S11309A019861A861B861C86412C512C3201C12CB7
S11309B0D12C7601912CA12C1B8A1C8A9D8AAE8A8B
S11309C0312C212C812CB12C49825A826B827C825D
S11309D008C019861A869B86AC8619821A829B8265
S11309E0AC8288B3887F88BB84E190E00E943F1585
S11309F0609305047093060480930704909308049D
S1130A008CE090E00E943F156093EA037093EB033F
S1130A108093EC039093ED0388E090E00E943F15EF
S1130A206093E6037093E7038093E8039093E903EC
S1130A3084E090E00E943F156093E2037093E30327
S1130A408093E4039093E50380E090E00E943F15D7
S1130A506093DE037093DF038093E0039093E103DC
S1130A6080E190E00E943F156093F1037093F203DC
S1130A708093F3039093F4030E9488006FE080E076
S1130A800E94D1008AE690E00E940F0160E081E0BC
S1130A900E94D10080E790E00E940F0160E082E0B4
S1130AA00E94D10083E890E00E940F0160E083E09F
S1130AB00E94D1008FE890E00E940F010E9476020C
S1130AC0892BE1F72FE738E341E0215030404040E3
S1130AD0E1F700C000004091FD035091FE036091D6
S1130AE0FF03709100048091010490910204A0918D
S1130AF00304B0910404481759076A077B0709F4F3
S1130B006BC0809109048F5F80930904853020F1C4
S1130B100E9488006FE080E00E94D1008AE690E0A5
S1130B200E940F0160E081E00E94D10080E790E024
S1130B300E940F0160E082E00E94D10083E890E00F
S1130B400E940F0160E083E00E94D1008FE890E0F2
S1130B500E940F01109209046CE081E00E94D10010
S1130B6020E030E04AEF54E46091D6037091D7035B
S1130B708091D8039091D9030E94B112811105C0CC
S1130B808DE990E00E940F0117C06091D20370912B
S1130B90D3038091D4039091D5030E942213CB01F7
S1130BA00E941003BC0180E090E044E00E94AB018D
S1130BB084EF92E00E940F0180910104909102045D
S1130BC0A0910304B09104048093FD039093FE0369
S1130BD0A093FF03B09300040E947602882309F4D3
S1130BE07ACF8C3021F08B3009F075CFABC00E94E6
S1130BF088006FE080E00E94D1008AE690E00E94C5
S1130C000F0160E081E00E94D10084EA90E00E943C
S1130C100F0160E082E00E94D10084EB90E00E942A
S1130C200F0160E083E00E94D10084EC90E00E9418
S1130C300F010E947602892BE1F75FE788E391E0D8
S1130C40515080409040E1F700C000000E947602BD
S1130C508823E1F38B3009F4BCCE8F3019F08C304B
S1130C60A9F743C00E94880060E080E00E94D100A0
S1130C708CEC90E00E940F0160E081E00E94D100C2
S1130C808FED90E00E940F0160E082E00E94D100AD
S1130C9082EF90E00E940F0160E083E00E94D100A7
S1130CA085E091E00E940F010E947602892BE1F712
S1130CB0AFE7B8E3E1E0A150B040E040E1F700C0A5
S1130CC000000E9476028823E1F38D3009F451C5B7
S1130CD08E3009F461C58F3009F474C5803109F48C
S1130CE087C58B50823068F782CF0E94880060E00D
S1130CF080E00E94D10088E191E00E940F0160E051
S1130D0081E00E94D10088E291E00E940F0160E03E
S1130D1082E00E94D10085E391E00E940F0160E02F
S1130D2083E00E94D10086E491E00E940F01F1E08B
S1130D30FD8319861A869B86AC8619821A829B8249
S1130D40AC8202C02DE02D836894772474F80F2EB2
S1130D50FEE05F2EF02D0F2EFAE04F2EF02D68945A
S1130D60662463F83D813D870BC041E04D8708C090
S1130D7053E05D8705C08FE08D8702C097E09D87B3
S1130D800E947602892BE1F7AFE7B8E3E1E0A150D6
S1130D90B040E040E1F700C000002D852130C1F4EF
S1130DA066E080E00E94D10084EC93E00E940F0191
S1130DB066E080E00E94D1008DE00E945E0000E0C9
S1130DC016E032E03D87C32CD22CE82CFB2CEAC180
S1130DD04D854330C1F466E081E00E94D10084EC8B
S1130DE093E00E940F0166E081E00E94D1008DE053
S1130DF00E945E0001E016E054E05D87C32CD22C13
S1130E00E82CFB2CCFC18D858530C1F466E082E0EF
S1130E100E94D10084EC93E00E940F0166E082E01E
S1130E200E94D1008DE00E945E0002E016E096E090
S1130E309D87C32CD22CE82CFB2CB4C1AD85A730E4
S1130E4069F50E94880060E080E00E94D1008BE593
S1130E5091E00E940F0160E081E00E94D10080E7F0
S1130E6091E00E940F0160E082E00E94D10081E8DD
S1130E7091E00E940F0160E083E00E94D10085E9C7
S1130E8091E00E940F018DE00E945E0002E016E0F6
S1130E906D86C32CD22CE82CFB2C84C1BD85B830C4
S1130EA009F048C04091FD035091FE036091FF0397
S1130EB0709100048091010490910204A0910304B4
S1130EC0B0910404481759076A077B0709F46AC1FB
S1130ED08CE00E945E00672D81E00E94D100609149
S1130EE0D6037091D7038091D8039091D9030E94BF
S1130EF01D1344E00E94AB0180910104909102040F
S1130F00A0910304B09104048093FD039093FE0325
S1130F10A093FF03B0930004612F802F0E94D1009F
S1130F201A3021F48CE00E945E003CC18DE00E94E6
S1130F305E0038C1ED85E93009F040C00E948800A8
S1130F4060E080E00E94D1008AEA91E00E940F01F3
S1130F5060E081E00E94D1008FEB91E00E940F01DC
S1130F60652D81E00E94D1006091F5037091F60334
S1130F708091F7039091F80346E00E94AB0160E092
S1130F8082E00E94D1008EEC91E00E940F0160E0AB
S1130F9083E00E94D10085E991E00E940F0166E0A0
S1130FA082E00E94D1008DE00E945E0002E016E023
S1130FB04D86C32CD22CE82CFB2CF4C0FD85FB30D1
S1130FC071F50E94880060E080E00E94D1008BE50A
S1130FD091E00E940F0160E081E00E94D10080E76F
S1130FE091E00E940F0160E082E00E94D1008EED4A
S1130FF091E00E940F0160E083E00E94D10085E946
S113100091E00E940F018DE00E945E0002E016E074
S11310102CE02D87C32CD22CE82CFB2CC3C03D859F
S11310203C3009F048C04091FD035091FE036091AB
S1131030FF03709100048091010490910204A09137
S11310400304B0910404481759076A077B0709F49D
S1131050A9C08CE00E945E00672D81E00E94D1004F
S11310606091D6037091D7038091D8039091D903EE
S11310700E941D1344E00E94AB01809101049091F1
S11310800204A0910304B09104048093FD0390939F
S1131090FE03A093FF03B0930004612F802F0E94EE
S11310A0D1001A3021F48CE00E945E007BC08DE0F8
S11310B00E945E0077C04D854D30C9F50E948800BE
S11310C06FE080E00E94D1008AE690E00E940F0168
S11310D060E081E00E94D10081EF91E00E940F0165
S11310E060E082E00E94D10086E092E00E940F015D
S11310F060E083E00E94D1008DE092E00E940F0145
S113110066E082E00E94D10084EC93E00E940F012B
S113111066E082E00E94D1008DE00E945E0002E061
S113112016E05D86C32CD22CE82CFB2C3BC05D85DD
S11311305F30C1F50E9488006FE080E00E94D1001A
S11311408AE690E00E940F0160E081E00E94D100F5
S113115082E292E00E940F0160E082E00E94D100EE
S113116086E092E00E940F0160E083E00E94D100DB
S11311708DE092E00E940F0166E082E00E94D100BF
S113118084EC93E00E940F0166E082E00E94D100AB
S11311908DE00E945E0002E016E07D86C32CD22C16
S11311A0E82CFB2C0E947602882309F4F6CD8B30C0
S11311B0B1F48D858D838CE00E945E008D858D7FDA
S11311C0883009F4E6C79D819C3009F4E2C7903168
S11311D009F4DFC7AD85AE3009F009CD02CC80310A
S11311E009F04BC01730D8F01150612F802F0E94A6
S11311F0D10080E20E94ED00612F802F0E94D10077
S11312008DE00E945E00C701B6012AE030E040E0B4
S113121050E00E94C01469017A010C943112BD851A
S1131220B23021F48CE00E945E00E1CCED85E43024
S113123009F49BCDE63009F49BCDE83021F48CE031
S11312400E945E00A6C7FD85FA3009F4A2C7FC30EF
S113125021F48CE00E945E009CC72D852E3021F481
S11312608CE00E945E00BDCB3D85303111F00C94C2
S113127031128CE00E945E008CC78C3009F013C1DF
S11312804D85423011F40C943512443011F40C9411
S11312903812463061F40E945E00CD82DE82EF8215
S11312A0F88616E0C12CD12CE92CFA2CB3C25D854A
S11312B0583009F050C04091D6035091D703609143
S11312C0D8037091D9034093EA035093EB036093DE
S11312D0EC037093ED038CE090E00E944515C70188
S11312E0B6010E944E1320E030E048EC52E40E9424
S11312F000142091EA033091EB034091EC035091E8
S1131300ED030E94B512AB01BC0184E090E00E94A1
S113131045158CE00E945E000E9488008CE00E94CB
S11313205E0060E080E00E94D1008BE591E00E94C5
S11313300F0160E081E00E94D10087E392E00E9407
S11313400F0160E082E00E94D1008CE492E00E94F0
S11313500F010C94D6118D858A3009F52091F5037F
S11313603091F6034091F7035091F803A4E6B0E0FE
S11313700E940115A70196010E94C014BA01A90197
S113138080E190E00E9445158CE00E945E0016E02A
S113139097E09D87CB88DC88ED88FE88F1CCAD850D
S11313A0AC30B9F54091D6035091D7036091D8037E
S11313B07091D9034093E6035093E7036093E803E5
S11313C07093E90388E090E00E944515C701B601D7
S11313D00E944E1320E030E048EC52E40E940014D6
S11313E02091E6033091E7034091E8035091E9032B
S11313F00E94B512AB01BC0180E090E00E9445154B
S11314008CE00E945E0016E0C12CD12CE92CFA2C51
S1131410E8CABD85BE30A1F58CE00E945E008091D3
S1131420050490910604A0910704B09108048C155A
S11314309D05AE05BF0509F4A7C60E9488006FE0AC
S113144080E00E94D1008AE690E00E940F0162E0F1
S113145082E00E94D1008AE592E00E940F01EFEF42
S1131460F9E628E1E150F0402040E1F700C0000037
S113147016E03DE03D87CB88DC88ED88FE8880CC93
S11314804D85403109F0EDC7B701A60184E190E034
S11314900E9445158CE00E945E0016E0CB88DC8833
S11314A0ED88FE8876C61A3008F054C1893001F5FB
S11314B0612F802F0E94D10089E30E94ED001F5FFD
S11314C0CC0CDD1CEE1CFF1CD701C601880F991F34
S11314D0AA1FBB1F880F991FAA1FBB1FC80ED91EA6
S11314E0EA1EFB1E59E0C50ED11CE11CF11C2CC1E7
S11314F08A30D9F4612F802F0E94D10080E30E94AA
S1131500ED001F5FCC0CDD1CEE1CFF1CD701C601D7
S1131510880F991FAA1FBB1F880F991FAA1FBB1FE3
S1131520C80ED91EEA1EFB1E0FC1853001F5612FBE
S1131530802F0E94D10085E30E94ED001F5FCC0C38
S1131540DD1CEE1CFF1CD701C601880F991FAA1FC2
S1131550BB1F880F991FAA1FBB1FC80ED91EEA1EE6
S1131560FB1E85E0C80ED11CE11CF11CEDC08630C9
S113157001F5612F802F0E94D10086E30E94ED00C7
S11315801F5FCC0CDD1CEE1CFF1CD701C601880FAD
S1131590991FAA1FBB1F880F991FAA1FBB1FC80E24
S11315A0D91EEA1EFB1E96E0C90ED11CE11CF11CDB
S11315B0CBC0873001F5612F802F0E94D10087E3D3
S11315C00E94ED001F5FCC0CDD1CEE1CFF1CD7013C
S11315D0C601880F991FAA1FBB1F880F991FAA1F36
S11315E0BB1FC80ED91EEA1EFB1EA7E0CA0ED11CE3
S11315F0E11CF11CA9C0883001F5612F802F0E94E5
S1131600D10088E30E94ED001F5FCC0CDD1CEE1CB2
S1131610FF1CD701C601880F991FAA1FBB1F880F83
S1131620991FAA1FBB1FC80ED91EEA1EFB1EB8E0D5
S1131630CB0ED11CE11CF11C87C0813001F5612F58
S1131640802F0E94D10081E30E94ED001F5FCC0C2B
S1131650DD1CEE1CFF1CD701C601880F991FAA1FB1
S1131660BB1F880F991FAA1FBB1FC80ED91EEA1ED5
S1131670FB1EEFEFCE1ADE0AEE0AFE0A65C08230C8
S113168001F5612F802F0E94D10082E30E94ED00BA
S11316901F5FCC0CDD1CEE1CFF1CD701C601880F9C
S11316A0991FAA1FBB1F880F991FAA1FBB1FC80E13
S11316B0D91EEA1EFB1EF2E0CF0ED11CE11CF11C68
S11316C043C0833001F5612F802F0E94D10083E352
S11316D00E94ED001F5FCC0CDD1CEE1CFF1CD7012B
S11316E0C601880F991FAA1FBB1F880F991FAA1F25
S11316F0BB1FC80ED91EEA1EFB1E23E0C20ED11C5E
S1131700E11CF11C21C08430F9F4612F802F0E9468
S1131710D10084E30E94ED001F5FCC0CDD1CEE1CA5
S1131720FF1CD701C601880F991FAA1FBB1F880F72
S1131730991FAA1FBB1FC80ED91EEA1EFB1E34E048
S1131740C30ED11CE11CF11C1A3029F48CE00E9458
S11317505E0001C000C00E947602892BE1F7AFE76A
S1131760B8E3E1E0A150B040E040E1F700C0000080
S113177014CBF2E0FD831E821F82188629E129879B
S11317801A861B861C8686E490E0A0E0B0E089837C
S11317909A83AB83BC833EC092E09D831E821F82EA
S11317A0188622E330E040E050E029873A874B87EF
S11317B05C8786E490E0A0E0B0E089839A83AB8301
S11317C0BC8328C092E09D831E821F82188622E378
S11317D030E040E050E029873A874B875C8782E31A
S11317E090E0A0E0B0E089839A83AB83BC8312C00D
S11317F092E09D831E821F82188622E330E040E03F
S113180050E029873A874B875C873CE339831A8207
S11318101B821C820E94880060E080E00E94D1004C
S113182088E191E00E940F0166E080E00E94D1000F
S1131830498148A35A815D878B818F8F9C819E87C4
S113184044E069817A818B819C810E94AB0160E0D4
S113185081E00E94D10088E291E00E940F0166E0DD
S113186081E00E94D100A985AF87BA85B88BEB854A
S1131870E98BFC85FA8B44E069857A858B859C85A8
S11318800E94AB0160E082E00E94D10085E391E018
S11318900E940F0166E082E00E94D1002D812F8B0F
S11318A03E81388F4F81498F58855A8F44E06D812E
S11318B07E818F8198850E94AB0160E083E00E9465
S11318C0D1008BE692E00E940F0168A07F8C0E94F9
S11318D07602892BE1F768A27F8E8FE798E3A1E077
S11318E081509040A040E1F700C0000068A07F8CC8
S11318F00E9476028823E1F38B3009F478C98C3096
S1131900B9F768A27F8E0E94880060E080E00E94A0
S1131910D10080E892E00E940F016BE080E00E9419
S1131920D10044E068A17D858F8D9E850E94AB0126
S113193060E081E00E94D10085E992E00E940F01FD
S11319406BE081E00E94D10044E06F857889898949
S11319509A890E94AB0160E082E00E94D10087EA8C
S113196092E00E940F016CE082E00E94D10043E00B
S11319706F89788D898D9A8D0E94AB0160E083E038
S11319800E94D1008BEB92E00E940F01BFE7E8E3D5
S1131990F1E0B150E040F040E1F700C000001092E7
S11319A0F9031092FA039092FB03A092FC031092A5
S11319B001041092020490920304A092040468A00B
S11319C07F8C87C08091010490910204A09103044C
S11319D0B0910404892B8A2B8B2B09F47AC068A25A
S11319E07F8EC29A2FE73AE146E0215030404040D2
S11319F0E1F700C000000E94880060E080E00E94DF
S1131A00D10080ED92E00E940F016BE080E00E9423
S1131A10D10044E068A17D858F8D9E850E94AB0135
S1131A2060E081E00E94D10085E992E00E940F010C
S1131A306BE081E00E94D10044E06F857889898958
S1131A409A890E94AB0160E082E00E94D10087EA9B
S1131A5092E00E940F016CE082E00E94D10043E01A
S1131A606F89788D898D9A8D0E94AB0160E083E047
S1131A700E94D1008BEB92E00E940F015FE788E3A4
S1131A8091E0515080409040E1F700C00000209167
S1131A90F9033091FA034091FB035091FC03A4E64F
S1131AA0B0E00E9401152091F1033091F2034091BE
S1131AB0F3035091F4030E94C01429013A012981CF
S1131AC03A814B815C81421653066406750630F0F8
S1131AD05BC00E947602892BE1F774CF0E947602E4
S1131AE0882339F08C3009F44FC08F3011F40C94F2
S1131AF0F10466E080E00E94D10044E050E0C301BC
S1131B00B2010E941F0166E081E00E94D100609151
S1131B10D2037091D3038091D4039091D5030E9492
S1131B202213CB010E941003BC0180E090E044E04A
S1131B3050E00E941F018FE097E20197F1F700C087
S1131B4000002091F9033091FA034091FB03509176
S1131B50FC03A4E6B0E00E9401152091F10330914A
S1131B60F2034091F3035091F4030E94C01429013D
S1131B703A0129813A814B815C81421653066406FD
S1131B80750608F4ABCF00C0C2989FE7AAE1B6E09F
S1131B909150A040B040E1F700C000000E948800CE
S1131BA060E080E00E94D10080E892E00E940F0192
S1131BB06BE080E00E94D10044E068A17D858F8DB8
S1131BC09E850E94AB0160E081E00E94D10085E91E
S1131BD092E00E940F016BE081E00E94D10044E09A
S1131BE06F85788989899A890E94AB0160E082E0D7
S1131BF00E94D10087EA92E00E940F016CE082E02B
S1131C000E94D10043E06F89788D898D9A8D0E945E
S1131C10AB0160E083E00E94D1008BEB92E00E9474
S1131C200F0166E080E00E94D10044E050E068A12A
S1131C307D858F8D9E850E941F01EFE7F8E321E0EB
S1131C40E150F0402040E1F700C000001092010490
S1131C501092020490920304A092040468A07F8C62
S1131C606AC08091010490910204A0910304B09190
S1131C700404892B8A2B8B2B09F45DC068A27F8E08
S1131C80C19A3FE74AE156E0315040405040E1F705
S1131C9000C000000E94880060E080E00E94D10043
S1131CA080E892E00E940F016BE080E00E94D10086
S1131CB044E068A17D858F8D9E850E94AB0160E024
S1131CC081E00E94D10085EE92E00E940F016BE05A
S1131CD081E00E94D10044E06F85788989899A89DE
S1131CE00E94AB0160E082E00E94D10087EA92E0AA
S1131CF00E940F016CE082E00E94D10043E06F89F2
S1131D00788D898D9A8D0E94AB0160E083E00E94FA
S1131D10D1008BEB92E00E940F018FE798E3A1E0E2
S1131D2081509040A040E1F700C000004B8C5C8CD7
S1131D306D8C7E8C05C00E947602892BE1F791CFD1
S1131D404091FD035091FE036091FF0370910004E4
S1131D508091010490910204A0910304B0910404C1
S1131D60481759076A077B0731F16091D2037091D4
S1131D70D3038091D4039091D5030E9422132B01A5
S1131D803C0166E081E00E94D10044E050E0C301E0
S1131D90B2010E941F018091010490910204A0915C
S1131DA00304B09104048093FD039093FE03A09375
S1131DB0FF03B0930004D301C2010396A11DB11D1A
S1131DC029853A854B855C8582179307A407B50757
S1131DD080F40E947602882309F4B2CF8C3049F053
S1131DE08F3009F0ADCF4B8E5C8E6D8E7E8E0C9451
S1131DF0F1044B8E5C8E6D8E7E8EC1985FE78AE116
S1131E0096E0515080409040E1F700C000000E94ED
S1131E10880060E080E00E94D10080E892E00E94A7
S1131E200F016BE080E00E94D10044E068A17D8551
S1131E308F8D9E850E94AB0160E081E00E94D100FD
S1131E4085E992E00E940F016BE081E00E94D100DD
S1131E5044E06F85788989899A890E94AB0160E0A2
S1131E6082E00E94D10087EA92E00E940F016CE0B8
S1131E7082E00E94D10043E06F89788D898D9A8D2C
S1131E800E94AB0160E083E00E94D1008BEB92E002
S1131E900E940F0166E081E00E94D10044E050E01E
S1131EA06F85788989899A890E941F01109201049B
S1131EB01092020490920304A0920404AFEFB4E3DE
S1131EC0ECE0A150B040E040E1F700C000000E9407
S1131ED0880060E080E00E94D10080E892E00E94E7
S1131EE00F016BE080E00E94D10044E068A17D8591
S1131EF08F8D9E850E94AB0160E081E00E94D1003D
S1131F0085E992E00E940F016BE081E00E94D1001C
S1131F1044E06F85788989899A890E94AB0160E0E1
S1131F2082E00E94D10087EF92E00E940F016CE0F2
S1131F3082E00E94D10043E06F89788D898D9A8D6B
S1131F400E94AB0160E083E00E94D1008BEB92E041
S1131F500E940F0168A07F8C0E947602892BE1F712
S1131F6068A27F8EFFE728E331E0F1502040304043
S1131F70E1F700C0000060910104709102048091B7
S1131F800304909104042CE330E040E050E00E940C
S1131F90C01429013A018D819E81AF81B88528172B
S1131FA039074A075B0708F476C0BF8C18A1C09AAA
S1131FB09FE7AAE1B6E09150A040B040E1F700C02D
S1131FC000000E94880060E080E00E94D10080E868
S1131FD092E00E940F016BE080E00E94D10044E097
S1131FE0612F7D858B2D9E850E94AB0160E081E091
S1131FF00E94D10085E992E00E940F016BE081E02C
S11320000E94D10044E06F85788989899A890E9469
S1132010AB0160E082E00E94D10087EA92E00E9476
S11320200F016CE082E00E94D10043E06F89788D5B
S1132030898D9A8D0E94AB0160E083E00E94D100FB
S11320408BEB92E00E940F011092010410920204A3
S113205010920304109204040E9488008BE093E021
S11320600E940F016FE080E00E94D1008AE690E0B8
S11320700E940F0166E081E00E94D10085E193E0B7
S11320800E940F0160E083E00E94D1008FE193E0A1
S11320900E940F012DC066E082E00E94D10042E060
S11320A050E0C301B2010E941F0169E082E00E9476
S11320B0D100609101047091020480910304909115
S11320C004042CE330E040E050E00E94C01442E0FD
S11320D050E00E941F010E947602882309F44BCF2E
S11320E08C3009F462CF8F3009F045CF0C94F104A1
S11320F00E947602892BE1F7EFE7F8E321E0E15053
S1132100F0402040E1F700C000000F2EFCE3CF2E8A
S1132110D12CE12CF12CF02D66E080E00E94D1005E
S1132120609101047091020480910304909104046D
S1132130A70196010E94C014CA01B90142E050E00F
S11321400E941F0169E080E00E94D10060910104B7
S1132150709102048091030490910404A7019601F4
S11321600E94C01442E050E00E941F010E947602C7
S11321708C3019F4C098F894FFCF8FE097E2019760
S1132180F1F700C00000C8CF16E0CB88DC88ED88EA
S1132190FE880E94880060E080E00E94D1008CE20A
S11321A093E00E940F0160E081E00E94D10081E48D
S11321B093E00E940F0160E082E00E94D10087E575
S11321C093E00E940F0160E083E00E94D10089E661
S11321D093E00E940F010E947602892BE1F79FE7AA
S11321E0A8E3B1E09150A040B040E1F700C0000086
S11321F00E947602882359F08D3081F08E3011F4DC
S11322000C94BB068B50823010F40C94F104EFE074
S1132210F7E23197F1F700C00000EACF0E9488008E
S11322208CE00E945E0060E080E00E94D1008AEAB7
S113223091E00E940F0160E081E00E94D1008EE7EE
S113224093E00E940F0160E082E00E94D10088E8E0
S113225093E00E940F0160E083E00E94D10086E9D0
S113226093E00E940F010E947602892BE1F7FFE7B9
S113227028E331E0F15020403040E1F700C0000095
S11322800E947602882349F08C3071F08E3011F46C
S11322900C94BE068F3009F47CCF8FE097E201974F
S11322A0F1F700C00000ECCF9B899093F903AC894F
S11322B0A093FA03BD89B093FB03EE89E093FC037A
S11322C09093F503A093F603B093F703E093F80318
S11322D0C29AFFE72AE136E0F15020403040E1F7AE
S11322E000C000000E9488008CE00E945E0060E054
S11322F080E00E94D1008AEA91E00E940F0160E030
S113230081E00E94D10080EA93E00E940F0160E026
S113231082E00E94D1008FEA93E00E940F0160E006
S113232083E00E94D1008FEB93E00E940F010E9492
S11323307602892BE1F74FE758E381E041505040A2
S11323408040E1F700C000000E9476028C30F1F476
S1132350C2989FE7AAE1B6E09150A040B040E1F7EF
S113236000C000008091F9039091FA03A091FB034F
S1132370B091FC038093F5039093F603A093F703C5
S1132380B093F803E9E0ED870C94C0066EE081E0B9
S11323900E94D1006091F9037091FA038091FB03CC
S11323A09091FC0346E00E94AB01CECF0E947602DE
S11323B0892BE1F7FFE728E331E0F150204030407A
S11323C0E1F700C00000C19A4091FD035091FE0363
S11323D06091FF03709100048091010490910204C4
S11323E0A0910304B0910404481759076A077B07B6
S11323F009F16EE081E00E94D1006091D6037091F2
S1132400D7038091D8039091D9030E941D1344E00F
S11324100E94AB018091010490910204A0910304F5
S1132420B09104048093FD039093FE03A093FF03F3
S1132430B09300040E9476028C3031F6C1984FE7C5
S11324405AE186E0415050408040E1F700C000006E
S113245016E09BE09D87CB88DC88ED88FE880C9491
S1132460C0061A3008F470C976C9B3E0BD870AC043
S1132470C986DA86EB86FC86C980DA80EB80FC802C
S1132480E5E0ED87C982DA82EB82FC8216E0C32C98
S1132490D22CE82CFB2C5FC95058BB27AA270ED09E
S11324A075C166D130F06BD120F031F49F3F11F447
S11324B01EF45BC10EF4E095E7FB51C1E92F77D11F
S11324C080F3BA17620773078407950718F071F44D
S11324D09EF58FC10EF4E0950B2EBA2FA02D0B01A3
S11324E0B90190010C01CA01A0011124FF27591B55
S11324F099F0593F50F4503E68F11A16F040A22F5B
S1132500232F342F4427585FF3CF469537952795CB
S1132510A795F0405395C9F77EF41F16BA0B620BCA
S1132520730B840BBAF09150A1F0FF0FBB1F661F11
S1132530771F881FC2F70EC0BA0F621F731F841F54
S113254048F4879577956795B795F7959E3F08F07A
S1132550B3CF9395880F08F09927EE0F9795879539
S11325600895D9D008F481E008950CD00FC107D1A3
S113257040F0FED030F021F45F3F19F0F0C051116B
S113258039C1F3C014D198F39923C9F35523B1F396
S1132590951B550BBB27AA2762177307840738F0CE
S11325A09F5F5F4F220F331F441FAA1FA9F333D02D
S11325B00E2E3AF0E0E830D091505040E695001CE1
S11325C0CAF729D0FE2F27D0660F771F881FBB1F9D
S11325D0261737074807AB07B0E809F0BB0B802D77
S11325E0BF01FF2793585F4F2AF09E3F510568F0C3
S11325F0B6C000C15F3FECF3983EDCF38695779557
S11326006795B795F7959F5FC9F7880F911D9695C4
S1132610879597F90895E1E0660F771F881FBB1F20
S1132620621773078407BA0720F0621B730B840BCD
S1132630BA0BEE1F88F7E095089504D06894B111A1
S1132640D9C00895BCD088F09F5790F0B92F99272E
S1132650B751A0F0D1F0660F771F881F991F1AF0A9
S1132660BA95C9F712C0B13081F0C3D0B1E0089572
S1132670C0C0672F782F8827B85F39F0B93FCCF3F3
S1132680869577956795B395D9F73EF4909580959F
S1132690709561957F4F8F4F9F4F0895E89409C0BF
S11326A097FB3EF490958095709561957F4F8F4F81
S11326B09F4F9923A9F0F92F96E9BB279395F69597
S11326C0879577956795B795F111F8CFFAF4BB0F15
S11326D011F460FF1BC06F5F7F4F8F4F9F4F16C079
S11326E0882311F096E911C0772321F09EE8872F03
S11326F0762F05C0662371F096E8862F70E060E0BF
S11327002AF09A95660F771F881FDAF7880F969537
S1132710879597F90895990F0008550FAA0BE0E8DB
S1132720FEEF16161706E807F907C0F0121613068F
S1132730E407F50798F0621B730B840B950B39F4CF
S11327400A2661F0232B242B252B21F408950A2635
S113275009F4A140A6958FEF811D811D089597F975
S11327609F6780E870E060E008959FEF80EC089533
S113277000240A941616170618060906089500245C
S11327800A9412161306140605060895092E0394D6
S1132790000C11F4882352F0BB0F40F4BF2B11F44A
S11327A060FF04C06F5F7F4F8F4F9F4F089557FDA9
S11327B09058440F551F59F05F3F71F04795880FAB
S11327C097FB991F61F09F3F79F087950895121642
S11327D013061406551FF2CF4695F1DF08C01616EE
S11327E017061806991FF1CF86957105610508949F
S11327F00895E894BB2766277727CB0197F90895B6
S11328000BD0C4CFB5DF28F0BADF18F0952309F058
S1132810A6CFABCF1124EECFCADFA0F3959FD1F39F
S1132820950F50E0551F629FF001729FBB27F00D7A
S1132830B11D639FAA27F00DB11DAA1F649F6627CF
S1132840B00DA11D661F829F2227B00DA11D621F1E
S1132850739FB00DA11D621F839FA00D611D221FD8
S1132860749F3327A00D611D231F849F600D211DBC
S1132870822F762F6A2F11249F5750408AF0E1F05F
S113288088234AF0EE0FFF1FBB1F661F771F881FA8
S113289091505040A9F79E3F510570F060CFAACFE8
S11328A05F3FECF3983EDCF3869577956795B79593
S11328B0F795E7959F5FC1F7FE2B880F911D9695BD
S11328C0879597F908957BDFE0F09E37D8F0963925
S11328D0B8F49E3848F4672F782F8827985FF9CF8B
S11328E086957795679593959539D0F3B62FB17002
S11328F06B0F711D811D20F48795779567959395CE
S113290002C01CC077CF882371F4772321F098503C
S1132910872B762F07C0662311F499270DC0905199
S1132920862B70E060E02AF09A95660F771F881F67
S1132930DAF7880F9695879597F908959F3F31F0B8
S1132940915020F4879577956795B795880F911DD9
S11329509695879597F9089597FB072E16F400949A
S113296007D077FD09D00E940C1507FC05D03EF472
S1132970909581959F4F0895709561957F4F089527
S1132980A1E21A2EAA1BBB1BFD010DC0AA1FBB1F6F
S1132990EE1FFF1FA217B307E407F50720F0A21BE1
S11329A0B30BE40BF50B661F771F881F991F1A944E
S11329B069F760957095809590959B01AC01BD0178
S11329C0CF010895052E97FB1EF400940E94F9147C
S11329D057FD07D00E94C01407FC03D04EF40C949A
S11329E0F91450954095309521953F4F4F4F5F4FC7
S11329F0089590958095709561957F4F8F4F9F4F67
S1132A0008950E942015A59F900DB49F900DA49F3A
S1132A10800D911D11240895AA1BBB1B51E107C011
S1132A20AA1FBB1FA617B70710F0A61BB70B881F5A
S1132A30991F5A95A9F780959095BC01CD010895E9
S1132A40A29FB001B39FC001A39F700D811D1124EB
S1132A50911DB29F700D811D1124911D0895DC01FB
S1132A60FC01672F71917723E1F7329704C07C91C1
S1132A706D9370836291AE17BF07C8F30895A6E102
S1132A80B0E044E050E00C9453150396272F0E94C5
S1132A9062150E946115252F0E946215242F0C9443
S1132AA06215DC01CB01FC01E199FECF06C0FFBB3E
S1132AB0EEBBE09A31960DB20D9241505040B8F7FA
S1132AC00895262FE199FECF9FBB8EBBE09A019714
S1132AD00DB2021631F02DBB0FB6F894E29AE19ACA
S10B2AE00FBE0895F894FFCF26
S1132AE81E00000000000000000041535445580037
S1132AF854454D50455241545552453A20202020C2
S1132B08DF43002A3E2053455454494E475300237B
S1132B183E205354415254205441534B0054434E85
S1132B2843212100433E2043484F4F534520494EFB
S1132B3850555400233E204D414E55414C20494E9A
S1132B48505554002A3E204241434B00413A373005
S1132B584C69742E5F3235DF435F326D696E004213
S1132B683A37304C69742E5F3530DF435F326D6914
S1132B786E00433A35304C69742E5F3530DF435F5D
S1132B88326D696E00443A36304C69742E5F3530C4
S1132B98DF435F326D696E0057415445523A202035
S1132BA820204C697465720054454D502E3A2020FB
S1132BB82020DF430054494D45203A202020206D31
S1132BC8696E757465002A3E4241434B20443E4475
S1132BD8454C2E20233E4E455854005F5F54656D86
S1132BE8702E2043616C6962726174696F6E5F0054
S1132BF8436F6E7665727465642076616C75653AA8
S1132C08004552564C203A20202020DF432F5354AD
S1132C1852542E50002A3E4241434B20443E4445E0
S1132C284C2E20233E53415645005F5F576174651F
S1132C38722043616C6962726174696F6E5F0050DF
S1132C48756C736520436F756E7465643A004552FC
S1132C58564C203A202020204C6974657200455255
S1132C68564C203A20202020DF432F454E442E5036
S1132C7800506C65617365206769766520746865C2
S1132C882070617373006B657920203A002A3E42F4
S1132C9841434B2020443E44454C2E2020233E4FA4
S1132CA84B00456E74657220746865206E657720E4
S1132CB8706173732D2000436F756E7465642056BC
S1132CC8616C75653A20202020DF4300233E2053A1
S1132CD8746F7020537465616D0057726F6E67204E
S1132CE8706173736B6579212121002A3E57524F15
S1132CF84E4720202020233E434F52524543540040
S1132D085741544552FF303030302F202020204C7A
S1132D18495445520054454D5020FF2E2E2E2E2F37
S1132D2820202020DF430054494D4520FF30303A0D
S1132D3830302F2020204D696E2E00433E43414EF3
S1132D4843454C202020202020233E534B4950004B
S1132D5857415445527E303030302F202020204CAB
S1132D68495445520054454D50207E2E2E2E2E2F68
S1132D7820202020DF430054494D45207E30303A3E
S1132D8830302F2020204D696E2E0054696D653A2D
S1132D982020203A00414C41524D494E47210023FE
S1132DA83E20414C41524D204F4646005F5F5F5FD5
S1132DB85F5F53455454494E47535F5F5F5F5F5F9E
S1132DC800413E2053797374656D2043616C6962D8
S1132DD8726174696F6E00423E204368616E676574
S1132DE820706173736B6579002A3E4241434B201E
S1132DF820202020202020233E4E45585400423EC7
S1132E082042797061737300233E204C6F61642003
S1132E18576174657200433E2043414E43454C005C
S1132E28436F756E7465642050756C73653A00233E
S1132E383E2053746F70204C6F6164696E67002084
S10D2E48202020202020202000007C
S9030000FC
