S01000006669726D776172652E73726563B7
S11300000C942A000C94F7020C9447000C944700BB
S11300100C9447000C9447000C9447000C941C0368
S11300200C9447000C9447000C9447000C94470030
S11300300C9447000C9447000C9447000C94470020
S11300400C9447000C9447000C9447000C94470010
S11300500C94470011241FBECFE5D8E0DEBFCDBF0E
S113006011E0A0E6B0E0EAEBF6E102C005900D92E3
S1130070A83DB107D9F721E0A8EDB1E001C01D9278
S1130080A83EB207E1F70E9442030C945B0B0C9468
S1130090000080FF02C0AC9A01C0AC9881FF02C08E
S11300A0AD9A01C0AD9882FF02C0AE9A01C0AE986D
S11300B083FF02C0AF9A0895AF980895CF93C82FD5
S11300C0A998AB9882958F700E944900AB9A87EEED
S11300D093E00197F1F700C00000AB9887EE93E03E
S11300E00197F1F700C000008C2F8F700E94490027
S11300F0AB9A87EE93E00197F1F700C00000AB984C
S113010087EE93E00197F1F700C00000CF910895C6
S113011081E00E945E00089580E00E9449008FE122
S11301209EE40197F1F700C0000083E30E945E00A3
S113013087E893E10197F1F700C0000082E30E9491
S11301405E0087E893E10197F1F700C0000088E2C0
S11301500E945E0087E893E10197F1F700C0000078
S113016088E20E945E0087E893E10197F1F700C0FE
S1130170000086E00E945E0087E893E10197F1F7B2
S113018000C000008CE00E945E0087E893E10197C4
S1130190F1F700C0000081E00E945E0087E893E16F
S11301A00197F1F700C000000895811105C080E8AF
S11301B0860F0E945E000895813029F480EC860F3A
S11301C00E945E000895823029F484E9860F0E941B
S11301D05E000895833021F484ED860F0E945E0052
S11301E00895CF93C82FA99AAB9882958F700E94D7
S11301F04900AB9A87EE93E00197F1F700C0000045
S1130200AB9887EE93E00197F1F700C000008C2FC4
S11302108F700E944900AB9A87EE93E00197F1F743
S113022000C00000AB9887EE93E00197F1F700C09F
S11302300000CF910895CF93DF93EC012196FC0148
S11302408081882329F00E94F10089918111FBCFDC
S1130250DF91CF9108954F925F926F927F928F9228
S11302609F92AF92BF92EF92FF920F931F93CF93FF
S1130270DF93CDB7DEB72A970FB6F894DEBF0FBE73
S1130280CDBF4B015C017A010E946F0A9F770E94E7
S11302903C0AFE0131962AE0DF011D922A95E9F716
S11302A06115710581059105D1F08E01055F1F4F20
S11302B00F2EFAE04F2E512C612C712CF02DA3013E
S11302C092010E94F50AF80162938F01622F732F45
S11302D0842F952F611571058105910581F7FFEF35
S11302E0EF16FF0669F4898181110FC0FE01329671
S11302F000E010E00F5F1F4F81918823D9F307C0FE
S11303000AE010E00E191F0902C000E010E0BB2053
S11303101CF48DE20E94F1000A3011059CF481E086
S113032090E08C0F9D1F080F191F7E019BE0E90EC2
S1130330F11CD8018D918D01805D0E94F1000E1594
S11303401F05B9F72A960FB6F894DEBF0FBECDBFCE
S1130350DF91CF911F910F91FF90EF90BF90AF90DD
S11303609F908F907F906F905F904F9008958F92A1
S11303709F92AF92BF92DF92EF92FF920F931F93DF
S1130380CF93DF93CDB7DEB72A970FB6F894DEBFCD
S11303900FBECDBF4B015C01D42E99231CF48DE21A
S11303A00E94F100C501B4010E946F0A9F770E9468
S11303B03C0A16161706180619060CF59E012F5F3F
S11303C03F4F790100E010E00F2EFAE08F2E912CC0
S11303D0A12CB12CF02D0F5F1F4FA50194010E9499
S11303E0F50A605DF70161937F01622F732F842FFB
S11303F0952F16161706180619066CF302C000E0AE
S113040010E09E012F5F3F4F7901F901E00FF11FCA
S11304101082C9010E94350BC7010E941B01F7011C
S113042001900020E9F73197EE19FF09DE1A92F0E6
S1130430ED2CFF24E7FCF0941E141F047CF400E070
S113044010E080E20E94F1000F5F1F4F0E151F05A0
S1130450C4F304C080E690E00E941B012A960FB604
S1130460F894DEBF0FBECDBFDF91CF911F910F91E6
S1130470FF90EF90DF90BF90AF909F908F90089582
S113048087B3806A87BB86E58DB908958FB9779B5A
S1130490FECF8FB10895BC9AC49A0E944002089579
S11304A0CF93DF93C4982DE02A95F1F7000080E004
S11304B00E944602C82FD0E0DC2FCC2780E00E94A7
S11304C04602C49A9E01280F311DC901DF91CF91C4
S11304D008950E94500282FD0DC0887F9F779595F4
S11304E087959595879595958795959587959595F0
S11304F08795089580ED97E008958FEF8BBB80EF8B
S11305008ABB08958FEE8BBB87EE93E00197F1F7DA
S113051000C00000C89B3BC0C99B3CC0CA9B3DC0F7
S1130520CB9B3EC08FED8BBB87EE93E00197F1F739
S113053000C00000C89B37C0C99B38C0CA9B39C0E3
S1130540CB9B3AC08FEB8BBB87EE93E00197F1F71F
S113055000C00000C89B33C0C99B34C0CA9B35C0CF
S1130560CB9B36C08FE78BBB87EE93E00197F1F707
S113057000C00000C89B2FC0C99B30C0CA9B31C0BB
S1130580CB9B32C08FEF8BBB80E090E0089581E07D
S113059090E0089584E090E0089587E090E0089565
S11305A08BE090E0089582E090E0089585E090E08B
S11305B0089588E090E008958AE090E0089583E04B
S11305C090E0089586E090E0089589E090E0089531
S11305D08CE090E008958DE090E008958EE090E046
S11305E008958FE090E0089580E190E008951F92CF
S11305F00F920FB60F9211248F939F93AF93BF93D3
S11306008091E4019091E501A091E601B091E701A8
S11306100196A11DB11D8093E4019093E501A0937F
S1130620E601B093E701BF91AF919F918F910F9035
S11306300FBE0F901F9018951F920F920FB60F9236
S113064011248F939F93AF93BF938091E001909176
S1130650E101A091E201B091E3010196A11DB11D58
S11306608093E0019093E101A093E201B093E30150
S1130670A895BF91AF919F918F910F900FBE0F904E
S11306801F901895CF93DF93CDB7DEB76E970FB653
S1130690F894DEBF0FBECDBF87B3876087BB8EEFF4
S11306A084BB0E944B020E948C000E947D021FBCEE
S11306B08CE08EBD8DE38BBD89E08ABD8BB78064F1
S11306C08BBF84B784BF85B7836085BF80E48ABF4E
S11306D080E189BF78942FE088E190E00FB6F89428
S11306E0A89581BD0FBE21BD10E00F2EF6E0FF2EB0
S11306F0F02D19861A861B861C86412C512C32013A
S113070000E0212C312CF88E00C039E13C8B1D8A8D
S11307101E8A1F8AF88C82E090E00E94450B909319
S1130720DB018093DA0180E090E00E94450B909316
S1130730D9018093D8010E9488006DE080E00E9476
S1130740D50082E690E00E941B0160E081E00E94F7
S1130750D50088E690E00E941B0160E082E00E94E0
S1130760D5008BE790E00E941B0160E083E00E94CB
S1130770D50087E890E00E941B010E948202892B29
S1130780E1F74FE758E381E0415050408040E1F702
S113079000C000004091DC015091DD016091DE0158
S11307A07091DF018091E0019091E101A091E2015B
S11307B0B091E301481759076A077B07F1F06CE031
S11307C081E00E94D5000E946902BC01882777FD60
S11307D08095982F44E00E94B7018091E0019091A8
S11307E0E101A091E201B091E3018093DC019093D7
S11307F0DD01A093DE01B093DF010E9482028C3000
S113080049F694E09D83A5E0A88FFE8E00C00E9467
S113081088006DE080E00E94D50082E690E00E94AE
S11308201B0160E081E00E94D50085E990E00E9410
S11308301B0160E082E00E94D50085EA90E00E94FE
S11308401B0160E083E00E94D50085EB90E00E94EC
S11308501B01FE8C0E948202892BE1F7FE8EEFE7DA
S1130860F8E321E0E150F0402040E1F700C000004F
S1130870FE8C0E9482028823E1F38B3009F44BCF73
S11308808F3091F18C30A9F7FE8E0E94880060E0D1
S113089080E00E94D50089E091E00E941B0160E0A5
S11308A081E00E94D50089E191E00E941B0160E093
S11308B082E00E94D50086E291E00E941B0160E084
S11308C083E00E94D50087E391E00E941B0181E050
S11308D0812C912CA12CB12CC12CD12CE12CF12CEC
S11308E093E099838D874DC0FE8E0E94880060E05E
S11308F080E00E94D5008DEB90E00E941B0160E037
S113090081E00E94D50080ED90E00E941B0160E030
S113091082E00E94D50083EE90E00E941B0160E01B
S113092083E00E94D50086EF90E00E941B01FE8CBC
S11309300E948202892BE1F7FE8E3FE748E351E0F3
S1130940315040405040E1F700C00000FE8C0E944E
S113095082028823E1F38D3009F442C28E3009F417
S113096051C28F3009F463C2803109F472C28B50D2
S1130970823068F7FE8E4BCFE1E0ED8702C0F3E0F2
S1130980FD870E948202892BE1F72FE738E341E0DB
S1130990215030404040E1F700C000009D85913077
S11309A0C9F466E080E00E94D5008CE491E00E94E6
S11309B01B0166E080E00E94D5008DE00E945E008D
S11309C010E0A6E0AE8FB2E0BD87412C502E622C21
S11309D0732C37C0ED85E330C9F466E081E00E94F2
S11309E0D5008CE491E00E941B0166E081E00E9446
S11309F0D5008DE00E945E0011E0F6E0FE8F2D81AF
S1130A002D87412C502E622C732C1BC03D85353014
S1130A10C1F466E082E00E94D5008CE491E00E947B
S1130A201B0166E082E00E94D5008DE00E945E001A
S1130A3012E046E04E8F56E05D87412C502E622C2A
S1130A40732C0E948202882309F4A8CF8B3021F4EE
S1130A508CE00E945E00DBCE803169F59E8D97307C
S1130A60D8F091509E8F692F812F0E94D50080E28B
S1130A700E94F1006E8D812F0E94D5008DE00E94AE
S1130A805E00C301B2012AE030E040E050E00E9481
S1130A90D30A29013A01EBC4AD85A23021F48CE0DC
S1130AA00E945E00B4CEED85E43009F465CFE630F3
S1130AB009F0DDC464CF8C30B9F42D85223009F4FB
S1130AC0C4C4243009F4C4C4263009F0D0C40E943C
S1130AD05E0049825A826B827C8236E03E8F412CD2
S1130AE0512C612C712CC9C14E8D4A3008F069C15A
S1130AF0893011F5642F812F0E94D50089E30E946B
S1130B00F1005E8D5F5F5E8F440C551C661C771C84
S1130B10D301C201880F991FAA1FBB1F880F991FF9
S1130B20AA1FBB1F480E591E6A1E7B1E89E0480E71
S1130B30511C611C711C3EC18A30E9F46E8D812FF9
S1130B400E94D50080E30E94F1009E8D9F5F9E8FDE
S1130B50440C551C661C771CD301C201880F991FD5
S1130B60AA1FBB1F880F991FAA1FBB1F480E591E1F
S1130B706A1E7B1E1FC1853011F56E8D812F0E9468
S1130B80D50085E30E94F100AE8DAF5FAE8F440CBB
S1130B90551C661C771CD301C201880F991FAA1F1C
S1130BA0BB1F880F991FAA1FBB1F480E591E6A1E20
S1130BB07B1EB5E04B0E511C611C711CFBC08630C2
S1130BC011F56E8D812F0E94D50086E30E94F100FD
S1130BD0EE8DEF5FEE8F440C551C661C771CD30121
S1130BE0C201880F991FAA1FBB1F880F991FAA1F34
S1130BF0BB1F480E591E6A1E7B1EF6E04F0E511C89
S1130C00611C711CD7C0873011F56E8D812F0E9435
S1130C10D50087E30E94F1002E8D2F5F2E8F440CA8
S1130C20551C661C771CD301C201880F991FAA1F8B
S1130C30BB1F880F991FAA1FBB1F480E591E6A1E8F
S1130C407B1E37E0430E511C611C711CB3C08830FD
S1130C5011F56E8D812F0E94D50088E30E94F1006A
S1130C604E8D4F5F4E8F440C551C661C771CD30170
S1130C70C201880F991FAA1FBB1F880F991FAA1FA3
S1130C80BB1F480E591E6A1E7B1E58E0450E511CA0
S1130C90611C711C8FC0813011F56E8D812F0E94F3
S1130CA0D50081E30E94F1008E8D8F5F8E8F440CFE
S1130CB0551C661C771CD301C201880F991FAA1FFB
S1130CC0BB1F880F991FAA1FBB1F480E591E6A1EFF
S1130CD07B1E9FEF491A590A690A790A6BC0823050
S1130CE011F56E8D812F0E94D50082E30E94F100E0
S1130CF0AE8DAF5FAE8F440C551C661C771CD301C0
S1130D00C201880F991FAA1FBB1F880F991FAA1F12
S1130D10BB1F480E591E6A1E7B1EB2E04B0E511CAF
S1130D20611C711C47C0833011F56E8D812F0E94A8
S1130D30D50083E30E94F100EE8DEF5FEE8F440C4B
S1130D40551C661C771CD301C201880F991FAA1F6A
S1130D50BB1F880F991FAA1FBB1F480E591E6A1E6E
S1130D607B1EF3E04F0E511C611C711C23C08430A8
S1130D7009F56E8D812F0E94D50084E30E94F10055
S1130D802E8D2F5F2E8F440C551C661C771CD301AF
S1130D90C201880F991FAA1FBB1F880F991FAA1F82
S1130DA0BB1F480E591E6A1E7B1E34E0430E511CA5
S1130DB0611C711C4E8D4A3029F48CE00E945E0047
S1130DC001C000C00E948202892BE1F73FE748E39B
S1130DD051E0315040405040E1F700C00000DECD0A
S1130DE0FE8E82E089831A821B821C828C889D88F5
S1130DF0AE88BF880F2EF6E4CF2ED12CE12CF12C37
S1130E00F02D3BC0FE8E92E099831A821B821C82D5
S1130E100F2EF2E38F2E912CA12CB12CF02D0F2E3E
S1130E20F6E4CF2ED12CE12CF12CF02D26C0FE8E31
S1130E30A2E0A9831A821B821C828C889D88AE88BA
S1130E40BF880F2EF2E3CF2ED12CE12CF12CF02D04
S1130E5014C0FE8EB2E0B9831A821B821C820F2E4C
S1130E60F2E38F2E912CA12CB12CF02D0F2EFCE34C
S1130E70CF2ED12CE12CF12CF02D0E94880060E0C3
S1130E8080E00E94D50089E091E00E941B0166E0A9
S1130E9080E00E94D500CD8EDD86EE86FF8644E09C
S1130EA0C701B6010E94B70160E081E00E94D5004D
S1130EB089E191E00E941B0166E081E00E94D50077
S1130EC0888A998AAA8ABB8A44E0C501B4010E942F
S1130ED0B70160E082E00E94D50086E291E00E94C2
S1130EE01B0166E082E00E94D500E981EB8FFA8164
S1130EF0FC8F2B81298F3C813A8F44E069817A8170
S1130F008B819C810E94B70160E083E00E94D50040
S1130F1081E591E00E941B010E948202892BE1F786
S1130F208E8D9D8DAFE7B8E3E1E0A150B040E04085
S1130F30E1F700C000008E8F9D8F0E9482028823FB
S1130F40E1F38B3009F463CC8C30B9F78D829E8247
S1130F50AF82B88646015701FE8DF88FEB8CCC8C9E
S1130F602D8D2C8B0E94880060E080E00E94D500CB
S1130F7086E691E00E941B016BE080E00E94D500B0
S1130F8044E06C897D858E859F850E94B70160E071
S1130F9081E00E94D5008BE791E00E941B016BE089
S1130FA081E00E94D50044E0688979898A899B8917
S1130FB00E94B70160E082E00E94D5008DE891E0D4
S1130FC00E941B016CE082E00E94D50043E06E2D7C
S1130FD07C2D898D9A8D0E94B70160E083E00E9488
S1130FE0D50081EA91E00E941B013FE748E351E00C
S1130FF0315040405040E1F700C000001092E4013D
S11310001092E5011092E6011092E7011092E001BE
S11310101092E1011092E2011092E301E88CFC8845
S113102039C08091E0019091E101A091E201B09179
S1131030E301892B8A2B8B2B69F1E88EFC8AC29AF7
S113104065E080E00E94D5008EE70E94F1008FE702
S113105098E3A1E081509040A040E1F700C0000077
S11310602091E4013091E5014091E6015091E701BE
S1131070A4E6B0E00E941B0B24E630E040E050E020
S11310800E94D30A69017A01281539054A055B05CE
S113109030F038C00E948202892BE1F7C2CF0E944F
S11310A08202882329F08C3069F18B3009F42DCB2E
S11310B066E080E00E94D50044E050E0C701B6013C
S11310C00E942B018FE097E20197F1F700C0000026
S11310D02091E4013091E5014091E6015091E7014E
S11310E0A4E6B0E00E941B0B24E630E040E050E0B0
S11310F00E94D30A69017A01281539054A055B055E
S113110070F200C0C29865E080E00E94D5008FEFC5
S11311100E94F10066E080E00E94D50044E050E0C7
S11311206C897D858E859F850E942B01FFE728E3CE
S113113031E0F15020403040E1F700C0000010924F
S1131140E0011092E1011092E2011092E301F88CA7
S113115026C08091E0019091E101A091E201B0915B
S1131160E301892B8A2B8B2BD1F0F88EC19A65E091
S113117081E00E94D5008EE70E94F1004FE758E31A
S113118081E0415050408040E1F700C000000F2E44
S1131190F4E6CF2ED12CE12CF12CF02D05C00E94C9
S11311A08202892BE1F7D5CF4091DC015091DD011A
S11311B06091DE017091DF018091E0019091E10185
S11311C0A091E201B091E301481759076A077B0730
S11311D079F10E94690224E630E0DC010E94140BDC
S11311E0A70196010E94D30A922EA32EB42E852E17
S11311F029873A874B875C8766E081E00E94D500A7
S113120044E050E0692D7A2D8B2D982D0E942B01FE
S11312108091E0019091E101A091E201B091E3019C
S11312208093DC019093DD01A093DE01B093DF0194
S113123029853A854B855C858D819E81AF81B885F2
S1131240281739074A075B0758F40E94820288234B
S113125009F4AACF8C3021F08B3009F0A5CF55CA00
S1131260C19865E081E00E94D5008FEF0E94F100F3
S113127066E081E00E94D50044E050E06889798905
S11312808A899B890E942B011092E0011092E1014E
S11312901092E2011092E30165E082E00E94D50021
S11312A08EE70E94F100F88C0E948202892BE1F7FC
S11312B0F88EBFE7E8E3F1E0B150E040F040E1F739
S11312C000C000000F2EFCE3CF2ED12CE12CF12C1A
S11312D0F02D6091E0017091E1018091E201909123
S11312E0E301A70196010E94D30A49015A018981A9
S11312F09A81AB81BC81281739074A075B0778F1CB
S1131300C09A65E082E00E94D5008FEF0E94F10050
S11313101092E0011092E1011092E2011092E301B7
S11313200E94880086EB91E00E941B016FE080E040
S11313300E94D50082E690E00E941B0166E081E0F5
S11313400E94D50080EC91E00E941B0160E083E0E4
S11313500E94D5008AEC91E00E941B012AC066E03D
S113136082E00E94D50042E050E0C501B4010E9431
S11313702B0169E082E00E94D5006091E001709148
S1131380E1018091E2019091E301A70196010E949D
S1131390D30A42E050E00E942B010E94820288237B
S11313A009F497CF8C3009F4ABCF8B3009F091CF8F
S11313B0ACC90E948202892BE1F7AFE7B8E3E1E010
S11313C0A150B040E040E1F700C000000F2EFCE364
S11313D0CF2ED12CE12CF12CF02D66E080E00E9480
S11313E0D5006091E0017091E1018091E20190915A
S11313F0E301A70196010E94D30ACA01B90142E0A0
S113140050E00E942B0169E080E00E94D5006091C9
S1131410E0017091E1018091E2019091E301A70163
S113142096010E94D30A42E050E00E942B010E94E0
S113143082028C3019F4C098F894FFCF8FE097E2C1
S11314400197F1F700C00000C8CF99819D8706C0BD
S11314505301420126013701A88DAD877301620152
S1131460B6E0412C502E622C732CBE8FABCCFE8D7B
S1131470FA3008F49FCCA6CC04D06894B1118DC086
S1131480089570D088F09F5790F0B92F9927B751DD
S1131490A0F0D1F0660F771F881F991F1AF0BA9534
S11314A0C9F712C0B13081F077D0B1E0089574C0AB
S11314B0672F782F8827B85F39F0B93FCCF386952A
S11314C077956795B395D9F73EF490958095709587
S11314D061957F4F8F4F9F4F0895E89409C097FB04
S11314E03EF490958095709561957F4F8F4F9F4FF7
S11314F09923A9F0F92F96E9BB279395F69587953B
S113150077956795B795F111F8CFFAF4BB0F11F4FD
S113151060FF1BC06F5F7F4F8F4F9F4F16C08823A4
S113152011F096E911C0772321F09EE8872F762FDA
S113153005C0662371F096E8862F70E060E02AF01B
S11315409A95660F771F881FDAF7880F9695879507
S113155097F9089557FD9058440F551F59F05F3F70
S113156071F04795880F97FB991F61F09F3F79F0C1
S113157087950895121613061406551FF2CF469543
S1131580F1DF08C0161617061806991FF1CF8695C5
S11315907105610508940895E894BB2766277727A9
S11315A0CB0197F90895A1E21A2EAA1BBB1BFD01DA
S11315B00DC0AA1FBB1FEE1FFF1FA217B307E4072E
S11315C0F50720F0A21BB30BE40BF50B661F771F86
S11315D0881F991F1A9469F7609570958095909566
S11315E09B01AC01BD01CF010895052E97FB1EF4AC
S11315F000940E940C0B57FD07D00E94D30A07FCED
S113160003D04EF40C940C0B5095409530952195D5
S11316103F4F4F4F5F4F089590958095709561951A
S11316207F4F8F4F9F4F08950E94260BB7FF089559
S1131630821B930B08950E94260BA59F900DB49FC7
S1131640900DA49F800D911D11240895A29FB001B7
S1131650B39FC001A39F700D811D1124911DB29FE2
S1131660700D811D1124911D0895DC01FC01672F6B
S113167071917723E1F7329704C07C916D93708365
S11316806291AE17BF07C8F30895A8E1B0E042E045
S113169050E00C944D0BDC01CB01FC01E199FECF31
S11316A006C0FFBBEEBBE09A31960DB20D924150DD
S10D16B05040B8F70895F894FFCFF6
S11316BA450041535445580054454D5045524154F0
S11316CA5552453A20202020DF43002A3E20534524
S11316DA5454494E475300233E20535441525420F4
S11316EA5441534B00433E2043484F4F53452049EE
S11316FA4E50555400233E204D414E55414C2049ED
S113170A4E505554002A3E204241434B00413A3739
S113171A304C69742E5F3235DF435F326D696E0077
S113172A423A37304C69742E5F3530DF435F326D8D
S113173A696E00433A35304C69742E5F3530DF43A5
S113174A5F326D696E00443A36304C69742E5F35E7
S113175A30DF435F326D696E0057415445523A2077
S113176A2020204C697465720054454D502E3A204D
S113177A202020DF430054494D45203A20202020D0
S113178A6D696E757465002A3E4241434B20443E9E
S113179A44454C2E20233E4E4558540020202020F8
S11317AA002A3E57524F4E4720202020233E434FC3
S11317BA5252454354005741544552FF3030303059
S11317CA2F202020204C495445520054454D502086
S11317DAFF2E2E2E2E2F20202020DF430054494D89
S11317EA4520FF30303A30302F2020204D696E2EAC
S11317FA00433E43414E43454C20202020202023D1
S113180A3E534B49500054696D653A2020203A00F2
S113181A414C41524D494E472100233E20414C41FF
S10B182A524D204F4646000018
S9030000FC
